:1000000000000120910100007F0300004105000075
:100010008303000053050000650500000000000098
:100020000000000000000000000000008903000044
:100030008B030000000000008D0300008F03000010
:100040009103000093030000950300009703000054
:10005000990300009B0300009D0300009F03000024
:10006000A1030000A3030000A5030000A7030000F4
:10007000A9030000AB030000AD030000AF030000C4
:10008000B1030000B3030000B5030000B703000094
:10009000B9030000BB030000BD030000BF03000064
:1000A000C1030000C3030000C5030000C703000034
:1000B000C9030000CB030000CD030000CF03000004
:1000C000D1030000D3030000D5030000D7030000D4
:1000D000D9030000DB030000DD030000DF030000A4
:1000E000E1030000E3030000E5030000E703000074
:1000F000E9030000EB030000ED030000EF03000044
:10010000F1030000F3030000F5030000F703000013
:10011000F9030000FB030000FD030000FF030000E3
:1001200001040000030400000504000007040000AF
:10013000090400000B0400000D0400000F0400007F
:10014000110400001304000015040000170400004F
:10015000190400001B0400001D0400001F0400001F
:1001600021040000230400002504000027040000EF
:10017000290400002B0400002D0400002F040000BF
:100180003104000033040000000000000000000003
:100190004FF0000BDFF8BE020068DFF8B612096806
:1001A00001F0030100F01C00142801D14BF0020BF8
:1001B000002901D04BF0010BBBF1000F05D0A7487F
:1001C000A749DFF8722200F09FF8A64880470BF09D
:1001D000020ABAF1000F0CD0DFF86E02DFF86E12DF
:1001E00002680B680FB44FF000024FF0FF0302608B
:1001F0000B609D484FF000024FF00103022808D128
:10020000DFF83A120A60DFF83E120A60DFF83212B5
:100210000B60012808D1DFF82A120A60DFF82612E5
:100220000A60DFF81A120B609048002809D1904844
:100230009049914A00F030F890489149914A00F075
:100240002BF891489149924A00F026F8914892493A
:10025000DFF8E22100F058F8BBF1000F10D08F4812
:100260008F49DFF8D62100F04FF80BF0020ABAF1FF
:10027000000F05D00FBC02600B6000BF00BF00BFC5
:10028000DFF820020FF2030E00474FF000004FF09E
:100290000001DFF814F2FEE72DE9F841884225D08D
:1002A000B2EB010200D5FEE740EA010313F00303BD
:1002B00002D000F01DF819E04FF000039046121133
:1002C000F7D09A421CBFF0C8F0C103F10103F8D186
:1002D00008F00F08B8F1000F08D004780C7000F196
:1002E000010001F10101B8F10108F6D1BDE8F88182
:1002F00008B54FF0000303780B7000F1010001F125
:100300000101521EF7D108BD884237D000F0030624
:10031000002E14D04FF00405A5EB06044FF008079B
:1003200007FB06F8914669FA08F9002C07D080F817
:10033000009069FA07F900F10100641EF5E74FF03B
:1003400000060F46091A88460911914614461546BB
:10035000B14206D018BFA0E8340206F10106B1424E
:10036000F8D108F00F08B8F1000F07D002704FEA7B
:10037000322200F10100B8F10108F4E77047FEE70E
:10038000FEE7FEE7FEE7FEE7FEE7FEE7FEE7FEE745
:10039000FEE7FEE7FEE7FEE7FEE7FEE7FEE7FEE735
:1003A000FEE7FEE7FEE7FEE7FEE7FEE7FEE7FEE725
:1003B000FEE7FEE7FEE7FEE7FEE7FEE7FEE7FEE715
:1003C000FEE7FEE7FEE7FEE7FEE7FEE7FEE7FEE705
:1003D000FEE7FEE7FEE7FEE7FEE7FEE7FEE7FEE7F5
:1003E000FEE7FEE7FEE7FEE7FEE7FEE7FEE7FEE7E5
:1003F000FEE7FEE7FEE7FEE7FEE7FEE7FEE7FEE7D5
:10040000FEE7FEE7FEE7FEE7FEE7FEE7FEE7FEE7C4
:10041000FEE7FEE7FEE7FEE7FEE7FEE7FEE7FEE7B4
:10042000FEE7FEE7FEE7FEE7FEE7FEE7FEE7FEE7A4
:10043000FEE7FEE7704700000000A2A2A2A2008033
:100440000340088003401080034030800340348024
:1004500003403880034018080240000000F00020EC
:1004600000000120810500000000000000000000E5
:1004700000000000000000009001000000050000E6
:1004800000050000903401009034010000000020BD
:10049000C0000020D000002090580020A05800206C
:1004A00000F00020EDCC00004D9E0000D4D4D4D448
:1005000009480A490A4A0FF0E5F80A480A4A002150
:100510000FF0EAF809480FF0F9F80CF0E7FB0020BB
:10052000002109F093FCFEE70000002000000020FD
:10053000C0000000D0000020C057000000000000F4
:100540001EF0040F0CBFEFF30880EFF3098007F0F3
:1005500001BF1EF0040F0CBFEFF30880EFF309801A
:1005600008F050B81EF0040F0CBFEFF30880EFF353
:10057000098008F07BB8D4D4401EFDD17047D4D494
:1005800080B500F00BF84EF61451CEF20001086869
:1005900040F400700860FFF74DFF80BD80B582B069
:1005A00000F0FEF801900198009058B1FFE7009824
:1005B000012804D0FFE70098022803D003E000F0F0
:1005C00011F901E0FFE7FFE702B080BD80B58AB016
:1005D00045F27860C2F200000068099048F2980085
:1005E000C4F20300006800F08060069006980028BE
:1005F00074D1FFE748F29800C4F20300006800F4E9
:1006000080500490049860BBFFE740F20801C2F2FA
:10061000000146F28050C0F21460086040F20C0104
:10062000C2F20001086040F21001C2F2000108604D
:1006300040F21402C2F2000241F66011C0F28511CC
:10064000116040F21801C2F20001086040F21C0182
:10065000C2F20001086040F22001C2F2000108600D
:100660003BE040F20220C0F2033008904FF001203E
:10067000079048F29C00C4F203000068C0F38210A7
:100680000390039907A8405C8DF80B009DF80B00C0
:1006900001460191032818D80199DFE801F0020909
:1006A0000E1500F02FF80590059800F047F813E0BC
:1006B0004FF4004000F042F80EE044F24020C0F257
:1006C0000F0000F03BF807E0FFE744F24020C0F2E3
:1006D0000F0000F033F8FFE7FFE706E000F012F844
:1006E0000590059800F02AF8FFE745F27860C2F21D
:1006F000000000680999884202D1FFE70AB080BD76
:100700000CF018FB82B048F25010C4F203000068ED
:1007100000F004000190019830B9FFE747F640006F
:10072000C0F27D10009005E04FF28000C0F2FA2088
:100730000090FFE7009802B07047D4D481B00090D9
:10074000009840F20801C2F200010860009840F2EF
:100750000C01C2F200010860009840F21001C2F2E0
:100760000001086040F21401C2F2000141F660107D
:10077000C0F285100860009840F21801C2F2000132
:100780000860009840F21C01C2F200010860009865
:1007900040F22001C2F20001086001B07047D4D4D9
:1007A00083B048F24C10C4F2030000680190019835
:1007B00000904FF60201884208D0FFE700984FF6FC
:1007C0000201C0F20101884203D005E0012002903D
:1007D00005E00220029002E000200290FFE702986C
:1007E00003B0704748F29801C4F20301086840F46E
:1007F00080700860086820F0806008607047D4D47A
:1008000081B000904FF0FF3001B0704780B583B0E9
:100810000290019100920648784402680EF070FF41
:1008200001460C2088504FF0FF3003B080BD00BF60
:10083000E4F7FF1F81B00090FFE7FEE780B50548B1
:10084000784402680EF05CFF01460B2088504FF0A0
:10085000FF3080BDBCF7FF1F82B00190009100996E
:100860004FF400500861002002B07047012070472B
:1008700081B00090012001B07047D4D480B582B01F
:10088000019000910548784402680EF039FF014656
:10089000162088504FF0FF3002B080BD76F7FF1F62
:1008A00080B582B0019000910548784402680EF04E
:1008B00027FF01461F2088504FF0FF3002B080BD57
:1008C00052F7FF1F83B0029001910092002003B005
:1008D0007047D4D483B00290019100924FF0FF3062
:1008E00003B0704783B0029001910092002003B0E2
:1008F0007047D4D484B003900291019200930020F9
:1009000004B0704780B586B0059040F2D400C2F2C2
:100910000000006850B9FFE740F2D401C2F20001C4
:1009200045F69000C2F200000860FFE740F2D400F4
:10093000C2F2000001680491EFF30881039100689E
:100940000399884219D2FFE740F2D400C2F20000B6
:10095000006805990844039988420DD9FFE741F2E0
:100960007762C0F201020020012101911923FFF7F3
:10097000C1FF0198FFF75EFF1DE04FF20000C2F2D9
:100980000000029040F2D400C2F200000068059915
:100990000844029988420DD9FFE741F65902C0F296
:1009A00001020020012100911923FFF7A3FF009805
:1009B000FFF740FFFFE7059A40F2D401C2F20001C1
:1009C000086810440860049806B080BD82B00190A9
:1009D000009100994FF400500861002002B0704768
:1009E00081B000904FF0FF3001B0704780B581B00A
:1009F00000900648784402680EF082FE014602200C
:100A000088504FF0FF3001B080BD00BF08F6FF1FD7
:100A100080B581B000900648784402680EF070FE00
:100A200001460A2088504FF0FF3001B080BD00BF62
:100A3000E4F5FF1F80B582B0019040F2B801C2F228
:100A4000000108684968019AA0FB020301FB02311A
:100A500044F24022C0F20F0200230CF061F8013092
:100A600000900098FFF788FD02B080BD80B582B08D
:100A7000019001984FF47A714843FFF7DBFF02B011
:100A800080BDD4D480B582B0019001984FF47A71C2
:100A90004843FFF7EBFF02B080BDD4D484B003908D
:100AA00002914FF0FF30019002980090FFE700980C
:100AB000A8B1FFE703980078019980EA116242F239
:100AC0003870C0F2010050F8220080EA0120019045
:100AD000039801300390009801380090E7E70198EF
:100AE000C04304B07047D4D480B541F6FD10C0F2C5
:100AF000010008F031F840F20000C0F20000016887
:100B000041F61220C0F2010008F026F840F29010E1
:100B1000C0F2000001684FF23870C0F2000008F027
:100B20001BF840F20050C0F20000016842F2F120D0
:100B3000C0F2010008F010F843F29040C0F201004A
:100B4000016841F2C900C0F2010008F005F843F263
:100B50008040C0F2010001684FF60910C0F20000A9
:100B600007F0FAFF43F29040C0F2010001684FF233
:100B70005170C0F2000007F0EFFF40F20000C2F237
:100B80000000016841F29160C0F2010007F0E4FF4B
:100B900040F2C000C2F20000016841F62050C0F2ED
:100BA000010007F0D9FF40F2D000C2F20000016856
:100BB00041F6F650C0F2010007F0CEFF45F6900076
:100BC000C2F20000016840F6FD20C0F2010007F00B
:100BD000C3FF45F6A000C2F20000016841F26F4079
:100BE000C0F2010007F0B8FF4FF20000C2F20000AF
:100BF00001684FF63D20C0F2000007F0ADFF4FF254
:100C00000000C2F20000016841F6EA30C0F20100C3
:100C100007F0A2FF40F20000C2F20100016841F6B5
:100C20000440C0F2010007F097FF45F69000C2F2C1
:100C30000000016841F2DA00C0F2010007F08CFF09
:100C400041F66D00C0F2010007F086FF80BDD4D4EC
:100C500080B5A8B0269325902491239223981790CD
:100C600026981690239808B9FFE72EE300201990E4
:100C7000FFE7179800788DF86300002800F02283C2
:100C8000FFE717981490FFE7149890F900100020E0
:100C90000C9041B1FFE7149890F90000253818BF77
:100CA00001200C90FFE70C98C00728B1FFE7FFE791
:100CB000149801301490E7E714981799401A15908A
:100CC000159880B1FFE717981599259A24AB00F085
:100CD00003FBB0F1FF3F01DCFFE7F6E2159919983D
:100CE00008441990FFE71498179017980078002887
:100CF00000F0E682FFE717980130179000201A9065
:100D0000FFE7179890F900108DF8631000200B9002
:100D100071B1FFE79DF9631042F63830C0F201006F
:100D20000EF0D4FB1290002818BF01200B90FFE7B3
:100D30000B98C007A0B1FFE7129842F63831C0F215
:100D40000101411A42F64030C0F2010050F8211072
:100D50001A9808431A90FFE7179801301790D0E7C8
:100D6000179890F900002A2816D1FFE71698011D60
:100D7000169100681B901B98B0F1FF3F08DCFFE75D
:100D80001B9840421B901A9840F004001A90FFE70D
:100D900017980130179036E000201B90FFE7179856
:100DA00090F900108DF8631000200A90C1B1FFE7A0
:100DB0009DF9631042F68870C0F20100084490F873
:100DC00080100020490700290A9009D5FFE71B98E9
:100DD000B0F5FA7F4FF00000B8BF01200A90FFE79E
:100DE0000A98C00770B1FFE71B9800EB80019DF9DE
:100DF000630000EB410030381B90FFE7179801308B
:100E00001790CCE7FFE71B98B0F5FA7F01DDFFE70D
:100E10005BE2179890F900002E2804D0FFE74FF00E
:100E2000FF301C9054E01798411C179190F9010075
:100E30002A280FD1FFE71698011D169100681C9013
:100E40001C98B0F5FA7F01DDFFE73EE2179801300C
:100E500017903CE000201C90FFE7179890F90010D5
:100E60008DF8631000200990C1B1FFE79DF9631070
:100E700042F68870C0F20100084490F8801000200B
:100E800049070029099009D5FFE71C98B0F5FA7FBA
:100E90004FF00000B8BF01200990FFE70998C00794
:100EA00070B1FFE71C9800EB80019DF9630000EB37
:100EB000410030381C90FFE7179801301790CCE7BD
:100EC0001C98B0F5FA7F01DDFFE7FEE1FFE7FFE7E1
:100ED000179890F900003A2803D0FFE700201D90F2
:100EE0005DE01798411C179190F901002A281AD14A
:100EF000FFE71698011D1691006810901098B0F148
:100F0000FF3F03DCFFE700201D9008E01098252834
:100F100001DBFFE7D9E110981D90FFE7FFE7179885
:100F2000013017903AE000201D90FFE7179890F9E4
:100F300000108DF8631000200890B9B1FFE79DF90B
:100F4000631042F68870C0F20100084490F88010E7
:100F5000002049070029089008D5FFE71D9824289C
:100F60004FF00000B8BF01200890FFE70898C007C5
:100F700070B1FFE71D9800EB80019DF9630000EB65
:100F8000410030381D90FFE7179801301790CDE7EA
:100F90001D98252801DBFFE797E1FFE7FFE7102019
:100FA00021902290002020901F90179800788DF8B3
:100FB00063009DF963005B282ED1FFE700200F90AE
:100FC00017980130179017981F90FFE7179890F91E
:100FD00000108DF863100020079039B1FFE79DF9EC
:100FE00063005D3818BF01200790FFE70798C0072E
:100FF00038B1FFE71798013017900F9801300F9024
:10100000E4E79DF9630008B9FFE75EE11798013056
:1010100017900F982090D3E09DF963007B2840F053
:10102000CE80FFE7179801301790179890F90000CD
:101030002A2815D1FFE71698011D169100680E9019
:101040000E98002803D2FFE70020069002E00E98D9
:101050000690FFE706980E9017980130179035E03C
:1010600000200E90FFE7179890F900108DF863109C
:1010700000200590B9B1FFE79DF9631042F6887032
:10108000C0F20100084490F88010002049070029B0
:10109000059008D5FFE70E9820284FF0000038BFD4
:1010A00001200590FFE70598C00770B1FFE70E9893
:1010B00000EB80019DF9630000EB410030380E9099
:1010C000FFE7179801301790CDE7FFE70E9821282A
:1010D00001D3FFE7F9E0179890F900002E2801D01E
:1010E000FFE7F2E01798411C179190F901002A28B8
:1010F00015D1FFE71698011D169100680D900D9807
:10110000002803D2FFE70020049002E00D9804902D
:10111000FFE704980D9017980130179035E00020F4
:101120000D90FFE7179890F900108DF863100020DC
:101130000390B9B1FFE79DF9631042F68870C0F2E1
:101140000100084490F8801000204907002903900E
:1011500008D5FFE70D9820284FF0000038BF012088
:101160000390FFE70398C00770B1FFE70D9800EB0D
:1011700080019DF9630000EB410030380D90FFE7DE
:10118000179801301790CDE7FFE7FFE79DF963005F
:1011900008B9FFE799E01798013017900D982128BA
:1011A00001D3FFE791E00E980D990844202801D360
:1011B000FFE78AE00E9821900D982290FFE7FFE765
:1011C000179800788DF863009DF9630088B1FFE7F8
:1011D0009DF9631041F2E900C0F201000EF076F9CA
:1011E00038B1FFE71798013017909DF9630002901E
:1011F00002E000200290FFE702988DF878009DF948
:101200007800C0B1FFE7179890F900008DF86300EF
:1012100088B1FFE79DF963009DF9781088420AD1F3
:10122000FFE79DF8780040F001008DF878001798EE
:1012300001301790FFE7179800788DF863009DF94B
:10124000630030B9FFE71698011D169100681790EA
:101250000FE59DF863008DF84F009DF94F0043287E
:1012600010D1FFE71798411C179140788DF8630063
:101270009DF9630008B9FFE727E09DF863008DF84A
:10128000790003E000208DF87900FFE79DF94F20F9
:10129000259B694624A8086019A816A900F036F80D
:1012A00011901198B0F1FF3F01DCFFE70DE01199BB
:1012B000199808441990FFE7179801301790FFE735
:1012C000FFF7D7BC1998279003E04FF0FF30279025
:1012D000FFE7279828B080BD80B586B004900391C1
:1012E00002920193029B019800680499039A98471F
:1012F0000199086020B9FFE74FF0FF30059002E048
:1013000000200590FFE7059806B080BD10B58CB0B1
:10131000DDF838C00A9009918DF82320079300204A
:1013200006909DF923006E2806D1FFE70A980999D7
:1013300000F018F90B9012E19DF92300252814D133
:10134000FFE707980E996A46002313614FF0010CDE
:10135000C2F80CC00DF1230CC2F808C05360136032
:101360001A4600F05FF90B90F9E09DF9230063281D
:1013700005D0FFE79DF9230043280ED1FFE70A9827
:1013800009999DF92320079BDDF838C0EE46CEF879
:1013900000C000F0D5F90B90E1E09DF9230073281F
:1013A0000ED1FFE70A9809999DF92320079BDDF8E4
:1013B00038C0EE46CEF800C000F026FA0B90CEE022
:1013C0009DF92300652819D0FFE79DF923004528E2
:1013D00014D0FFE79DF9230066280FD0FFE79DF9A1
:1013E000230046280AD0FFE79DF92300672805D08F
:1013F000FFE79DF9230047280ED1FFE70A980999D6
:101400009DF92320079BDDF838C0EE46CEF800C0DA
:1014100000F04CFA0B90A2E09DF923006B280ED14E
:10142000FFE70A9809999DF92320079BDDF838C04A
:10143000EE46CEF800C000F0A9FA0B908FE09DF9BF
:10144000230070280FD1FFE758208DF823000A9958
:10145000002008750A99282048600A9908208860A9
:101460000A99C860FFE79DF9230064280AD0FFE7C6
:101470009DF92300692805D0FFE79DF9230049283D
:101480001FD1FFE70A99486840F0800048600A20B1
:1014900006900A99486820F0080048609DF92300EA
:1014A000692805D0FFE79DF92300492808D1FFE707
:1014B0000A98006920B1FFE70A9800690690FFE7E3
:1014C000FFE79DF92300782805D0FFE79DF9230069
:1014D000582803D1FFE710200690FFE79DF923006D
:1014E000752805D0FFE79DF9230055280ED1FFE7A9
:1014F0000A98006920B1FFE70A980069059002E0A8
:101500000A200590FFE705980690FFE79DF9230064
:101510006F2803D1FFE708200690FFE79DF923001D
:10152000622803D1FFE702200690FFE70698022811
:1015300011D3FFE70A9809999DF92320079BDDF84D
:1015400038C0069CEE46CEF80440CEF800C000F04D
:10155000D5FA0B9003E04FF0FF300B90FFE70B98AC
:101560000CB010BD83B002900191019A1068011D6A
:10157000116000680090009800284FD0FFE70298A3
:1015800090F91400682805D1FFE7029800680099D7
:10159000088042E0029890F91400692805D1FFE71D
:1015A000029800680099087036E0029890F91400DB
:1015B0006C2805D1FFE702980068009908602AE0CE
:1015C000029890F914006A2807D1FFE70298006892
:1015D000009900224A6008601CE0029890F914000B
:1015E0007A2805D1FFE7029800680099086010E0AA
:1015F000029890F91400742805D1FFE7029800685A
:101600000099086004E00298006800990860FFE70C
:10161000FFE7FFE7FFE7FFE7FFE7FFE7002003B093
:101620007047D4D480B586B0DDF830C0DDF82CC06A
:10163000DDF828C0DDF824C0DDF820C00490039157
:101640000292019300200090029888B1FFE702996E
:10165000049A039B42F66030C0F2010000F09EFD48
:10166000B0F1FF3F04DCFFE74FF0FF30059064E08E
:1016700002990098084400900198B0B1FFE70898DB
:1016800098B1FFE701980899049A039BFFF724FE9D
:10169000B0F1FF3F04DCFFE74FF0FF3005904CE076
:1016A0000899009808440090FFE7099888B1FFE77F
:1016B0000999049A039B42F67130C0F2010000F0D0
:1016C0006DFDB0F1FF3F04DCFFE74FF0FF30059008
:1016D00033E009990098084400900B9870B1FFE737
:1016E0000A980B99049A039BFFF7F6FDB0F1FF3FB0
:1016F00004DCFFE74FF0FF3005901EE00B990098E7
:10170000084400900C9888B1FFE70C99049A039B59
:1017100042F66030C0F2010000F040FDB0F1FF3F42
:1017200004DCFFE74FF0FF30059006E00C990098CD
:101730000844009000980590FFE7059806B080BD2A
:1017400080B590B0DDF848C00E900D918DF8332033
:101750000B93002009909DF93300632808D1FFE71F
:101760000D9A1068011D116000688DF82B0004E0CF
:101770000E98407D8DF82B00FFE70E98C068B0F101
:10178000FF3F04DCFFE70E990120C860FFE70E98D9
:10179000C068002803DCFFE70120069003E00E98F4
:1017A000C0680690FFE706980890FFE7089820B306
:1017B000FFE70B9812996A46002313614FF0010C62
:1017C000C2F80CC00DF12B0CC2F808C053601360B6
:1017D0001A46FFF727FF07900798013020B9FFE767
:1017E0004FF0FF300F900BE00799099808440990DB
:1017F000FFE7089801380890D8E709980F90FFE7AD
:101800000F9810B080BDD4D410B58EB0DDF840C0B4
:101810000D900C918DF82F200A93002009900890CC
:1018200007900C9A1068011D1160006806900698D8
:1018300030B9FFE742F2FF50C0F201000690FFE727
:1018400006980DF06DFF09900D98C068002810D41F
:10185000FFE70D98C0680999884204D2FFE70D9808
:10186000C068059002E009980590FFE70598099087
:10187000FFE70D98099908AA07AB00F0BFFC0A988A
:101880001099089A069BDDF824E0079CEC46CCF8FA
:101890001040CCF80CE0CCF808300023CCF8043031
:1018A000CCF80030FFF7BEFE0EB010BD70B592B0A0
:1018B000DDF858C010900F918DF83B200D931098D3
:1018C00090F914004C2804D1FFE74FF0FF3011903D
:1018D00058E00F9A1068073020F0070101F1080066
:1018E0001060086849680B910A900A980B996B463A
:1018F00005AA1A6009AA06AB00F0CCFC05986FF0A7
:101900000041884205D1FFE706980799084358B976
:10191000FFE705986FF0004188421CD1FFE7069869
:1019200007990843B8B9FFE710989DF93B100D9A45
:10193000169BDDF824C0069C079D059EEE46CEF85A
:101940001060CEF80C50CEF80840CEF800C000F081
:10195000DDFD119016E010989DF93B100D9A169B35
:10196000DDF824C0069C079D059EEE46CEF810606B
:10197000CEF80C50CEF80840CEF800C000F074FE4F
:101980001190FFE7119812B070BDD4D4B0B596B0E5
:10199000DDF868C0149013918DF84B2011931499C1
:1019A000086A496A0844109010980730C0080F90E0
:1019B000002007900690079006900F9820B9FFE747
:1019C0004FF0FF30159096E00F98042807D8FFE7F6
:1019D000139A1068011D116000680E9006E0139ABA
:1019E0001068011D116000680E90FFE70E9830B975
:1019F000FFE700200D900B900A90099065E00E988B
:101A000010990139C84000F001000D900D9820B1E7
:101A1000FFE70E9840420E90FFE71098411E01200C
:101A20008840411E0E9808400E900E99C8170A91E2
:101A30000B904FF0FF300590FFE70E9840B1FFE7A5
:101A40000E9840100E90FFE7059801300590F4E7DE
:101A500005981499496A401A0990FFE7BDF82E00CD
:101A6000000948B9FFE70A990B98400040EAD17095
:101A700049000A910B90F1E707980A990B9A62F3D3
:101A8000130006910790069907986FF31E50099B63
:101A90006FF3DF230022C3F6F07202EB0352104310
:101AA000069107900699079820F000400D9A40EAA9
:101AB000C27006910790069807996B4609AA1A60AA
:101AC0000DAA0AAB00F0E6FBFFE71498119A1A9BE7
:101AD0000D99DDF828E00B9C099DEC46CCF81050E0
:101AE000CCF80C40CCF808E0CCF80010662100F0EF
:101AF000BBFD1590FFE7159816B0B0BDF0B5CFB09F
:101B0000DDF854C1DDF850C145F2786CC2F2000C2A
:101B1000DCF800C0CDF838C12C902B918DF8AB20AB
:101B2000299300200A9028902590249023902290B9
:101B300021901E901D902C9800790006002840F1FD
:101B40009380FFE72C9890F914006C2807D1FFE7E9
:101B50002B9A1068011D116000681C9034E02C98CD
:101B600090F914006A280BD1FFE72B9A1068073010
:101B700020F0070000F10801116000681C9022E0CD
:101B80002C9890F914007A2807D1FFE72B9A106857
:101B9000011D116000681C9014E02C9890F914004D
:101BA000742807D1FFE72B9A1068011D11600068A7
:101BB0001C9006E02B9A1068011D116000681C90B3
:101BC000FFE7FFE7FFE7FFE72C9890F9140068288C
:101BD00004D1FFE7BDF970001C90FFE72C9890F945
:101BE0001400692804D1FFE79DF970001C90FFE7FD
:101BF0001C98B0F1FF3F04DCFFE71C9840420990BD
:101C000002E01C980990FFE70998209000208DF8C9
:101C10007E001C98B0F1FF3F04DCFFE72D208DF81B
:101C20007E0014E02C9800798007002804D5FFE797
:101C30002B208DF87E0009E02C980079C00720B198
:101C4000FFE720208DF87E00FFE7FFE7FFE79DF923
:101C50007E0040B1FFE701201E902C99486840F0BB
:101C600008004860FFE759E02C9890F914006C28B0
:101C700007D1FFE72B9A1068011D116000682090C2
:101C800034E02C9890F914006A280BD1FFE72B9AC6
:101C90001068073020F0070000F1080111600068AB
:101CA000209022E02C9890F914007A2807D1FFE7C1
:101CB0002B9A1068011D11600068209014E02C9888
:101CC00090F91400742807D1FFE72B9A1068011DC2
:101CD00011600068209006E02B9A1068011D1160C9
:101CE00000682090FFE7FFE7FFE7FFE72C9890F9F7
:101CF0001400682804D1FFE7BDF880002090FFE7BA
:101D00002C9890F91400692804D1FFE79DF8800011
:101D10002090FFE730208DF87E00FFE79DF9AB00B3
:101D20006F2806D1FFE7209818B1FFE701201E9029
:101D3000FFE79DF9AB0078280AD0FFE79DF9AB00DB
:101D4000582805D0FFE79DF9AB0062281ED1FFE7B8
:101D50002C9800798006002803D4FFE7209838B13A
:101D6000FFE79DF8AB008DF87F0002201E90FFE793
:101D70002C9800798006002807D5FFE79DF87F00A2
:101D800040F020008DF87F00FFE7FFE72C980079F6
:101D9000000700280AD5FFE71E99289808442890D4
:101DA0000DF17E0021901E982290FFE755980A2899
:101DB0002AD1FFE700202790FFE7209818B3FFE71C
:101DC00020984CF6CD41CCF6CC41A0FB01011B91F3
:101DD0001A901B98C0081990199800EB8000189071
:101DE00020981899A0EB4100179027980130279070
:101DF00017983030279A0DF1B601891A81F88200C0
:101E000019982090D9E78FE05598022808D0FFE76D
:101E10005598082804D0FFE7559810284CD1FFE7C3
:101E20005598013816905598102803D1FFE70420E3
:101E3000089007E0559808284FF0010008BF0320DC
:101E40000890FFE70898159000202790FFE720985A
:101E500088B3FFE720981699014042F68230C0F21D
:101E60000100405C8DF853009DF9AB0078280AD042
:101E7000FFE79DF9AB00692805D0FFE79DF9AB00AE
:101E8000752807D1FFE79DF8530040F020008DF83A
:101E90005300FFE72798013027909DF85300279AB9
:101EA0000DF1B601891A81F88200FFE71599209893
:101EB000C8402090CBE736E000202790FFE720982D
:101EC00080B3FFE7209A5599B2FBF1F000FB112196
:101ED00042F68230C0F20100405C8DF852009DF95C
:101EE000AB00692805D0FFE79DF9AB00752807D145
:101EF000FFE79DF8520040F020008DF85200FFE708
:101F00002798013027909DF85200279A0DF1B601CD
:101F1000891A81F88200FFE755992098B0FBF1F00B
:101F20002090CCE7FFE7FFE72C98C069002800F07D
:101F3000CA80FFE72C98806913902C98C069129092
:101F40000020109027980E902798C0F182000D90E5
:101F500013991298084401381390FFE70E9800284F
:101F600000F0B080FFE7129800286BD0FFE71398CD
:101F700000788DF847009DF947002D2801D1FFE733
:101F8000A0E09DF947002A2813D1FFE72B9A10689B
:101F9000011D1160006810901098B0F1FF3F01DC46
:101FA000FFE78FE0139801381390129801381290D0
:101FB00039E00020109001200F90FFE712990020D7
:101FC0000790B1B1FFE7139890F900108DF8471012
:101FD0000020079069B1FFE79DF9471042F688702D
:101FE000C0F20100084490F88000C0F38000079020
:101FF000FFE70798C007A8B1FFE70F989DF94710C2
:102000003039109A00FB012010900F9800EB8000EF
:1020100040000F90FFE71398013813901298013891
:102020001290CBE7FFE7129808B9FFE74AE0139850
:1020300000788DF8470013980138139012980138F2
:102040001290FFE71098B8B3FFE70E9810998842F6
:1020500001D8FFE736E00D980C900E981099401AC1
:102060000B90FFE70B9878B1FFE70C9A0DF1B600E3
:102070008118805C01F8010CFFE70B9801380B9088
:102080000C9801300C90EDE70D9801380D909DF8FB
:1020900047000D990E9A1144109A8A1A0DF1B60153
:1020A00088542798013027901D9801301D90109971
:1020B0000E98401A0E9004E0129808B9FFE701E06C
:1020C000FFE74BE7FFE7279826902C98C068B0F110
:1020D000FF3F04DCFFE72C990120C86005E02C9944
:1020E000486820F010004860FFE727982C99C968DD
:1020F0001D9A1144884203D9FFE72798069005E00E
:102100002C98C0681D9908440690FFE70698279010
:1021100027992898084428902C98289925AA24AB18
:1021200000F06CF827982699401A23902C98007993
:10213000C006002807D5FFE7259923980844239077
:1021400000202590FFE729985499259A219BDDF8D6
:1021500088C0239C269E0DF1B60EAEEB060E0EF146
:102160008205249FEE46CEF81070CEF80C60CEF8B3
:102170000850CEF80440CEF800C0FFF753FA05909F
:1021800045F27860C2F2000000684E99884203D19F
:10219000FFE705984FB0F0BD0AF0CCFD80B588B0E0
:1021A0000690059104920393FFE70598F8B1FFE7C5
:1021B0000598112803D3FFE71020019002E005984D
:1021C0000190FFE70198029006980299049A039BF8
:1021D000FFF782F8B0F1FF3F04DCFFE74FF0FF307C
:1021E000079007E002990598401A0590DDE7002066
:1021F0000790FFE7079808B080BDD4D488B0079057
:102200000691059204930020039002900190069895
:1022100007998968884206D2FFE70798806806997F
:10222000401A0190FFE7079800794007002803D57E
:10223000FFE70198029002E001980390FFE70798FA
:1022400000794006002814D5FFE703980299084456
:10225000009000980799496801F00402012181EA81
:10226000920108444008039000980399401A029094
:10227000FFE7059820B1FFE7039805990860FFE79D
:10228000049820B1FFE7029804990860FFE708B0BE
:102290007047D4D480B590B0DDF848C00F910E904F
:1022A0000D920C930E980F990B910A900A990B9826
:1022B0006FF31F50069107900B98C0F30A500890D7
:1022C0000B98C00F0990089840F2FF7188420AD11C
:1022D000FFE76FF000400490099805900698079971
:1022E00003910290F8E006980799084350B9FFE778
:1022F000089838B9FFE700200490039002900998ED
:102300000590E8E0099805900898D0B9FFE701200A
:1023100008900020039002900490FFE79DF81E00B3
:10232000000700280CD4FFE706990798400040EA10
:10233000D170490006910790089801380890EDE7A0
:102340000CE048F67E50C0F20300039048F2000013
:10235000CAF2C640029000200490FFE74CF2BF6032
:10236000C0F20100019044F20000C5F26320009029
:1023700006990798000340EA115009030691079057
:10238000FFE706980799084318B3FFE79DF81F0079
:102390000006002809D5FFE7009B019A02990398DF
:1023A000C918504102910390FFE706990798400031
:1023B00040EAD170490006910790009801990130D8
:1023C00041F100015FEA51014FEA300001910090B4
:1023D000D7E70898A0F2FF300890FFE70898012897
:1023E00045DBFFE702990398400040EAD1704900BD
:1023F00002910390029903980022C6F6C172891ACD
:1024000048F2F261C0F2230188412BD3FFE7029921
:102410000398053140F10000490841EAC07111EB11
:10242000500242F100034CF6CD42CCF6CC42A3FB65
:1024300002CE2EF0030C0CEB9E0CA3EB0C03CB1A7C
:10244000A3FB021E4FF0CC3C03FB0CE34FEA500011
:1024500060F1000000FB023002910390049801300B
:102460000490FFE7FFE7089801380890B6E7FFE718
:102470000898B0F1FF3F2DDCFFE7029A03994FF671
:10248000FF70C4F68C10801A41F6FD20C0F20700E0
:1024900088410FD3FFE70298039A0A21A0FB01109D
:1024A00002EB820200EB4200029103900498013893
:1024B0000490FFE702980399013041F100015FEABF
:1024C00051014FEA300003910290FFE70898013074
:1024D0000890CDE7FFE7FFE70D9820B1FFE70598EB
:1024E0000D990860FFE70C9830B1FFE70298039A56
:1024F0000C994A600860FFE7129820B1FFE7049842
:1025000012990860FFE710B080BDD4D470B592B0C6
:102510008C468646199918981A9C169CCDF844E06A
:102520008DF843C00F920E930D910C9000200790F0
:1025300006901A986FF00041884221D1FFE70C986D
:102540000D990843E0B1FFE79DF9430066280AD0E2
:10255000FFE79DF94300652805D0FFE79DF943009B
:10256000672806D1FFE741F6C370C0F20100099069
:1025700005E041F60E60C0F201000990FFE71BE0A4
:102580009DF9430066280AD0FFE79DF943006528BE
:1025900005D0FFE79DF94300672806D1FFE740F229
:1025A000B970C0F20100099005E040F6D640C0F2D3
:1025B00001000990FFE7FFE709980DF0B1F80890D6
:1025C000169830B1FFE741F61640C0F201000B90BB
:1025D00024E0169860B9FFE7119800798007002879
:1025E00006D5FFE74FF66E40C0F200000B9014E0F6
:1025F000169858B9FFE711980079C00730B1FFE786
:102600004FF64E20C0F200000B9005E040F2BE10E5
:10261000C0F201000B90FFE7FFE7FFE70B980DF01A
:102620007FF80A90119808990A9A114407AA06ABF4
:10263000FFF7E4FD0F980E99079A0B9BDDF828C071
:10264000099C089D069EEE46CEF81060CEF80C5010
:10265000CEF808400024CEF80440CEF800C0FEF7C3
:10266000E1FF12B070BDD4D470B5BEB08C468646C2
:1026700045994498469C429C45F27864C2F2000415
:1026800024683D94CDF8DCE08DF8DBC035923493BE
:10269000339132900020139031902E902D902C90F9
:1026A0002B902A9029902890279026902490209073
:1026B0001F901E908DF877009DF9DB00672805D0EC
:1026C000FFE79DF9DB00472827D1FFE701201F9096
:1026D0003799486820F020004860469810F1040FB0
:1026E00006DBFFE746983799C96888420ADBFFE7AF
:1026F0009DF9DB0067284FF0450008BF65208DF885
:10270000DB0009E09DF9DB0067284FF0460008BFB9
:1027100066208DF8DB00FFE7FFE79DF9DB00662808
:1027200005D0FFE79DF9DB00462803D1FFE7012034
:102730001E90FFE73798C068B0F1FF3F04DCFFE769
:1027400037990620C860FFE71F9848B1FFE7379820
:10275000C06820B9FFE737990120C860FFE7FFE7AD
:10276000429830B1FFE741F61640C0F201003090C8
:1027700024E0429860B9FFE7379800798007002885
:1027800006D5FFE74FF66E40C0F20000309014E02F
:10279000429858B9FFE737980079C00730B1FFE792
:1027A0004FF64E20C0F20000309005E040F2BE101F
:1027B000C0F201003090FFE7FFE7FFE730980CF030
:1027C000AFFF2F9037984168C2681E9B1F9801F099
:1027D000200C6946C1F804C0086032A846A900F080
:1027E000C9FB329833990843002852D0FFE71020E4
:1027F0003190FFE7319800284AD0FFE7329B3398A9
:102800004CF6CD41CCF6CC41A3FB012E4FF0CC3C95
:1028100003FB0CE300FB0131D00740EA5100C9077C
:1028200041EA520149F69A12C9F69912891A49F6F3
:102830009911C1F69911884101D3FFE728E0FFE71C
:1028400031980138319032993398490841EAC07182
:1028500011EB500242F100034CF6CD42CCF6CC42D3
:10286000A3FB02CE2EF0030C0CEB9E0CA3EB0C038F
:10287000CB1AA3FB021E4FF0CC3C03FB0CE34FEA48
:10288000500060F1000000FB023032913390B1E75C
:10289000FFE71E9800284AD0FFE7379800798006A6
:1028A000002836D5FFE708201C90FFE71C99002080
:1028B0000129129008DBFFE71C9810284FF0000058
:1028C00038BF01201290FFE71298C007C0B1FFE7A0
:1028D0004698032807DBFFE71C9801301C904698B8
:1028E00003384690E2E74698B0F1FF3F07DCFFE788
:1028F0001C9801381C90469803304690D6E7FFE7B5
:102900001C9940F22800C2F20000405C8DF877006C
:10291000FFE74698002804D4FFE74698013011905D
:1029200002E000201190FFE71198239027E001209A
:10293000239037980079800600281FD5FFE7469836
:1029400045F25651C5F2555180FB012101EBD17181
:1029500001EB4101401A1B901B98B0F1FF3F04DCD2
:10296000FFE71B9803301B90FFE71B99239808444F
:1029700023901B994698401A4690FFE7FFE731984D
:102980002399401A012805DBFFE731982399401A63
:10299000109002E000201090FFE710983799C96866
:1029A000884211DAFFE731982399401A012805DBA4
:1029B000FFE731982399401A0F9002E000200F9012
:1029C000FFE70F980E9003E03798C0680E90FFE77E
:1029D0000E9822901E98002800F09680FFE71F981E
:1029E000002800F09180FFE73298339919911890F0
:1029F00031981790FFE717982399229A114488423B
:102A000029DDFFE7FFE71798013817901899199803
:102A1000490841EAC07111EB500242F100034CF643
:102A2000CD42CCF6CC42A3FB02CE2EF0030C0CEB35
:102A30009E0CA3EB0C03CB1AA3FB021E4FF0CC3C65
:102A400003FB0CE34FEA500060F1000000FB023092
:102A500018911990CFE7FFE72299002001290D90E6
:102A600024DBFFE7189B19984CF6CD41CCF6CC41FE
:102A7000A3FB012E4FF0CC3C03FB0CE300FB013128
:102A8000D00740EA5100C90741EA520149F69A12BB
:102A9000C9F69912891A49F69911C1F69911884116
:102AA0004FF0000038BF01200D90FFE70D98C007E0
:102AB00048B3FFE7FFE718991998490841EAC07140
:102AC00011EB500242F100034CF6CD42CCF6CC4261
:102AD000A3FB02CE2EF0030C0CEB9E0CA3EB0C031D
:102AE000CB1AA3FB021E4FF0CC3C03FB0CE34FEAD6
:102AF000500060F1000000FB0230189119902298FC
:102B000001382290A8E7FFE72F98239908442299DB
:102B100008442D901E98E8B3FFE7239830B9FFE7EB
:102B200001202A902D9801302D90FFE723983199AC
:102B3000884205DDFFE723983199401A2990FFE785
:102B4000469810F1020F1CDCFFE73798C068012897
:102B500017DBFFE74698C043289028983799C96843
:102B6000884203D2FFE728980C9003E03798C068AA
:102B70000C90FFE70C98289028992D9808442D90E8
:102B8000FFE79DF8770020B1FFE72D9801302D90E9
:102B9000FFE736E04698B0F1FF3F04DCFFE74698D8
:102BA00040420B9002E046980B90FFE70B98219073
:102BB00000202090FFE72198012810DBFFE7FFE7C6
:102BC000209801302090219846F26761C6F2666134
:102BD00080FB0101881000EBD1702190EBE7209879
:102BE000032803D3FFE720980A9002E002200A900E
:102BF000FFE70A98209020982D99084402302D90E4
:102C0000FFE72898229908443799C968884215D265
:102C1000FFE71F9830B1FFE73798007900070028D9
:102C20000CD5FFE73798C0682899401A2299401AB6
:102C3000279027992D9808442D901BE01E98C0B12D
:102C4000FFE72898229908443799C968884210D923
:102C5000FFE72898229908443799C968401A1690C6
:102C600016992D98401A2D9016992298401A229064
:102C7000FFE7FFE7289868B9FFE7279850B9FFE713
:102C80002298002806DCFFE7379800790007002823
:102C900006D5FFE7012024902D9801302D90FFE705
:102CA00037982D992CAA2BABFFF7A8FA3798007903
:102CB000C006002807D5FFE72C992A9808442A90D7
:102CC00000202C90FFE7239888B1FFE7329A339BCE
:102CD00031982399DDF8A4C0A1EB0C0C6946C1F82A
:102CE00004C0086039A800F037FA099002E000201B
:102CF0000990FFE709982E902E993198401A31904B
:102D0000359834992C9A309BDDF8BCC02A9C2E9DB6
:102D1000EE460026CEF81060CEF80C5039ADCEF855
:102D20000850CEF80440CEF800C0FEF77BFC25909A
:102D30002598013018B9FFE72598389009E12599C1
:102D400026980844269035983499DDF8A4C06A4640
:102D500000231361D3609360C2F804C013601A4665
:102D6000FEF760FC25902598013018B9FFE72598FB
:102D70003890EEE02599269808442690229870B164
:102D8000FFE7329A339B3198DDF888C06946C1F875
:102D900004C0086039A800F0DFF9089002E00020C4
:102DA0000890FFE708982E9035983499249B002BC3
:102DB00018BF0123DDF8A0E02E9CEC460022CCF8E1
:102DC0001020CCF80C4039ACCCF80840CCF804E02A
:102DD000CCF8003040F2BF13C0F20103FEF722FC32
:102DE00025902598013018B9FFE725983890B0E074
:102DF000259926980844269035983499DDF89CC08A
:102E00006A4600231361D3609360C2F804C0136064
:102E10001A46FEF707FC25902598013018B9FFE700
:102E20002598389095E02599269808442690209872
:102E3000002869D0FFE74698B0F1FF3F04DCFFE7C8
:102E400046984042079002E046980790FFE70798AF
:102E500015909DF8DB008DF85200469800284FF041
:102E60002B0048BF2D208DF8530020982190002082
:102E70002E90FFE72198012824DBFFE715984CF6F8
:102E8000CD41CCF6CC41A0FB0121C90801EB810169
:102E9000A0EB410040F03000219939AA114401F81B
:102EA000010CFFE72198013821902E9801302E90D7
:102EB00015984CF6CD41CCF6CC41A0FB0110C008D2
:102EC0001590D7E7359834992E9BEC460022CCF824
:102ED0001020CCF80C3039ABCCF80830CCF80420FA
:102EE0000223CCF800300DF15203FEF79BFB259036
:102EF0002598013018B9FFE72598389029E02599E1
:102F0000269808442690FFE7359834999DF9773044
:102F1000002B18BF0123DDF8ACC06A46C2F810C010
:102F2000D3600DF1770393600023536013601A465A
:102F3000FEF778FB25902598013018B9FFE7259812
:102F4000389006E0259926980844269026983890CF
:102F5000FFE73898069045F27860C2F200000068FA
:102F60003D99884203D1FFE706983EB070BD09F055
:102F7000E1FED4D410B58CB0DDF83CC0DDF838C02B
:102F80000B900A91099208934CF27930C0F211002B
:102F9000079048F20000C3F2E07006900020059010
:102FA0000A98006804900F98B0B3FFE7049845F2C0
:102FB0005651C5F2555180FB012101EBD17101EB56
:102FC0004101401A04900498B0F1FF3F04DCFFE790
:102FD000049803300490FFE70898E0B1FFE70A98EF
:102FE0000068B0F1FF3F05DCFFE70A980068404247
:102FF000029003E00A9800680290FFE702980390AD
:103000000398192806DBFFE7039804990844183849
:103010000490FFE7FFE7FFE70898C0B9FFE70498CF
:10302000B0F1FF3F04DCFFE7049801300490FFE7B4
:103030000498B0F1FF3F04DCFFE7049840420190A0
:1030400002E004980190FFE701980490FFE70498DC
:1030500009990844013005900598012803DBFFE732
:103060000598009002E000200090FFE7009805908E
:10307000FFE70598411E059128B3FFE706990798D9
:10308000490841EAC07111EB500242F100034CF6CD
:10309000CD42CCF6CC42A3FB02CE2EF0030C0CEBBF
:1030A0009E0CA3EB0C03CB1AA3FB021E4FF0CC3CEF
:1030B00003FB0CE34FEA500060F1000000FB02301C
:1030C00006910790D5E7DDF818C0079B0B990A68B1
:1030D000486812EB0C0258410A6048600B9801687E
:1030E00040680022C6F6C172891A48F2F261C0F245
:1030F000230188412ED3FFE70B990A6848680532FF
:1031000040F10000520842EAC07212EB500343F152
:10311000000C4CF6CD43CCF6CC43ACFB03E424F0DE
:10312000030E0EEB940EACEB0E0CB2EB0C0CACFBE6
:1031300003244FF0CC3E0CFB0E4C4FEA500060F1E4
:10314000000000FB03C00A6048600A99086801306B
:103150000860FFE70CB010BD80B586B009990899EA
:1031600005900393029208980999401A0190FFE78D
:103170000198012829DBFFE702990398490841EAF1
:10318000C07111EB500242F100034CF6CD42CCF677
:10319000CC42A3FB02CE2EF0030C0CEB9E0CA3EB57
:1031A0000C03CB1AA3FB021E4FF0CC3C03FB0CE339
:1031B0004FEA500060F1000000FB023002910390E2
:1031C000FFE7019801380190D2E709980190FFE7E5
:1031D0000198002845D0FFE70298039A410841EA88
:1031E000C27111EB520141F100014CF6CD42CCF617
:1031F000CC42A1FB023C2CF0030303EB9C03C91A55
:1032000000F0010040EA4100009000983030059B3A
:103210000199194401F8010C02990398490841EAFF
:10322000C07111EB500343F10003A3FB02CE2EF05B
:10323000030C0CEB9E0CA3EB0C03CB1AA3FB021E9E
:103240004FF0CC3C03FB0CE34FEA500060F1000070
:1032500000FB023002910390FFE7019801380190D2
:10326000B6E7099806B080BD80B58CB00020049008
:10327000ADF82E0040F25000C2F20000D0F800C0BD
:10328000CDF808C09CF893209CF8921041EA0222E5
:103290009CF891309CF8901041EA032141EA0241E8
:1032A0000A919CF88C109CF88D309CF88E209CF82C
:1032B0008FC042EA0C2241EA032141EA024109910E
:1032C0000368039393F8B31093F8B20040EA012126
:1032D00093F8B12093F8B00040EA022040EA0140A0
:1032E000089093F8AC0093F8AD2093F8AE1093F8E3
:1032F000AF3041EA032140EA022040EA0140079052
:1033000040F6E010C0F2010005F026FC09A800F02C
:1033100015FA40F2BD70C0F2010005F01DFC07A8CF
:1033200000F00CFA04989DF925209DF8241041EA3C
:103330000221059059B1FFE79DF929109DF8280059
:1033400040EA0120002818BF01200590FFE70598FA
:1033500000F001008DF81B009DF91D109DF81C0068
:1033600040EA01210020019059B1FFE79DF92110A9
:103370009DF8200040EA0120002818BF012001909C
:10338000FFE7019800F001008DF81A009DF9252053
:103390009DF824009DF8281040EA02209DF929207C
:1033A00041EA0221884204D1FFE700208DF81B008A
:1033B000FFE79DF91D209DF81C009DF8201040EAB4
:1033C00002209DF9212041EA0221884204D1FFE731
:1033D00000208DF81A00FFE79DF925109DF82400C4
:1033E00040EA01234FF6B110CBF28C3083FB002171
:1033F000CA18511201EBD27240F2DA2102FB1132EB
:103400008DF82420120A8DF825209DF929309DF889
:10341000282042EA032383FB00C202EB030C4FEA9D
:103420006C2202EBDC7202FB11328DF82820120AAA
:103430008DF829209DF91D309DF81C2042EA0323B8
:1034400083FB00C202EB030C4FEA6C2202EBDC723E
:1034500002FB11328DF81C20120A8DF81D209DF9F7
:1034600021309DF8202042EA032282FB003083189D
:10347000581200EBD37000FB11208DF82000000AD9
:103480008DF821009DF925109DF8240040EA0120C7
:10349000B0F1FF3F0EDCFFE79DF824009DF82510FA
:1034A00040EA012000F2DA208DF82400000A8DF8AD
:1034B0002500FFE79DF929109DF8280040EA01202A
:1034C000B0F1FF3F0EDCFFE79DF828009DF82910C2
:1034D00040EA012000F2DA208DF82800000A8DF879
:1034E0002900FFE79DF91D109DF81C0040EA01200E
:1034F000B0F1FF3F0EDCFFE79DF81C009DF81D10AA
:1035000040EA012000F2DA208DF81C00000A8DF854
:103510001D00FFE79DF921109DF8200040EA0120E1
:10352000B0F1FF3F0EDCFFE79DF820009DF8211071
:1035300040EA012000F2DA208DF82000000A8DF820
:103540002100FFE79DF925209DF824009DF8281013
:1035500040EA02209DF9292041EA0221401A414215
:10356000002848BF0846B0F5B77F2FDBFFE79DF97D
:1035700025209DF824009DF8281040EA02209DF99E
:10358000292041EA022188420FDAFFE709A89DF8C5
:1035900024009DF8251040EA012000F2DA208DF881
:1035A0002400000A8DF825000FE009A804309DF8DA
:1035B00028009DF8291040EA012000F2DA208DF859
:1035C0002800000A8DF82900FFE7FFE79DF91D207C
:1035D0009DF81C009DF8201040EA02209DF9212052
:1035E00041EA0221401A4142002848BF0846B0F58E
:1035F000B77F2FDBFFE79DF91D209DF81C009DF88C
:10360000201040EA02209DF9212041EA022188424F
:103610000FDAFFE707A89DF81C009DF81D1040EA8F
:10362000012000F2DA208DF81C00000A8DF81D0040
:103630000FE007A804309DF820009DF8211040EA13
:10364000012000F2DA208DF82000000A8DF8210018
:10365000FFE7FFE79DF925209DF824009DF828103D
:1036600040EA02209DF9292041EA0221401A414204
:10367000002848BF0846B0F5B77F04DBFFE700200D
:103680008DF81B00FFE79DF91D209DF81C009DF89B
:10369000201040EA02209DF9212041EA0221401A2F
:1036A0004142002848BF0846B0F5B77F04DBFFE77A
:1036B00000208DF81A00FFE74FF26770C0F200009B
:1036C00005F04AFA09A800F039F840F2BD70C0F2DE
:1036D000010005F041FA07A800F030F89DF81B0042
:1036E000C00730B1FFE709A800F076F8ADF82E006A
:1036F000FFE79DF81A00C00750B1FFE707A800F0E8
:103700006BF80146BDF82E000844ADF82E00FFE727
:103710009DF81B00C00768B1FFE79DF81A00C007BD
:1037200040B1FFE7BDF92E0000EBD0704008ADF8C6
:103730002E00FFE7BDF92E000CB080BD80B582B031
:103740000190DDF804C0CDF800C09CF807109CF88B
:10375000060040EA01219CF805209CF8040040EA9C
:10376000022040EA01439CF800009CF801209CF8EC
:1037700002109CF803C041EA0C2140EA022040EA12
:10378000014241F6C770C0F2010005F0E5F900986A
:1037900090F90110007840EA012141F28840C0F21E
:1037A000010005F0D9F9009890F90510007940EA78
:1037B00001214FF67040C0F2000005F0CDF90098ED
:1037C00000F00AF801464FF67F40C0F2000005F015
:1037D000C3F902B080BDD4D480B582B00190019805
:1037E0000090011D00F06CFE009B008893F901C061
:1037F00019781A7941EA0C2193F9053042EA03223B
:10380000891A4A42002948BF114600EB510000B214
:1038100002B080BD80B58CB0002002900B900AA849
:1038200000F074FA9DF8280040F001008DF828009F
:103830009DF8280040F002008DF828009DF828002F
:1038400040F004008DF8280040F25000C2F2000061
:10385000039001689DF828009DF829209DF82A30E2
:103860009DF82BC081F823C081F8223081F82120F7
:1038700081F820006420FDF7F9F809A800F050FA5B
:1038800002980399D1F800E09EF824209EF825C004
:103890009EF826309EF827E043EA0E2342EA0C22E7
:1038A00042EA034209928DF825008DF824000A6847
:1038B0009DF824109DF825309DF826C09DF827E03E
:1038C00082F827E082F826C082F8253082F824109A
:1038D0000B90FFE70B9800097C282CD8FFE740F2FB
:1038E0005000C2F20000036893F8240093F82520EA
:1038F00093F8261093F8273041EA032140EA02208A
:1039000040EA014009909DF925209DF824009DF88A
:10391000261040EA02209DF9272041EA0221884230
:1039200001D1FFE707E00120FDF7A0F8FFE70B98C2
:1039300001300B90CEE79DF8280040F008008DF88C
:10394000280040F25000C2F2000002689DF82810E2
:103950009DF829309DF82AC09DF82BE082F823E0DD
:1039600082F822C082F8213082F820109DF82810B9
:1039700001F0F7018DF8281002689DF828109DF8D5
:1039800029309DF82AC09DF82BE082F823E082F8C8
:1039900022C082F8213082F8201002218DF82510F3
:1039A000EE218DF8241001689DF824009DF8252053
:1039B0009DF826309DF827C081F827C081F8263071
:1039C00081F8252081F8240000200B90FFE70B9858
:1039D00000097C282CD8FFE740F25000C2F200001A
:1039E000036893F8240093F8252093F8261093F8A1
:1039F000273041EA032140EA022040EA01400990D1
:103A00009DF925209DF824009DF8261040EA02200B
:103A10009DF9272041EA0221884201D1FFE707E012
:103A20000120FDF723F8FFE70B9801300B90CEE75C
:103A3000FFF71AFCADF82200BDF822002D388DF8F2
:103A40002400000A8DF8250040F25000C2F2000068
:103A500001689DF824009DF825209DF826309DF8EA
:103A600027C081F827C081F8263081F8252081F809
:103A70002400BDF92200A0F12D0140F60D30C0F266
:103A8000010005F069F800200B90FFE70B98000992
:103A90007C2829D8FFE740F25000C2F200000368FA
:103AA00093F8240093F8252093F8261093F82730F4
:103AB00041EA032140EA022040EA01400990BDF9B1
:103AC00022002D389DF927209DF8261041EA022179
:103AD000884201D1FFE707E00120FCF7C7FFFFE7BD
:103AE0000B9801300B90D1E7BDF822008DF824002F
:103AF000000A8DF8250040F25000C2F20000016873
:103B00009DF824009DF825209DF826309DF827C0BB
:103B100081F827C081F8263081F8252081F824001B
:103B2000BDF9221040F60D30C0F2010005F014F886
:103B300000200B90FFE70B9800097C2828D8FFE7AE
:103B400040F25000C2F20000036893F8240093F89A
:103B5000252093F8261093F8273041EA032140EA04
:103B6000022040EA01400990BDF922009DF927207A
:103B70009DF8261041EA0221884201D1FFE707E0C3
:103B80000120FCF773FFFFE70B9801300B90D2E7A1
:103B90009DF927109DF8260040EA01210B9A40F27A
:103BA0005320C0F2010004F0D7FF9DF8280040F038
:103BB00008008DF8280040F25000C2F20000019089
:103BC00002689DF828109DF829309DF82AC09DF8BC
:103BD0002BE082F823E082F822C082F8213082F8BC
:103BE00020109DF8281001F0F7018DF828100268C8
:103BF0009DF828109DF829309DF82AC09DF82BE0EB
:103C000082F823E082F822C082F8213082F8201066
:103C1000D0F800C09CF893209CF8921041EA022250
:103C20009CF891309CF8901041EA032141EA02414E
:103C300007919CF88C109CF88D309CF88E209CF895
:103C40008FC042EA0C2241EA032141EA0241069177
:103C5000036893F8B31093F8B20040EA012193F897
:103C6000B12093F8B00040EA022040EA01400590FC
:103C700093F8AC0093F8AD2093F8AE1093F8AF3002
:103C800041EA032140EA022040EA0140049040F664
:103C9000DA40C0F2010004F05FFF06A8FFF74EFD16
:103CA00040F2BD70C0F2010004F056FF04A8FFF717
:103CB00045FD019840F23C02C2F200020121116070
:103CC0009DF8281001F0FE018DF828109DF82810AD
:103CD00001F0FD018DF828109DF8281001F0FB017E
:103CE0008DF8281001689DF828009DF829209DF87E
:103CF0002A309DF82BC081F823C081F8223081F84A
:103D0000212081F820000CB080BDD4D481B0009077
:103D100000980021C17081704170017001B070473E
:103D200081B0009000980021C170817041700170D5
:103D300001B0704780B586B0059000200490ADF8C2
:103D40000E000598092803D3FFE7FFF763FDFFE79F
:103D500040F23C00C2F2000000680599884201D19F
:103D6000FFE734E1059820B9FFE78720ADF80E00A2
:103D700006E005985B2148435B38ADF80E00FFE78D
:103D80000DF10A00FFF7C2FF9DF80A0040F00100A4
:103D90008DF80A009DF80A0040F002008DF80A0034
:103DA0009DF80A0040F004008DF80A0040F250002F
:103DB000C2F20000009001689DF80A009DF80B20F7
:103DC0009DF80C309DF80DC081F823C081F8223099
:103DD00081F8212081F820006420FCF747FE01A82B
:103DE000FFF79EFF0098036893F8240093F82520BE
:103DF00093F8261093F8273041EA032140EA022085
:103E000040EA01400190BDF90E00A0F12D0140F6FD
:103E10000D30C0F2010004F09FFE0098BDF80E10B6
:103E20002D398DF80410090A8DF8051001689DF8E8
:103E300004009DF805209DF806309DF807C081F824
:103E400027C081F8263081F8252081F82400002041
:103E50000490FFE7049800097C2829D8FFE740F286
:103E60005000C2F20000036893F8240093F8252064
:103E700093F8261093F8273041EA032140EA022004
:103E800040EA01400190BDF90E002D389DF9072050
:103E90009DF8061041EA0221884201D1FFE707E0C0
:103EA0000120FCF7E3FDFFE7049801300490D1E71F
:103EB000BDF90E1040F60D30C0F2010004F04CFECA
:103EC000BDF80E008DF80400000A8DF8050040F2E0
:103ED0005000C2F2000001689DF804009DF8052022
:103EE0009DF806309DF807C081F827C081F826307C
:103EF00081F8252081F8240000200490FFE7049831
:103F000000097C2828D8FFE740F25000C2F20000E8
:103F1000036893F8240093F8252093F8261093F86B
:103F2000273041EA032140EA022040EA01400190A3
:103F3000BDF90E009DF907209DF8061041EA022107
:103F4000884201D1FFE707E00120FCF78FFDFFE782
:103F5000049801300490D2E79DF907109DF80600FF
:103F600040EA0121049A40F25320C0F2010004F01B
:103F7000F3FD059840F23C01C2F2000108609DF893
:103F80000A0000F0FE008DF80A009DF80A0000F01B
:103F9000FD008DF80A009DF80A0000F0FB008DF886
:103FA0000A0040F25000C2F2000001689DF80A00C9
:103FB0009DF80B209DF80C309DF80DC081F823C0B2
:103FC00081F8223081F8212081F82000FFE706B037
:103FD00080BDD4D480B58CB040F23C00C2F2000069
:103FE0000068092803D3FFE7FFF714FCFFE70AA8DE
:103FF000FFF796FE40F25000C2F20000036893F80B
:10400000240093F8252093F8261093F8273041EAEE
:10401000032140EA022040EA01400A909DF929204C
:104020009DF828009DF82A1040EA02209DF92B20D7
:1040300041EA0221884204D0FFE701208DF82F00D9
:10404000B8E140F23C00C2F20000039001689DF923
:104050002B209DF82A0040EA022241F63120C0F2CE
:10406000010004F079FD03980068D0B9FFE79DF9DD
:104070002B109DF82A0040EA012086280DDBFFE77F
:104080009DF92B109DF82A0040EA0120882804DCC5
:10409000FFE701208DF82F008CE100208DF82F0024
:1040A00088E109A8FFF732FE9DF8240040F00100E6
:1040B0008DF824009DF8240040F002008DF82400C3
:1040C0009DF8240000F0FB008DF8240040F2500021
:1040D000C2F20000009001689DF824009DF82520A0
:1040E0009DF826309DF827C081F823C081F8223042
:1040F00081F8212081F820006420FCF7B7FC08A893
:10410000019000F05BF90098036893F8280093F899
:10411000292093F82A1093F82B3041EA032140EA32
:10412000022040EA0140089040F63730C0F201001A
:1041300004F012FD019800F04BF99DF8201061EA9F
:104140005100C04300EA910000EAD10000F00100F4
:104150008DF81F009DF82010080960EA5110C04337
:1041600000EA911000EAD1108DF81E009DF8201091
:10417000C84340EA5100C04300EA910000EAD10080
:1041800000F001008DF81D009DF82010480960EA3C
:104190001110C04300EA911000EAD1108DF81C0004
:1041A0009DF82010C84360EA510040EA9100C043E6
:1041B00000EAD10000F001008DF81B009DF82010EE
:1041C0006FEA111060EA511040EA9110C04300EA12
:1041D000D1108DF81A009DF82010C84340EA510014
:1041E00040EA9100C04300EAD10000F001008DF8E0
:1041F00019009DF82010480960EA111040EA91105A
:10420000C04300EAD1108DF818009DF82010C84373
:1042100060EA5100C04300EA910020EAD10000F0BA
:1042200001008DF817009DF820206FEA121060EA57
:104230005210C04300EA9211012080EAD2121140CC
:104240008DF816109DF82020D14341EA5201C94350
:1042500001EA920121EAD20101F001018DF8151065
:104260009DF82020510961EA1211C94301EA921117
:1042700080EAD21211408DF814109DF82020D1430D
:1042800061EA520141EA920141EAD20120EA0101C8
:104290008DF813109DF820206FEA121161EA521177
:1042A00041EA921101F0010141EAD21181F00101CC
:1042B0008DF812109DF82020D14341EA520141EAC5
:1042C000920141EAD20188438DF811009DF8201037
:1042D000480960EA111040EA911000F0010040EA3C
:1042E000D11080F001008DF8100040F23C00C2F2C5
:1042F00000000068013801460291072856D802994B
:10430000DFE801F0040E18222C36404A9DF81F0009
:104310009DF81E10084300F001008DF82F0049E0C1
:104320009DF81D009DF81C10084300F001008DF859
:104330002F003FE09DF81B009DF81A10084300F085
:1043400001008DF82F0035E09DF819009DF8181038
:10435000084300F001008DF82F002BE09DF81700B6
:104360009DF81610084300F001008DF82F0021E0A1
:104370009DF815009DF81410084300F001008DF819
:104380002F0017E09DF813009DF81210084300F06D
:1043900001008DF82F000DE09DF811009DF8101020
:1043A000084300F001008DF82F0003E000208DF895
:1043B0002F00FFE79DF82F000CB080BD81B000906A
:1043C00000980021C17081704170017001B0704788
:1043D00080B584B00390039B019318785A7899783C
:1043E000DB7841EA032140EA022040EA014142F23F
:1043F0000660C0F2010004F0AFFB0198007800F005
:10440000010141F2DC10C0F2010004F0A5FB0198AB
:104410000078C0F3400140F27260C0F2010004F085
:104420009BFB01980078C0F3800140F2BF70C0F29E
:10443000010004F091FB01980078C0F3C00140F640
:104440000C20C0F2010004F087FB01980078C0F353
:10445000001140F6FA40C0F2010004F07DFB019823
:104460000078C0F3401142F23710C0F2010004F0AE
:1044700073FB01980078C0F380114FF64870C0F2CA
:10448000000004F069FB01980078C1094FF65D70E7
:10449000C0F2000004F060FB0198407800F00F01CA
:1044A00041F6E070C0F20100029004F055FB019962
:1044B00002984978090904F04FFB04B080BDD4D4B8
:1044C00080B584B003900291039802999DF807206B
:1044D00000F002F804B080BD80B584B08DF80F20E4
:1044E000029001910199029A0DF10F0000F00CF871
:1044F00018B1FFE70198009002E002980090FFE7F2
:10450000009804B080BDD4D483B002900191009291
:104510000198B0F900000099B1F9001088424FF0FD
:104520000000B8BF012003B07047D4D480B544F276
:104530004950C0F200000AF057FF80BD81B00090E2
:10454000009801B07047D4D480B540F24000C2F268
:104550000000FFF7F3FF80BD80B588B040F2DC00BB
:10456000C2F20000079040F61911C0F2010140F6B6
:104570002122C0F2010244F63903C0F2000300F028
:1045800019F90798103041F2A861C0F2010140F218
:104590008622C0F2010244F6ED03C0F2000301934B
:1045A00000F008F9079820304FF63261C0F20001A0
:1045B00040F28762C0F2010244F6BD13C0F200036C
:1045C000029300F0F7F80798019B303040F23C511D
:1045D000C0F2010140F2C112C0F2010200F0EAF89B
:1045E0000798029B403041F29641C0F2010140F62B
:1045F000EF62C0F2010200F0DDF80798503040F69B
:104600002111C0F2010141F29842C0F2010244F6C8
:104610004523C0F2000300F0CDF8079860304FF654
:104620007271C0F2000142F23062C0F2010244F63F
:10463000B553C0F2000300F0BDF80798703040F2A7
:104640003E51C0F2010141F61262C0F2010245F290
:10465000B503C0F2000300F0ADF80798803042F2D5
:104660004C11C0F201014FF65022C0F2000245F297
:10467000F923C0F2000300F09DF80798903042F64D
:10468000D731C0F2010142F6E632C0F201020392D4
:1046900047F2AD03C0F20003049300F08BF80798D3
:1046A000039A049BA03040F29921C0F2010100F06E
:1046B00081F80798B03042F61741C0F2010142F686
:1046C0002642C0F20102059247F2D123C0F2000354
:1046D000069300F06FF80798059A069BC0304FF6D6
:1046E0002111C0F2000100F065F80798D03042F6C1
:1046F0004F41C0F2010142F66342C0F2010247F2AB
:10470000CD53C0F2000300F055F80798E0304FF6A3
:10471000D421C0F2000140F2D472C0F2010245F28D
:104720005143C0F2000300F045F80798F03041F61D
:10473000F571C0F2010142F25912C0F2010245F2D4
:10474000E543C0F2000300F035F8079800F58070EB
:1047500040F60701C0F2010142F20832C0F2010244
:1047600045F29D73C0F2000300F024F8079800F5AD
:10477000887040F28D01C0F2010141F63152C0F261
:10478000010245F60D13C0F2000300F013F807987C
:1047900000F5907040F2C231C0F2010141F2F11215
:1047A000C0F2010245F62533C0F2000300F002F822
:1047B00008B080BD80B586B0059004910392029345
:1047C00005980190049901600399416000210172EC
:1047D0000299C16000680AF0A3FF014601980172C6
:1047E00006B080BD81B00090012001B07047D4D4E4
:1047F00080B582B0019001980090FFF79FFE00986D
:10480000042105F02FF902B080BDD4D480B5FFF7A4
:104810008DFEFFF7A1FE80BD80B544F62900C0F2F1
:1048200000000AF0E1FD80BD80B540F24400C2F214
:104830000000FFF783FE80BD80B586B0059004912F
:104840000392029340F25000C2F200000068B8B335
:10485000FFE740F25000C2F20000D0F800C09CF820
:1048600000109CF801309CF802209CF803C042EA3A
:104870000C2241EA032141EA0241D0F800C09CF831
:1048800004009CF805309CF806209CF807C042EA1A
:104890000C2240EA032040EA02406A46506042F699
:1048A000BD30C0F20100106041F64260C0F201006C
:1048B00040F2CD32C0F20102802304F04DF90FE046
:1048C00041F67000C0F2010040F2CD31C0F20101AA
:1048D00042F6BD33C0F20103802204F03DF9FFE748
:1048E00004980AF01DFF40B206B080BD80B588B0C4
:1048F000079006910592049300200290069841F6D5
:104900001841C0F2010102AA08F06EFA8DF8070002
:104910009DF90700002824DCFFE740F2D130C0F207
:10492000010004F019F940F25000C2F200000068E2
:104930000299405C03900299039A42F27E60C0F2B1
:10494000010004F009F9039940F61400C0F20100D7
:1049500004F002F941F66D00C0F2010004F0FCF829
:1049600028E0029820F00300029040F25000C2F2CA
:10497000000000680299405C039040F2D130C0F220
:10498000010004F0E9F80299039A41F2F000C0F244
:10499000010004F0E1F8039940F60D70C0F2010047
:1049A00004F0DAF8039940F63A30C0F2010004F05E
:1049B000D3F8FFE79DF9140008B080BD80B588B03A
:1049C00006900591049203930020029001900598AF
:1049D00040F2D611C0F2010102AA01AB08F004FABC
:1049E0008DF803009DF9030001280DDCFFE7059910
:1049F0009DF9032040F64430C0F2010004F0ACF809
:104A0000FF208DF81F0019E0019840F25001C2F21A
:104A100000010968029A8854019942F20200C0F22A
:104A2000010004F099F8029941F6A160C0F201007A
:104A300004F092F804988DF81F00FFE79DF91F001D
:104A400008B080BD80B58AB00890079106920593A2
:104A500004A8FFF75BF903A8FFF762F902A8FFF7C4
:104A6000ADFC40F25000C2F20000006850B9FFE710
:104A700040F60F50C0F2010004F06EF806988DF871
:104A8000270070E040F62A10C0F2010024221146EF
:104A900004F062F84FF6D920C0F200002822114637
:104AA00004F05AF840F65620C0F2010020221146C8
:104AB00004F052F840F25000C2F20000D0F800C0FA
:104AC0009CF820109CF821309CF822209CF823C0F0
:104AD00042EA0C2241EA032141EA02410491D0F862
:104AE00000C09CF824109CF825309CF826209CF8E7
:104AF00027C042EA0C2241EA032141EA0241039124
:104B0000036893F8280093F8292093F82A1093F863
:104B10002B3041EA032140EA022040EA01400290A2
:104B20004FF68E40C0F2000004F016F804A800F022
:104B30001FF841F2E340C0F20100019004F00CF8CC
:104B400003A800F007F9019804F006F802A8FFF79F
:104B50003FFC019804F000F8019803F0FDFF06986F
:104B60008DF82700FFE79DF927000AB080BDD4D457
:104B700080B582B00190019B009318785A7899789B
:104B8000DB7841EA032140EA022040EA014141F298
:104B9000DE20C0F2010003F0DFFF0098007800F093
:104BA000010140F66E50C0F2010003F0D5FF0098FD
:104BB0000078C0F340014FF6E430C0F2000003F08B
:104BC000CBFF00980078C0F3800140F68050C0F21F
:104BD000010003F0C1FF00980078C0F3C00142F269
:104BE0002300C0F2010003F0B7FF00980078C0F383
:104BF00000114FF63450C0F2000003F0ADFF0098F2
:104C00000078C0F3401141F28850C0F2010003F077
:104C1000A3FF00980078C0F380114FF60600C0F2A1
:104C2000000003F099FF00980078C10940F2445059
:104C3000C0F2010003F090FF0098407800F00101FD
:104C400041F60B30C0F2010003F086FF0098407877
:104C5000C0F340014FF64650C0F2000003F07CFF65
:104C600000984078C0F3800142F2C610C0F2010003
:104C700003F072FF00984078C0F3C0014FF6C460A3
:104C8000C0F2000003F068FF00984078C0F3001104
:104C900040F67710C0F2010003F05EFF0098407804
:104CA000C0F3401140F6ED30C0F2010003F054FFB4
:104CB00000984078C0F3801140F6F930C0F201004E
:104CC00003F04AFF00984078C10940F60540C0F261
:104CD000010003F041FF0098807800F001014FF6D9
:104CE0001800C0F2000003F037FF00988078C0F38E
:104CF000400140F6A270C0F2010003F02DFF0098C1
:104D00008078C0F3800140F2F800C0F2010003F0A7
:104D100023FF00988078C0F3C0014FF6EC70C0F21A
:104D2000000003F019FF00988078C0F3001140F6EE
:104D30009350C0F2010003F00FFF00988078C0F399
:104D4000401142F23500C0F2010003F005FF02B04D
:104D500080BDD4D480B582B00190019B00931878B7
:104D60005A789978DB7841EA032140EA022040EA48
:104D7000014141F21310C0F2010003F0EDFE009872
:104D800090F90110007840EA01214FF62700C0F2A7
:104D9000000003F0E1FE009890F90310807840EAEB
:104DA000012141F20070C0F2010003F0D5FE02B013
:104DB00080BDD4D480B58AB008900791069205933F
:104DC00040F25000C2F20000006850B9FFE74FF611
:104DD0007E70C0F2000003F0BFFE06988DF8270039
:104DE00064E141F2B160C0F201008C22114603F08F
:104DF000B3FE40F29B00C0F201004FF4A2714FF4E9
:104E0000A47203F0A9FE41F61C40C0F2010003F0B9
:104E1000A3FE40F2E430C0F2010003F09DFE40F238
:104E20005000C2F20000029000688C30FEF786FC51
:104E300041F21C20C0F2010003F08EFE02980068CF
:104E40009430FEF77BFC40F29B20C0F2010003F09F
:104E500083FE029800689C30FEF770FC42F24630F8
:104E6000C0F2010003F078FE02980068A430FEF75B
:104E700065FC40F2A360C0F2010003F06DFE0298F1
:104E80000068AC30FEF75AFC41F64340C0F2010026
:104E900003F062FE02980068B430FEF74FFC4FF258
:104EA0009570C0F2000003F057FE02980068BC3015
:104EB000FEF744FC40F2E800C0F2010003F04CFEB3
:104EC00002980068C430FEF739FC00200490FFE728
:104ED00004990020B0EB113F07D1FFE704F0AEFFCB
:104EE000FFE7049801300490F2E741F2E340C0F29A
:104EF000010003F031FE4FF6D470C0F2000003F061
:104F00002BFE40F25000C2F2000001900068CC304D
:104F1000FEF714FC40F69F20C0F2010003F01CFED7
:104F200001980068D430FEF709FC40F66250C0F2E8
:104F3000010003F011FE01980068DC30FEF7FEFB73
:104F40004FF6E070C0F2000003F006FE0198006822
:104F5000E430FEF7F3FB42F2BA10C0F2010003F0B6
:104F6000FBFD01980068EC30FEF7E8FB40F6AB2053
:104F7000C0F2010003F0F0FD01980068F430FEF784
:104F8000DDFB41F6AB60C0F2010003F0E5FD0198E6
:104F90000068FC30FEF7D2FB42F29060C0F20100E4
:104FA00003F0DAFD0198006800F58270FEF7C6FB99
:104FB00000200390FFE703990020B0EB113F07D1D9
:104FC000FFE704F03BFFFFE7039801300390F2E7AF
:104FD00041F2E340C0F2010003F0BEFD40F2AB201D
:104FE000C0F2010003F0B8FD40F25000C2F2000030
:104FF0000090006800F58670FEF7A0FB41F2E540E6
:10500000C0F2010003F0A8FD0098006800F58A7066
:10501000FEF794FB40F2B720C0F2010003F09CFDC4
:105020000098006800F58E70FEF788FB41F22C2096
:10503000C0F2010003F090FD0098006800F5927046
:10504000FEF77CFB4FF62310C0F2000003F084FD56
:105050000098006800F59670FEF770FB40F2B360B0
:10506000C0F2010003F078FD0098006800F59A7026
:10507000FEF764FB40F2BF60C0F2010003F06CFD7C
:105080000098006800F59E70FEF758FB42F2385019
:10509000C0F2010003F060FD0098006800F5A27006
:1050A000FEF74CFB06988DF82700FFE79DF92700D7
:1050B0000AB080BD80B58AB008900791069205932A
:1050C00004A8FEF72DFE40F25000C2F20000006876
:1050D00050B9FFE740F69D30C0F2010003F03CFDFF
:1050E00006988DF8270002E107984FF63C61C0F260
:1050F000000103AA07F078FE8DF80B009DF90B0064
:105100000128C0F2CD80FFE70DF10700FEF7FEFD9C
:105110009DF8070040F001008DF807009DF807009A
:1051200040F002008DF807009DF8070040F00400F1
:105130008DF8070040F25000C2F2000002689DF8AE
:1051400007109DF808309DF809C09DF80AE082F824
:1051500023E082F822C082F8213082F820100399DF
:105160008DF81010090A8DF8111001689DF81000D3
:105170009DF811209DF812309DF813C081F827C0CA
:1051800081F8263081F8252081F824000020009045
:10519000FFE7009800097C2853D8FFE740F2500051
:1051A000C2F20000036893F8240093F8252093F8D6
:1051B000261093F8273041EA032140EA022040EA12
:1051C000014004909DF911209DF810009DF81210E7
:1051D00040EA02209DF9132041EA0221884201D1D0
:1051E000FFE72EE09DF913109DF8120040EA012020
:1051F0004BF65102C0F21E5245F62941CCF28F21E6
:1052000000FB012047F2A201C0F63D21884210D8E0
:10521000FFE74FF62230C0F2000003F09DFC04A827
:10522000FFF798FD41F2E340C0F2010003F094FC67
:10523000FFE70120FBF71AFCFFE700980130009020
:10524000A7E7039941F6AA00C0F2010003F084FC2D
:105250009DF8070000F0FE008DF807009DF807009C
:1052600000F0FD008DF807009DF8070000F0FB003E
:105270008DF8070040F25000C2F2000001689DF86E
:1052800007009DF808209DF809309DF80AC081F8B4
:1052900023C081F8223081F8212081F82000FFE727
:1052A00040F25000C2F20000036893F8240093F823
:1052B000252093F8261093F8273041EA032140EA8D
:1052C000022040EA0140049041F66920C0F201004A
:1052D00003F042FC04A8FFF73DFD41F2E340C0F2B9
:1052E000010003F039FC06988DF82700FFE79DF9CF
:1052F00027000AB080BDD4D480B588B0069005914F
:10530000049203930020029005984FF63C61C0F28E
:10531000000102AA07F068FD8DF807009DF907005B
:10532000012837DBFFE7029809280ED3FFE702992F
:1053300041F68A20C0F20100082203F00DFCFEF7BE
:1053400069FA04988DF81F007EE0029940F2CB6064
:10535000C0F2010003F000FC0298FEF7EBFCFEF740
:1053600039FE98B9FFE741F6C700C0F2010003F02B
:10537000F3FBFEF74FFA029940F2CB60C0F2010056
:1053800003F0EAFB0298FEF7D5FCFFE704988DF8DE
:105390001F0059E04FF64060C0F2000003F0DCFB54
:1053A0006846FEF7BDFC40F25000C2F20000036800
:1053B00093F8240093F8252093F8261093F82730CB
:1053C00041EA032140EA022040EA014000909DF9B1
:1053D00001209DF800009DF8021040EA02209DF98E
:1053E000032041EA022188420FD0FFE740F23C004F
:1053F000C2F20000016840F61370C0F2010003F031
:10540000ABFB04988DF81F001EE0FEF7E3FD60B9CA
:10541000FFE74FF63B30C0F2000003F09DFBFEF7C4
:10542000F9F904988DF81F000EE040F23C00C2F23A
:105430000000016841F65340C0F2010003F08CFB0C
:1054400004988DF81F00FFE79DF91F0008B080BD8C
:1054500080B586B0059004910392029341F6814095
:10546000C0F2010003F078FB00200190FFE70198F3
:105470003F282DD8FFE7019940F25000C2F200000A
:1054800002680B0E82F857310B0C82F856310B0A6A
:1054900082F8553182F85411036893F8580193F853
:1054A000592193F85A1193F85B3141EA032140EAFC
:1054B000022040EA01400090009941F23820C0F2F9
:1054C000010003F049FBFFE7019801300190CEE7AE
:1054D00041F66D00C0F2010003F03EFB9DF90C00A7
:1054E00006B080BD80B5A6B024902391229221936E
:1054F00020A800F049F900201F901E901D901C90DC
:1055000040F25000C2F20000006850B9FFE741F2DB
:105510003E20C0F2010003F01FFB22988DF8970097
:105520002EE123986A461CA951601DA9116041F221
:105530000311C0F201011FAA1EAB07F055FC8DF844
:105540006F009DF96F0004282FDBFFE71F988DF88F
:1055500080001E988DF881001D988DF882001C989F
:105560008DF883001F991E9A1D9B1C98EC46CCF861
:10557000000041F2F140C0F2010003F0EDFA40F208
:105580005000C2F2000001689DF880009DF8812063
:105590009DF882309DF883C081F843C081F8423085
:1055A00081F8412081F8400032E09DF96F00012828
:1055B0002DDBFFE71F988DF880001F988DF8810084
:1055C0001F988DF882001F988DF883001F9B6846F6
:1055D000036041F2F140C0F2010019461A4603F09F
:1055E000BBFA40F25000C2F2000001689DF8800052
:1055F0009DF881209DF882309DF883C081F843C0DA
:1056000081F8423081F8412081F84000FFE7FFE750
:1056100040F25000C2F20000036893F8400093F893
:10562000412093F8421093F8433041EA032140EAC5
:10563000022040EA014020909DF880001F909DF8D4
:1056400081001E909DF882001D909DF883001C90A3
:105650001F991E9A1D9B1C98EC46CCF8000041F245
:105660002250C0F2010003F077FA45F29610C4F21E
:105670009810199000200A9018901F9801301790E8
:105680001E98013016901D98013015901C9801301D
:1056900014901898029019980390179807F0DEF864
:1056A000024602980B46039906F0FCFE0A9A002374
:1056B000C3F6B0730B9307F0F1F81391129018989A
:1056C000049019980590169807F0C8F802460498B7
:1056D0000B46059906F0E6FE0A9A0B9B07F0DEF8EA
:1056E000119110901898069019980790159807F046
:1056F000B5F8024606980B46079906F0D3FE0A9ABB
:105700000B9B07F0CBF80F910E9018980890199802
:105710000990149807F0A2F8024608980B460999D8
:1057200006F0C0FE0A9A0B9B07F0B8F80D910C909A
:105730001799129A139B40F65670C0F2010003F0BD
:105740000BFA1699109A119B40F61900C0F201004D
:1057500003F002FA15990E9A0F9B4FF6B240C0F271
:10576000000003F0F9F914990C9A0D9B41F28E2078
:10577000C0F2010003F0F0F922988DF89700FFE7DE
:105780009DF9970026B080BD81B00090009800215F
:10579000C17081704170017001B0704780B584B0F4
:1057A000039002910192009340F66500C0F201005F
:1057B00003F0D2F941F2F040C2F2000000F01CF810
:1057C00042F23050C2F2000000F016F843F270507E
:1057D000C2F2000000F010F844F2E050C2F2000003
:1057E00000F046F841F66D00C0F2010003F0B4F994
:1057F0009DF9040004B080BD80B584B00390039887
:10580000019041F20C01415A41F22102825CD2071F
:10581000002A4FF04E0218BF592241F22403C35808
:1058200040F2F260C0F2010003F096F9002002900D
:10583000FFE70199029841F20C02895A88420FD27F
:10584000FFE7019802990844017B41F69F40C0F2AE
:10585000010003F081F9FFE7029801300290E8E7C8
:1058600041F66D00C0F2010003F076F904B080BD8E
:1058700080B586B005900598039040680168096B73
:1058800088470398806800F09BFA03984068016895
:10589000496A88470146039890F82120D207002AD8
:1058A0004FF04E0218BF5922436A40F25750C0F2DF
:1058B000010003F051F900200490FFE703980499D8
:1058C000029140680168496A884701460298884207
:1058D00014D2FFE703980499019140680268926826
:1058E00090470199024641F21470C0F2010003F0A2
:1058F00033F9FFE7049801300490DFE741F66D00CB
:10590000C0F2010003F028F906B080BD80B58EB06A
:1059100045F2786CC2F2000CDCF800C0CDF834C05F
:1059200009900891079206930020059008986A460E
:105930000DF11301116041F69241C0F2010105AA77
:105940000BAB07F051FA8DF812009DF912000428F4
:1059500072DBFFE700208DF811009DF91300592834
:1059600014D0FFE79DF9130079280FD0FFE79DF9C8
:10597000130054280AD0FFE79DF91300742805D0BE
:10598000FFE79DF91300312804D1FFE701208DF8CE
:105990001100FFE705999DF81100C00700284FF09E
:1059A0004E0218BF592241F67D50C0F2010003F0AB
:1059B000D3F805980390032830D80399DFE801F065
:1059C000020D18239DF8110000F0010141F278400A
:1059D000C2F2000000F092F828E09DF8110000F0FB
:1059E000010141F29040C2F2000000F087F81DE092
:1059F0009DF8110000F0010141F2A840C2F2000040
:105A000000F07CF812E09DF8110000F0010141F275
:105A1000C040C2F2000000F071F807E0059941F2C1
:105A20005250C0F2010003F097F8FFE7089809F020
:105A300077FE8DF82B004FE09DF912104FF6756040
:105A4000C0F2000003F088F841F27840C2F2000092
:105A500000F060F800284FF04E01029118BF592164
:105A600041F6EC00C0F2010003F076F841F29040FC
:105A7000C2F2000000F04EF80299002818BF592128
:105A80004FF6FF40C0F2000003F066F841F2A84074
:105A9000C2F2000000F03EF80299002818BF592118
:105AA0004FF68130C0F2000003F056F841F2C040DA
:105AB000C2F2000000F02EF80299002818BF592108
:105AC00041F6B760C0F2010003F046F8089809F00B
:105AD00027FE8DF82B00FFE79DF82B00019045F283
:105AE0007860C2F2000000680D99884204D1FFE797
:105AF000019840B20EB080BD07F01CF982B0019051
:105B00008DF8031001999DF8030000F00100087161
:105B100002B0704781B000900098007900F0010059
:105B200001B0704770B58AB009900891079206934A
