:1000000000000120910100007F0300006105000055
:100010008303000073050000850500000000000058
:100020000000000000000000000000008903000044
:100030008B030000000000008D0300008F03000010
:100040009103000093030000950300009703000054
:10005000990300009B0300009D0300009F03000024
:10006000A1030000A3030000A5030000A7030000F4
:10007000A9030000AB030000AD030000AF030000C4
:10008000B1030000B3030000B5030000B703000094
:10009000B9030000BB030000BD030000BF03000064
:1000A000C1030000C3030000C5030000C703000034
:1000B000C9030000CB030000CD030000CF03000004
:1000C000D1030000D3030000D5030000D7030000D4
:1000D000D9030000DB030000DD030000DF030000A4
:1000E000E1030000E3030000E5030000E703000074
:1000F000E9030000EB030000ED030000EF03000044
:10010000F1030000F3030000F5030000F703000013
:10011000F9030000FB030000FD030000FF030000E3
:1001200001040000030400000504000007040000AF
:10013000090400000B0400000D0400000F0400007F
:10014000110400001304000015040000170400004F
:10015000190400001B0400001D0400001F0400001F
:1001600021040000230400002504000027040000EF
:10017000290400002B0400002D0400002F040000BF
:100180003104000033040000000000000000000003
:100190004FF0000BDFF8BE020068DFF8B612096806
:1001A00001F0030100F01C00142801D14BF0020BF8
:1001B000002901D04BF0010BBBF1000F05D0A7487F
:1001C000A749DFF8722200F09FF8A64880470BF09D
:1001D000020ABAF1000F0CD0DFF86E02DFF86E12DF
:1001E00002680B680FB44FF000024FF0FF0302608B
:1001F0000B609D484FF000024FF00103022808D128
:10020000DFF83A120A60DFF83E120A60DFF83212B5
:100210000B60012808D1DFF82A120A60DFF82612E5
:100220000A60DFF81A120B609048002809D1904844
:100230009049914A00F030F890489149914A00F075
:100240002BF891489149924A00F026F8914892493A
:10025000DFF8E22100F058F8BBF1000F10D08F4812
:100260008F49DFF8D62100F04FF80BF0020ABAF1FF
:10027000000F05D00FBC02600B6000BFAFF3008021
:10028000DFF820020FF2030E00474FF000004FF09E
:100290000001DFF814F2FEE72DE9F841884225D08D
:1002A000B2EB010200D5FEE740EA010313F00303BD
:1002B00002D000F01DF819E04FF000039046121133
:1002C000F7D09A421CBFF0C8F0C103F10103F8D186
:1002D00008F00F08B8F1000F08D004780C7000F196
:1002E000010001F10101B8F10108F6D1BDE8F88182
:1002F00008B54FF0000303780B7000F1010001F125
:100300000101013AF7D108BD884237D000F0030659
:10031000002E14D04FF00405A5EB06044FF008079B
:1003200007FB06F8914669FA08F9002C07D080F817
:10033000009069FA07F900F10100013CF5E74FF080
:1003400000060F46091A88460911914614461546BB
:10035000B14206D018BFA0E8340206F10106B1424E
:10036000F8D108F00F08B8F1000F07D002704FEA7B
:10037000322200F10100B8F10108F4E77047FEE70E
:10038000FEE7FEE7FEE7FEE7FEE7FEE7FEE7FEE745
:10039000FEE7FEE7FEE7FEE7FEE7FEE7FEE7FEE735
:1003A000FEE7FEE7FEE7FEE7FEE7FEE7FEE7FEE725
:1003B000FEE7FEE7FEE7FEE7FEE7FEE7FEE7FEE715
:1003C000FEE7FEE7FEE7FEE7FEE7FEE7FEE7FEE705
:1003D000FEE7FEE7FEE7FEE7FEE7FEE7FEE7FEE7F5
:1003E000FEE7FEE7FEE7FEE7FEE7FEE7FEE7FEE7E5
:1003F000FEE7FEE7FEE7FEE7FEE7FEE7FEE7FEE7D5
:10040000FEE7FEE7FEE7FEE7FEE7FEE7FEE7FEE7C4
:10041000FEE7FEE7FEE7FEE7FEE7FEE7FEE7FEE7B4
:10042000FEE7FEE7FEE7FEE7FEE7FEE7FEE7FEE7A4
:10043000FEE7FEE7704700000000A2A2A2A2008033
:100440000340088003401080034030800340348024
:1004500003403880034018080240000000F00020EC
:10046000000001209D0500000000000000000000C9
:10047000000000000000000090010000B004000037
:10048000B004000098900200A0900200000000203C
:10049000A0080020A0080020606300206063002006
:1004A00000F0002059D900003DBF0000000000000E
:1004B00010B5054C237833B9044B13B10448AFF39E
:1004C00000800123237010BDA00800200000000060
:1004D0001490020008B5034B1BB103490348AFF366
:1004E000008008BD00000000A40800201490020055
:1004F000A3F5803A704700BF154B002B08BF114B86
:100500009D46FFF7F5FF00218B460F461148124A22
:10051000121A0DF043F80C4B002B00D098470B4BF0
:10052000002B00D098470020002104000D000B484C
:100530000CF044FB0DF010FA200029000BF0FEFC3B
:100540000CF042FB0000080000000000000000006A
:1005500000F00020A008002060630020A9D900005E
:100560001EF0040F0CBFEFF30880EFF3098008F0D2
:1005700009BE1EF0040F0CBFEFF30880EFF30980F3
:1005800008F04ABE1EF0040F0CBFEFF30880EFF333
:10059000098008F071BE0138FDD1704780B500AF09
:1005A00000F0FAF8044B5B69034A43F400735361AB
:1005B000FFF740FF00BF80BD00ED00E080B588B0D0
:1005C00000AF314BD3F8983003F08063FB61FB69D7
:1005D000002B4ED12C4BD3F8983003F480537B6121
:1005E0007B69002B15D1294B294A1A60294B284ACF
:1005F0001A60294B264A1A60284B294A1A60294B4F
:10060000234A1A60284B224A1A60284B204A1A6053
:1006100036E0274A3B1D92E8030083E803001A4BAB
:10062000D3F89C309B0903F007033B613A1D3B69FB
:1006300013441B78FB73FB7B022B12D0022B14DCC0
:10064000002B02D0012B07D00FE000F035F8B86185
:10065000B86900F04FF813E04FF4004000F04AF89A
:100660000EE0144800F046F80AE0124800F042F8A4
:1006700006E000F021F8B861B86900F03BF8FFE748
:1006800000BF2037BD4680BD00800340040000202D
:1006900080651406080000200C00002010000020D7
:1006A0006019850114000020180000201C000020A3
:1006B0006CD6010040420F0080B483B000AF0A4BFB
:1006C000D3F8503103F004033B603B68002B02D1A8
:1006D000064B7B6001E0064B7B607B6818460C375D
:1006E000BD4680BC704700BF0080034040787D015C
:1006F00080F0FA0280B483B000AF78600C4A7B6867
:1007000013600C4A7B6813600B4A7B6813600B4BC9
:100710000B4A1A600B4A7B6813600B4A7B681360B4
:100720000A4A7B68136000BF0C37BD4680BC704727
:1007300004000020080000200C0000201000002011
:100740006019850114000020180000201C00002002
:1007500080B483B000AF0E4BD3F84C313B603B68A4
:100760004FF60202934204D03B680A4A934203D0F8
:1007700005E001237B6005E002237B6002E00023AB
:100780007B6000BF7B6818460C37BD4680BC704755
:100790000080034002F8010080B582B000AFFFF78F
:1007A000D7FF78607B68012B02D100F007F800E0EA
:1007B00000BF00BF0837BD4680BD000080B400AF59
:1007C000094BD3F89830084A43F48073C2F8983044
:1007D000054BD3F89830044A23F08063C2F8983070
:1007E00000BFBD4680BC70470080034080B483B02A
:1007F00000AF78604FF0FF3318460C37BD4680BC21
:10080000704780B584B000AFF860B9607A600DF0D1
:100810009DF803460C221A604FF0FF33184610373C
:10082000BD4680BD80B483B000AF786000BFFDE7F7
:1008300080B500AF0DF08AF803460B221A604FF026
:10084000FF33184680BD80B483B000AF7860396054
:100850003B684FF400525A60002318460C37BD46DF
:1008600080BC704780B400AF01231846BD4680BCF1
:10087000704780B483B000AF7860012318460C370E
:10088000BD4680BC704780B582B000AF78603960EB
:100890000DF05CF8034616221A604FF0FF3318463D
:1008A0000837BD4680BD80B582B000AF7860396042
:1008B0000DF04CF803461F221A604FF0FF33184624
:1008C0000837BD4680BD80B485B000AFF860B96020
:1008D0007A60002318461437BD4680BC704780B448
:1008E00085B000AFF860B9607A604FF0FF3318460A
:1008F0001437BD4680BC704780B485B000AFF86047
:10090000B9607A60002318461437BD4680BC704732
:1009100080B485B000AFF860B9607A603B600023B6
:1009200018461437BD4680BC7047000080B586B0BD
:1009300000AF78601F4B1B68002B02D11D4B1E4A75
:100940001A601C4B1B687B61EFF308833B61194BFA
:100950001B683A699A420FD9164B1A687B68134490
:100960003A699A421AD21923144A01210020FFF74A
:10097000CFFF0120FFF756FF114BFB600D4B1A68AC
:100980007B681344FA689A4208D219230D4A012160
:100990000020FFF7BDFF0120FFF744FF054B1A6859
:1009A0007B681344034A13607B6918461837BD46B9
:1009B00080BD00BFC00800206063002074D6010025
:1009C00000F0002090D6010080B483B000AF7860C2
:1009D00039603B684FF400525A60002318460C37C8
:1009E000BD4680BC704780B483B000AF78604FF0E4
:1009F000FF3318460C37BD4680BC704780B582B0C7
:100A000000AF78600CF0A2FF034602221A604FF09C
:100A1000FF3318460837BD4680BD80B582B000AFB1
:100A200078600CF093FF03460A221A604FF0FF3300
:100A300018460837BD4680BD2DE9B04384B000AFED
:100A400078607B68002298469146104BD3E90023DA
:100A500002FB09F008FB03F10144A8FB02454B1916
:100A60001D460B4A4FF00003204629461CF042FC6D
:100A700002460B4613460133FB60F868FFF78BFD17
:100A800000BF1037BD46BDE8B08300BFB8000020EE
:100A900040420F0080B582B000AF78607B684FF4B1
:100AA0007A7202FB03F31846FFF7C6FF00BF083750
:100AB000BD4680BD80B582B000AF78607B684FF4E2
:100AC0007A7202FB03F31846FFF7E4FF00BF083712
:100AD000BD4680BD80B485B000AF786039604FF00E
:100AE000FF33FB603B68BB6012E07B681B781A46F3
:100AF000FB681B0E53400B4A52F82320FB681B0275
:100B00005340FB607B6801337B60BB68013BBB608B
:100B1000BB68002BE9D1FB68DB4318461437BD46A0
:100B200080BC7047A4D6010080B500AF304808F003
:100B3000A5FD304B1B6819462F4808F09FFD2F4B31
:100B40001B6819462E4808F099FD2E4B1B68194664
:100B50002D4808F093FD2D4B1B6819462C4808F0D2
:100B60008DFD2C4B1B6819462B4808F087FD2B4B3D
:100B70001B6819462A4808F081FD2A4B1B68194654
:100B8000294808F07BFD294B1B681946284808F0C6
:100B900075FD284B1B681946274808F06FFD274B49
:100BA0001B681946264808F069FD264B1B68194644
:100BB000254808F063FD254B1B681946244808F0BA
:100BC0005DFD244B1B681946234808F057FD234B55
:100BD0001B681946224808F051FD224B1B68194634
:100BE000214808F04BFD214808F048FD00BF80BDBA
:100BF000A4DA010000000000BCDA0100900100004E
:100C0000DCDA0100B0040000F8DA0100989002007C
:100C100010DB01009090020024DB0100989002009C
:100C20003CDB01000000002054DB0100A008002094
:100C30006CDB0100A008002080DB01006063002065
:100C400098DB010060630020A8DB010000F00020B9
:100C5000C4DB010000F00020D8DB0100000001200F
:100C6000F4DB01006063002008DC010018DC0100F7
:100C700080B584B000AFF860B9607A603B603B68D3
:100C800018687B68BA68F968984702463B681A603A
:100C90003B681B68002B02D14FF0FF3300E00023BC
:100CA00018461037BD4680BD80B586B000AFF860ED
:100CB000B9607A603B6014E0BB68102B28BF10233A
:100CC0007B613B687A687969F868FFF7D1FF034672
:100CD000002B02DA4FF0FF3307E0BA687B69D31AC2
:100CE000BB60BB68002BE7D1002318461837BD4610
:100CF00080BD000080B586B000AFF860B9607A6052
:100D00003B6000237B617B68002B0BD0BB68FA68DB
:100D100079683048FFF7C8FF0346002B02DA4FF02E
:100D2000FF3353E07A697B6813447B613B68002B97
:100D300012D03B6A002B0FD0BB68FA68396A38685A
:100D4000FFF796FF0346002B02DA4FF0FF333DE03A
:100D50007A693B6A13447B617B6A002B0BD0BB68CA
:100D6000FA68796A1C48FFF79FFF0346002B02DAF6
:100D70004FF0FF332AE07A697B6A13447B61FB6A98
:100D8000002B0BD0BB68FA68F96AB86AFFF770FFEE
:100D90000346002B02DA4FF0FF3317E07A69FB6A53
:100DA00013447B613B6B002B0BD0BB68FA68396B3B
:100DB0000848FFF779FF0346002B02DA4FF0FF33B4
:100DC00004E07A693B6B13447B617B6918461837F2
:100DD000BD4680BD1CDC010030DC010080B489B060
:100DE00000AFF860B9607A603B600023FB610023CC
:100DF000BB6100237B61FB689B681A46BB6893421A
:100E000005D2FB689B681A46BB68D31A7B61FB68F6
:100E10005B6803F00403002B02D07B69BB6101E037
:100E20007B69FB61FB685B6803F04003002B15D016
:100E3000FA69BB6913443B61FB685B6803F0040318
:100E4000002B0CBF01230023DBB21A463B6913447D
:100E50005B08FB613A69FB69D31ABB617B68002BB5
:100E600002D07B68FA691A603B68002B02D03B68AD
:100E7000BA691A6000BF2437BD4680BC70470000C5
:100E80002DE9B04FA0B000AFC7E912017A643B640E
:100E9000D7E91223C7E91C23D7E91C231446C3F35F
:100EA0001305C7E91845D7E91C234FF000004FF0A0
:100EB0000001180D00210346C3F30A03BB66D7E9FE
:100EC0001C234FF000004FF00001D80F0021034613
:100ED000FB66BA6E40F2FF739A4209D16FF000438D
:100EE000BB65FB6EFB65D7E91823C7E91423FFE058
:100EF000D7E9182313430DD1BB6E002B0AD1002371
:100F0000BB654FF000024FF00003C7E91423FB6EEE
:100F1000FB65EDE0FB6EFB65BB6E002B21D1012371
:100F2000BB664FF000024FF00003C7E91423002313
:100F3000BB650CE0D7E918239118B9615B41FB61EF
:100F4000D7E90623C7E91823BB6E013BBB66D7E987
:100F500018234FF0000A03F4002B5AEA0B03E9D0E0
:100F600006E075A3D3E90023C7E914230023BB657A
:100F700073A3D3E90023C7E91E23D7E918234FF051
:100F800000004FF00001190341EA12511003C7E9B4
:100F9000180131E0D7E91823002B0CDAD7E9140146
:100FA000D7E91E238418BC6341EB0303FB63D7E935
:100FB0000E34C7E91434D7E91823911839615B411D
:100FC0007B61D7E90423C7E91823D7E91E23511C05
:100FD000396343F100037B634FF000024FF00003DD
:100FE000D7E90C4521464A08204629460C4642EAE4
:100FF000C4724B08C7E91E23D7E918231343C9D18C
:10100000BB6EA3F2FF33BB6629E0D7E91423911826
:10101000B9605B41FB60D7E90223C7E91423D7E934
:10102000142341498A4241498B4115D3D7E91423FE
:10103000511DB96243F10003FB624FF00A024FF009
:101040000003D7E90A011CF055F902460B46C7E92F
:101050001423BB6D0133BB65BB6E013BBB66BB6E2E
:10106000002BD2DC41E0D7E9142331498A423149CF
:101070008B4120D2D7E9144522462B464FF0000081
:101080004FF00001990041EA9271900002460B4630
:1010900012EB040843EB050918EB08033B6049EB2E
:1010A00009037B60D7E9008942464B46C7E9142310
:1010B000BB6D013BBB65D7E91423511C396243F179
:1010C00000037B624FF000024FF00003D7E90845B0
:1010D00021464A08204629460C4642EAC4724B087B
:1010E000C7E91423BB6E0133BB66BB6E002BBADBB2
:1010F0007B6C002B02D0FA6D7B6C1A603B6C002B72
:1011000004D0D7E91423396CC1E90023D7F8A03003
:10111000002B03D0BA6DD7F8A0301A6000BF80371B
:10112000BD46BDE8B08F00BF0000C16FF28623004E
:1011300000008D49FD1A07000080C6A47E8D0300C3
:1011400000406352BFC6010080B586B000AFF860B2
:10115000C7E900233A6A7B6AD31A7B610EE0D7E9BC
:1011600000014FF00A024FF000031CF0C3F80246E2
:101170000B46C7E900237B69013B7B617B69002B40
:10118000EDDC7B6A7B6122E0D7E900014FF00A02C7
:101190004FF000031CF0AEF813463B613B69DBB235
:1011A0003033D9B27B69013BFA6813444AB21A70F2
:1011B000D7E900014FF00A024FF000031CF09AF843
:1011C00002460B46C7E900237B69013B7B617B69D3
:1011D000002BD9D17B6A18461837BD4680BD000068
:1011E00080B590B006AFF8607A603B600B46FB724A
:1011F00000237B6100233B613B6C6FF00042934214
:1012000015D1D7E90E23134311D097F90B30662B74
:1012100007D097F90B30652B03D097F90B30672B6C
:1012200002D12F4B3B6213E02E4B3B6210E097F94B
:101230000B30662B07D097F90B30652B03D097F94D
:101240000B30672B02D1284B3B6201E0274B3B62FE
:10125000386A0CF025FDF8613B6B002B02D0244B63
:101260007B6219E03B6B002B08D1FB685B6803F0E5
:101270000203002B02D01F4B7B620DE03B6B002B67
:1012800008D1FB685B6803F00103002B02D01A4B06
:101290007B6201E0194B7B62786A0CF001FDB8615A
:1012A000FA69BB69D11807F1100307F11402F86855
:1012B000FFF794FD7A693B690493FB6903933B6AEA
:1012C000029300230193BB6900937B6A39687868B5
:1012D000FFF710FD034618462837BD4680BD00BF06
:1012E00044DC010048DC01004CDC010050DC010062
:1012F00054DC010058DC01005CDC010060DC010012
:101300002DE9B0438AB000AFF860B9607A603B6005
:1013100048A3D3E90023C7E908230023FB61BB6886
:101320001B68BB617B6C002B21D0BA693E4B83FBF1
:101330000231D317C91A0B465B000B44D31ABB61A9
:10134000BB69002B02DABB690333BB613B68002B2E
:101350000DD0BB681B68002BB8BF5B427B617B690B
:10136000182B04DD7B69183BBA691344BB613B68E9
:10137000002B0AD1BB69002B02DABB690133BB61C8
:10138000BB69002BB8BF5B42BB61BA697B68134481
:101390000133FB61FB6923EAE373FB610BE0D7E9EF
:1013A00008014FF00A024FF000031BF0A3FF0246B2
:1013B0000B46C7E90823FB695A1EFA61002BEED1E0
:1013C000FB68D3E90001D7E90823841841EB030542
:1013D000FB68C3E90045FB68D3E9002313498A424F
:1013E00013498B4118D3FB68D3E9002312F1050898
:1013F00043F100094FF00A024FF00003404649460E
:101400001BF078FF02460B46F968C1E90023BB6870
:101410001B685A1CBB681A6000BF2837BD46BDE870
:10142000B08300BFAFF30080565555550000C16F23
:10143000F28623000080E03779C3110080B5AAB09E
:1014400006AFF8607A603B600B46FB720023C7F87A
:101450008C300023C7F884300023C7F88030002385
:10146000BB6100237B610023FB670023BB67002374
:101470007B6700233B670023FB660023BB660023DA
:10148000BB6500237B6500233B650023FB7497F954
:101490000B30672B03D097F90B30472B23D1012357
:1014A0007B65FB685B6823F02002FB685A60D7F815
:1014B000A83013F1040F05DBFB68DA68D7F8A83011
:1014C0009A4208DC97F90B30672B01D1652300E0C5
:1014D0004523FB7207E097F90B30672B01D1662398
:1014E00000E04623FB7297F90B30662B03D097F987
:1014F0000B30462B01D101233B65FB68DB68002BD9
:1015000002DAFB680622DA607B6D002B06D0FB68EE
:10151000DB68002B02D1FB680122DA60D7F8983033
:10152000002B03D0AB4BC7F888301EE0D7F89830BB
:10153000002B09D1FB685B6803F00203002B03D08A
:10154000A54BC7F8883010E0D7F89830002B09D1A8
:10155000FB685B6803F00103002B03D09F4BC7F8C7
:10156000883002E09E4BC7F88830D7F888000CF02E
:1015700097FB7863FB68DA68FB685B6803F020031D
:1015800007F1A80107F1A00001937B6D00933B6D6B
:10159000FFF7B6FED7E92823134324D01023C7F85A
:1015A0008C301AE0D7E928014FF00A024FF000030F
:1015B0001BF0A0FE134315D1D7F88C30013BC7F8C0
:1015C0008C30D7E928014FF00A024FF000031BF0DE
:1015D00091FE02460B46C7E92823D7F88C30002B32
:1015E000E0D100E000BF3B6D002B37D0FB685B68AB
:1015F00003F02003002B2AD00823FB6419E0D7F85E
:10160000A830022B08DDFB6C0133FB64D7F8A8304F
:10161000033BC7F8A8300CE0D7F8A830002B0FDA4E
:10162000FB6C013BFB64D7F8A8300333C7F8A83044
:1016300000BFFB6C002B04DDFB6C0F2BDFD900E03F
:1016400000BF684AFB6C134493F90030FB74D7F871
:10165000A83043EAE37301337B6623E001237B6612
:10166000FB685B6803F02003002B1BD0D7F8A82091
:101670005D4B83FB0231D317C91A0B465B000B4449
:10168000D31ABB64BB6C002B02DABB6C0333BB64A4
:101690007A6EBB6C13447B66D7F8A820BB6CD31A58
:1016A000C7F8A830FB68DA68D7F88C107B6ECB1AC5
:1016B00023EAE3739342A8BF13463B663B6D002BBE
:1016C0003CD07B6D002B39D0D7E92823C7E9102304
:1016D000D7F88C30FB630EE0FB6B013BFB63D7E973
:1016E00010014FF00A024FF000031BF003FE024608
:1016F0000B46C7E910237A6E3B6E1344FA6B9A428D
:10170000EADC0EE0D7E910014FF00A024FF00003C7
:101710001BF0F0FD02460B46C7E910233B6E013B70
:101720003B663B6E002B09DDD7E910014FF00A0242
:101730004FF000031BF0DEFD1343E3D07A6E7B6BAA
:101740001A443B6E1344C7F880303B6D002B38D0F1
:101750007B6E002B06D10123FB67D7F88030013365
:10176000C7F880307A6ED7F88C309A4204DD7A6EF2
:10177000D7F88C30D31ABB67D7F8A830B3F1FF3F46
:1017800015DAFB68DB68002B11DDD7F8A830DB43E6
:101790007B67FB68DB681A467B6F934228BF134662
:1017A0007B67D7F880207B6F1344C7F8803097F9A8
:1017B0001330002B34D0D7F880300133C7F8803095
:1017C0002EE0D7F8A830002BB8BF5B42FB650023A2
:1017D000BB6516E054DC010058DC01005CDC010054
:1017E00060DC01002400002056555555BB6D0133C7
:1017F000BB65FB6D9C4A82FB03129210DB17D31A68
:10180000FB65FB6D002BF1DCBB6D022B38BF0223A7
:10181000BB65BA6DD7F8803013440233C7F8803007
:101820003A6E7B6F1344FA68D268934217D27B6D8D
:10183000002B05D0FB685B6803F00803002B0ED07B
:10184000FB68DB681A467B6FD21A3B6ED31A3B6784
:10185000D7F880203B6F1344C7F880301AE03B6D07
:10186000002B17D03A6E7B6F1344FA68D26893420C
:1018700010D93A6E7B6F1344FA68D2689B1A3B63A7
:101880003B6BD7F88020D31AC7F880303A6E3B6B99
:10189000D31A3B667B6F002B0BD13B6F002B08D11B
:1018A0003B6E002B05DCFB685B6803F00803002B34
:1018B00006D00123BB66D7F880300133C7F88030EB
:1018C00007F1140307F11802D7F88010F868FFF742
:1018D00085FAFB685B6803F01003002B05D0BB6939
:1018E000FA6F1344FB670023BB617B6E002B0ED0A5
:1018F000D7E92823786EB96F411A07F11C000191CE
:10190000D7F88C100091FFF71FFC034600E000237E
:10191000C7F88430D7F88C20D7F88430D31AC7F8AA
:101920008C30BA6900230493D7F88430039307F10D
:101930001C030293FB6F01937B6B0093D7F88830F5
:1019400039687868FFF7D6F9F862FB6AB3F1FF3FB0
:1019500001D1FB6AF4E0FA6EFB6A1344FB660023D4
:1019600004930023039300230293BB6F019300238E
:1019700000930023002239687868FFF7BBF9F8620A
:10198000FB6AB3F1FF3F01D1FB6AD9E0FA6EFB6A53
:101990001344FB663B6E002B0CD0D7E9282307F1DC
:1019A0001C00396E0191D7F88C100091FFF7CCFB29
:1019B000034600E00023C7F88430BB6E002B14BF41
:1019C00001230023DBB21A4600230493D7F88430A6
:1019D000039307F11C0302937B6F01930092234B47
:1019E000002239687868FFF785F9F862FB6AB3F17D
:1019F000FF3F01D1FB6AA3E0FA6EFB6A1344FB666A
:101A00000023049300230393002302933B6F01936D
:101A1000002300930023002239687868FFF76AF9F1
:101A2000F862FB6AB3F1FF3F01D1FB6A88E0FA6E0E
:101A3000FB6A1344FB66BB6D002B5DD0D7F8A83062
:101A4000002BB8BF5B42BB63FB7A3B74D7F8A8306E
:101A5000002B01DA2D2300E02B237B74BB6DFB658B
:101A60000023C7F8843025E06766666664DC010001
:101A7000B96B354BA3FB0123DA0813469B001344D3
:101A80005B00CA1AD3B23033DAB2FB6D013B52B2FB
:101A900090333B4403F8742CFB6D013BFB65D7F896
:101AA00084300133C7F88430BB6B274AA2FB032381
:101AB000DB08BB63FB6D002BDADC07F110020023AF
:101AC0000493D7F88430039307F11C030293002397
:101AD0000193022300931346002239687868FFF7C8
:101AE00009F9F862FB6AB3F1FF3F01D1FB6A27E015
:101AF000FA6EFB6A1344FB6697F91330002B14BF90
:101B000001230023DBB21A467B690493039207F199
:101B10001303029300230193002300930023002268
:101B200039687868FFF7E6F8F862FB6AB3F1FF3FBF
:101B300001D1FB6A04E0FA6EFB6A1344FB66FB6E9C
:101B400018469037BD4680BDCDCCCCCC90B593B077
:101B500006AFF860B9603B601346FB71FB6893F910
:101B600014304C2B02D14FF0FF334DE0BB681B68A3
:101B7000073323F0070303F10801BA681160D3E9C2
:101B80000023C7E90A2307F1180107F1240207F12E
:101B9000140300930B46D7E90A01FFF771F97B693B
:101BA0006FF00042934203D1D7E90623134308D1D3
:101BB0007B696FF00042934215D1D7E906231343A6
:101BC00011D1796AD7E90623786997F9074004901B
:101BD000CDE9022300913B6C3A682146F868FFF793
:101BE000FFFA034610E0796AD7E90623786997F986
:101BF00007400490CDE9022300913B6C3A682146EE
:101C0000F868FFF71BFC034618463437BD4690BD05
:101C10002DE9B04FAAB006AFF865B9653B6513462C
:101C200087F85730FB6D1A6AFB6D5B6A1344C7F87F
:101C30008430D7F884300733DB08C7F880304FF0A2
:101C400000024FF00003C7E918234FF000024FF0E5
:101C50000003C7E91823D7F88030002B02D14FF0DA
:101C6000FF33EEE0D7F88030042B08D8BB6D19683D
:101C70000A1DBB6D1A600B68C7F88C3007E0BB6D9E
:101C800019680A1DBB6D1A600B68C7F88C30D7F84D
:101C90008C30002B0AD10023FB674FF000024FF07D
:101CA0000003C7E91C230023FB66BAE0D7F88430A1
:101CB0005A1E012303FA02F2D7F88C301340002B8E
:101CC00014BF01230023DBB2FB67FB6F002B04D0A2
:101CD000D7F88C305B42C7F88C30D7F884305A1E66
:101CE000012393405A1ED7F88C301340C7F88C302C
:101CF000D7F88C30DA17BB64FA64D7E91223C7E946
:101D00001C234FF0FF33C7F8883009E0D7F88C3038
:101D10005B10C7F88C30D7F888300133C7F88830AB
:101D2000D7F88C30002BF1D1D7F88820FB6D5B6A97
:101D3000D31AFB6609E0D7E91C23911839605B418F
:101D40007B60D7E90023C7E91C23D7E91C23B3F53F
:101D5000801FF0D3D7E9182300244FEA13554FEA28
:101D60000555D7E91C239246C3F3130B44EA0A0333
:101D70003B6445EA0B037B64D7E91034C7E91834A8
:101D8000D7E91823BA636FF31E53FB63FB6EDA17B0
:101D90003B637A633B6BC3F30A084FF0000940F2E0
:101DA000FF3318EB0303BB6249F10003FB624FF002
:101DB00000024FF00003B96A0B050022D7E90E01BB
:101DC000044614433C6219437962D7E90834C7E9F1
:101DD0001834D7E91823BA6123F00043FB61FB6F85
:101DE00000223B617A614FF000024FF00003396935
:101DF000CB070022D7E9060104461443BC6019430F
:101E0000F960D7E90234C7E91834D7E9180107F1B6
:101E1000700407F17C0207F16C0300932346FFF77F
:101E20002FF8F96FD7E91C23F86E0490CDE902234F
:101E30000091D7F8B0303A6D6621F86DFFF7FEFAE1
:101E4000034618469037BD46BDE8B08FB0B485B0A4
:101E500000AF786039603B681B68191D3A681160F3
:101E60001B68FB60FB68002B48D07B6893F914303B
:101E7000682B05D17B681B681AB2FB681A803DE0AD
:101E80007B6893F91430692B05D17B681B685AB2C3
:101E9000FB681A7032E07B6893F914306C2B05D123
:101EA0007B681B681A46FB681A6027E07B6893F919
:101EB00014306A2B08D17B681B6800221C4615462B
:101EC000FB68C3E9004519E07B6893F914307A2B6D
:101ED00004D17B681A68FB681A600FE07B6893F98D
:101EE0001430742B05D17B681B681A46FB681A6096
:101EF00004E07B681B681A46FB681A6000231846DA
:101F00001437BD46B0BC704780B58EB006AFF860E0
:101F1000B9603B601346FB710023FB6197F9073002
:101F2000632B08D1BB681B68191DBA6811601B6858
:101F30005BB2FB7403E0FB6893F91530FB74FB683C
:101F4000DB68002B02DAFB680122DA60FB68DB68E1
:101F5000012BB8BF0123BB611FE0002304930123C1
:101F6000039307F1130302930023019300230093CB
:101F700000230022B96A3868FEF7BCFE78617B69ED
:101F8000B3F1FF3F02D14FF0FF330AE0FA697B69FA
:101F90001344FB61BB69013BBB61BB69002BDCD116
:101FA000FB6918462037BD4680BD000080B58EB065
:101FB00006AFF860B9603B601346FB710023FB611C
:101FC00000237B6100233B61BB681B68191DBA6855
:101FD00011601B68BB61BB69002B01D1174BBB6152
:101FE000B8690BF05DFEF861FB68DB68002B07DB6E
:101FF000FB68DB681A46FB69934228BF1346FB6106
:1020000007F1100307F11402F969F868FEF7E6FE1C
:102010007A693B690493FB690393BB6902930023CC
:102020000193002300930023B96A3868FEF762FE2B
:10203000034618462037BD4680BD00BF68DC01005E
:102040002DE9F043CBB006AF07F58876A6F582768A
:10205000306007F58870A0F584700160114607F5BF
:102060008872A2F58872136007F58873A3F20913CA
:102070000A461A700023C7F80C310023BB61002305
:102080007B610023C7F804310023C7F80031002327
:10209000C7F8FC300023C7F8F4300023C7F8F0304D
:1020A00007F58873A3F582731B685B6803F08003F0
:1020B000002B00F0EE8007F58873A3F582731B6890
:1020C00093F914306C2B10D107F58873A3F5847342
:1020D0001B681B68191D07F58872A2F584721268C7
:1020E00011601B68C7F8EC3063E007F58873A3F54F
:1020F00082731B6893F914306A2B16D107F5887325
:10210000A3F584731B681B68073323F0070303F1EF
:10211000080107F58872A2F5847212681160D3E98C
:1021200000231346C7F8EC3043E007F58873A3F5A6
:1021300082731B6893F914307A2B10D107F58873DA
:10214000A3F584731B681B68191D07F58872A2F537
:102150008472126811601B68C7F8EC3029E007F53B
:102160008873A3F582731B6893F91430742B10D114
:1021700007F58873A3F584731B681B68191D07F5A1
:102180008872A2F58472126811601B68C7F8EC307F
:102190000FE007F58873A3F584731B681B68191D8E
:1021A00007F58872A2F58472126811601B68C7F87F
:1021B000EC3007F58873A3F582731B6893F914302C
:1021C000682B04D1D7F8EC301BB2C7F8EC3007F518
:1021D0008873A3F582731B6893F91430692B04D1BB
:1021E000D7F8EC305BB2C7F8EC30D7F8EC30002B06
:1021F000B8BF5B42C7F8F83007F58873A3F5807362
:1022000000221A70D7F8EC30002B06DA07F5887335
:10221000A3F580732D221A7020E007F58873A3F5CB
:1022200082731B685B6803F00203002B06D007F57E
:102230008873A3F580732B221A700FE007F588735B
:10224000A3F582731B685B6803F00103002B05D0C4
:1022500007F58873A3F5807320221A7007F5887339
:10226000A3F5807393F90030002B00F0B2800123B6
:10227000C7F8F43007F58873A3F582731B685B68B1
:1022800043F0080207F58873A3F582731B685A6050
:102290009FE007F58873A3F582731B6893F91430E8
:1022A0006C2B10D107F58873A3F584731B681B682A
:1022B000191D07F58872A2F58472126811601B68F7
:1022C000C7F8F83063E007F58873A3F582731B68DD
:1022D00093F914306A2B16D107F58873A3F584732C
:1022E0001B681B68073323F0070303F1080107F598
:1022F0008872A2F5847212681160D3E90023134634
:10230000C7F8F83043E007F58873A3F582731B68BC
:1023100093F914307A2B10D107F58873A3F58473E1
:102320001B681B68191D07F58872A2F58472126874
:1023300011601B68C7F8F83029E007F58873A3F52A
:1023400082731B6893F91430742B10D107F58873CE
:10235000A3F584731B681B68191D07F58872A2F525
:102360008472126811601B68C7F8F8300FE007F537
:102370008873A3F584731B681B68191D07F58872A1
:10238000A2F58472126811601B68C7F8F83007F56F
:102390008873A3F582731B6893F91430682B04D1FA
:1023A000D7F8F8309BB2C7F8F83007F58873A3F573
:1023B00082731B6893F91430692B04D1D7F8F83075
:1023C000DBB2C7F8F83007F58873A3F580733022C5
:1023D0001A7007F58873A3F2091393F900306F2B75
:1023E00006D1D7F8F830002B02D00123C7F8F4301B
:1023F00007F58873A3F2091393F90030782B0FD0F7
:1024000007F58873A3F2091393F90030582B07D00E
:1024100007F58873A3F2091393F90030622B32D1C8
:1024200007F58873A3F582731B685B6803F02003CC
:10243000002B03D1D7F8F830002B0CD007F58873A8
:10244000A3F5807307F58872A2F2091212785A7008
:102450000223C7F8F43007F58873A3F582731B686D
:102460005B6803F02003002B0DD007F58873A3F5FC
:10247000807393F9013043F020035AB207F5887353
:10248000A3F580735A7007F58873A3F582731B68F0
:102490005B6803F00803002B0ED0D7F80C21D7F8A7
:1024A000F4301344C7F80C3107F11003C7F8FC30BF
:1024B000D7F8F430C7F80031D7F834310A2B50D1AF
:1024C0000023C7F8083147E0D7F8F83000229846D3
:1024D0009146AF4B03FB09F2002303FB08F31344BF
:1024E000AB4AA8FB02452B441D46C7E92C45C7E96A
:1024F0002C45D7E92C014FF000024FF00003CA0829
:1025000000231346C7F8AC30D7F8AC309B00D7F89F
:10251000AC201344C7F8A830D7F8A8305B00D7F830
:10252000F820D31AC7F8A430D7F808310133C7F818
:102530000831D7F8A430DBB23033DAB2D7F808313B
:10254000C3F1820352B203F588733B4403F8F42CC1
:10255000D7F8AC30C7F8F830D7F8F830002BB3D143
:10256000ACE0D7F83431022B07D0D7F83431082B40
:1025700003D0D7F83431102B5BD1D7F83431013B7D
:10258000C7F8C030D7F83431102B07D0D7F8343122
:10259000082B01D1032302E0012300E00423C7F844
:1025A000BC300023C7F808313EE0D7F8F820D7F850
:1025B000C0301340774AD35C87F8EB3007F5887357
:1025C000A3F2091393F90030782B0FD007F5887325
:1025D000A3F2091393F90030692B07D007F588732C
:1025E000A3F2091393F90030752B05D197F8EB305E
:1025F00043F0200387F8EB30D7F808310133C7F8F0
:102600000831D7F80831C3F1820303F588733B44DE
:1026100097F8EB2003F8F42CD7F8F820D7F8BC3063
:1026200022FA03F3C7F8F830D7F8F830002BBCD102
:1026300044E00023C7F808313CE0D7F8F830D7F879
:102640003421B3FBF2F2D7F8341101FB02F29B1AEA
:10265000504AD35C87F8EA3007F58873A3F2091370
:1026600093F90030692B07D007F58873A3F209139B
:1026700093F90030752B05D197F8EA3043F0200329
:1026800087F8EA30D7F808310133C7F80831D7F8AE
:102690000831C3F1820303F588733B4497F8EA20BD
:1026A00003F8F42CD7F8F820D7F83431B2FBF3F361
:1026B000C7F8F830D7F8F830002BBED107F588738B
:1026C000A3F582731B68DB69002B00F01C8107F502
:1026D0008873A3F582731B689B69C7F8E43007F51C
:1026E0008873A3F582731B68DB69C7F8E0300023A9
:1026F000C7F8D830D7F80831C7F8D030D7F8083144
:10270000C3F18203C7F8CC30D7F8E030013BD7F8EB
:10271000E4201344C7F8E430E6E0D7F8E030002BBB
:1027200000F08580D7F8E4301B7887F8DF3097F920
:10273000DF302D2B00F0DE8097F9DF302A2B1FD100
:1027400007F58873A3F584731B681B68191D07F5CB
:102750008872A2F58472126811601B68C7F8D830BD
:10276000D7F8D830002BC0F2C780D7F8E430013B4F
:10277000C7F8E430D7F8E030013BC7F8E03043E079
:102780000023C7F8D8300123C7F8D43023E000BFB6
:10279000CDCCCCCC78DC010097F9DF30303B1A4649
:1027A000D7F8D43003FB02F2D7F8D8301344C7F877
:1027B000D830D7F8D42013469B0013445B00C7F8E9
:1027C000D430D7F8E430013BC7F8E430D7F8E03034
:1027D000013BC7F8E030D7F8E030002B14D0D7F831
:1027E000E4301B7887F8DF3097F9DF30002B0BD00F
:1027F00097F9DF300133874A134493F90030DBB295
:1028000003F00403002BC7D1D7F8E030002B75D0BC
:10281000D7F8E4301B7887F8DF30D7F8E430013B95
:10282000C7F8E430D7F8E030013BC7F8E030D7F81C
:10283000D830002B54D0D7F8D830D7F8D0209A42CF
:102840005ED9D7F8CC30C7F8C830D7F8D830D7F829
:10285000D020D31AC7F8C43018E0D7F8C830013BED
:1028600007F11C01D7F8C8200A4492F9002003F5AB
:1028700088733B4403F8F42CD7F8C430013BC7F805
:10288000C430D7F8C8300133C7F8C830D7F8C430DF
:10289000002BE2D1D7F8CC30013BC7F8CC30D7F8C9
:1028A000CC20D7F8D0301A44D7F8D830D31A03F553
:1028B00088733B4497F8DF2003F8F42CD7F80831ED
:1028C0000133C7F80831D7F8F0300133C7F8F030DA
:1028D000D7F8D830D7F8D020D31AC7F8D03003E0D3
:1028E000D7F8E030002B0DD0D7F8D030002B7FF494
:1028F00014AF08E000BF06E000BF04E000BF02E044
:1029000000BF00E000BFD7F80831C7F8A03007F5D6
:102910008873A3F582731B68DB68002B07DA07F561
:102920008873A3F582731B680122DA600DE007F556
:102930008873A3F582731B685B6823F0100207F5A8
:102940008873A3F582731B685A6007F58873A3F533
:1029500082731B68DB681A46D7F8F0301344D7F847
:102960000821934238BF1346C7F80831D7F80C2125
:10297000D7F808311344C7F80C3107F1140307F1F5
:10298000180207F58871A1F58270D7F80C1100685C
:10299000FEF724FAD7F80821D7F8A030D31AC7F8E1
:1029A000043107F58873A3F582731B685B6803F035
:1029B0001003002B07D0BB69D7F804211344C7F8D4
:1029C00004310023BB61B969D7F8A030C3F1820399
:1029D00007F11C0213447A6907F58870A0F5887026
:1029E0000492D7F8A02003920293D7F80431019300
:1029F000D7F800310093D7F8FC300A46D7F83011E9
:102A00000068FEF777F90346184607F58A77BD4652
:102A1000BDE8F083781B020080B58CB006AFF8608B
:102A2000B9603B601346FB7100237B6197F9073067
:102A30006E2B05D1B968F868FFF708FA0346DDE0A8
:102A400097F90730252B11D1002304930123039319
:102A5000FB1D029300230193002300930023002217
:102A6000396A3868FEF746F90346C7E097F9073038
:102A7000632B03D097F90730432B0AD197F907202E
:102A80003B6A00933B68B968F868FFF73DFA034674
:102A9000B4E097F90730732B0AD197F907203B6A06
:102AA00000933B68B968F868FFF780FA0346A5E031
:102AB00097F90730652B13D097F90730452B0FD0C6
:102AC00097F90730662B0BD097F90730462B07D0C4
:102AD00097F90730672B03D097F90730472B0AD1B6
:102AE00097F907203B6A00933B68B968F868FFF7DD
:102AF0002DF8034682E097F907306B2B0AD197F93E
:102B000007203B6A00933B68B968F868FFF780F8D4
:102B1000034673E097F90730702B0DD15823FB71F2
:102B2000FB6800221A75FB6828225A60FB6808229D
:102B30009A60FB680822DA6097F90730642B07D0A7
:102B400097F90730692B03D097F90730492B1CD12F
:102B5000FB685B6843F08002FB685A600A237B6174
:102B6000FB685B6823F00802FB685A6097F907303E
:102B7000692B03D097F90730492B06D1FB681B69F5
:102B8000002B02D0FB681B697B6197F90730782B1B
:102B900003D097F90730582B01D110237B6197F9A7
:102BA0000730752B03D097F90730552B08D1FB68F8
:102BB0001B69002B02D0FB681B6900E00A237B61C4
:102BC00097F907306F2B01D108237B6197F9073004
:102BD000622B01D102237B617B69012B0CD997F910
:102BE00007207B6901933B6A00933B68B968F868EA
:102BF000FFF726FA034601E04FF0FF331846183777
:102C0000BD4680BD80B59CB002AFF860B9607A6007
:102C10003B607B683B663B683B617B68002B00F058
:102C20008C8200237B617DE23B6EFB6502E0FB6DE5
:102C30000133FB65FB6D93F90030002B04D0FB6D75
:102C400093F90030252BF2D1FA6D3B6ED31AFB6459
:102C5000FB6C002B0ED007F10803FA68F96C386E94
:102C6000FEF706F80346002BC0F269827A69FB6C16
:102C700013447B61FB6D3B663B6E93F90030002B88
:102C800000F050823B6E01333B660023BB610BE0DA
:102C9000BA69BB6CA6495B1AA64951F823301343A5
:102CA000BB613B6E01333B663B6E1B7887F8673038
:102CB00097F96730002B09D097F9673019469C487F
:102CC0000AF0BCFCB864BB6C002BE1D13B6E93F9FD
:102CD00000302A2B12D13B691A1D3A611B68FB6137
:102CE000FB69002B06DAFB695B42FB61BB6943F0C1
:102CF0000403BB613B6E01333B6628E00023FB61AC
:102D00000DE0FA6913469B0013445B001A4697F9DD
:102D100067301344303BFB613B6E01333B663B6ED7
:102D20001B7887F8673097F96730002B0FD097F939
:102D300067300133804A134493F90030DBB203F06B
:102D40000403002B03D0FB69B3F5FA7FD9DBFB69E1
:102D5000B3F5FA7F00F3F5813B6E93F900302E2B2B
:102D600003D04FF0FF333B6243E03B6E01333B66E1
:102D70003B6E93F900302A2B0DD13B691A1D3A6145
:102D80001B683B623B6AB3F5FA7F00F3DC813B6E64
:102D900001333B662DE000233B620DE03A6A1346A7
:102DA0009B0013445B001A4697F967301344303B8D
:102DB0003B623B6E01333B663B6E1B7887F86730A6
:102DC00097F96730002B0FD097F9673001335A4AD3
:102DD000134493F90030DBB203F00403002B03D05B
:102DE0003B6AB3F5FA7FD9DB3B6AB3F5FA7F00F3B0
:102DF000AC813B6E93F900303A2B02D000237B620A
:102E000048E03B6E01333B663B6E93F900302A2B62
:102E100014D13B691A1D3A611B687B647B6C002BE3
:102E200002DA00237B6205E07B6C242B00F38F81A8
:102E30007B6C7B623B6E01333B662BE000237B6245
:102E40000DE07A6A13469B0013445B001A4697F91B
:102E500067301344303B7B623B6E01333B663B6E15
:102E60001B7887F8673097F96730002B0ED097F9F9
:102E700067300133304A134493F90030DBB203F07A
:102E80000403002B02D07B6A232BDADD7B6A242B20
:102E900000F35F8110237B631023BB6300233B633C
:102EA0000023FB623B6E1B7887F8673097F9673029
:102EB0005B2B24D10023BB653B6E01333B663B6E2D
:102EC000FB6205E03B6E01333B66BB6D0133BB65C6
:102ED0003B6E1B7887F8673097F96730002B03D07B
:102EE00097F967305D2BEDD197F96730002B00F033
:102EF00032813B6E01333B66BB6D3B639CE097F9CF
:102F000067307B2B40F098803B6E01333B663B6E15
:102F100093F900302A2B08D13B691A1D3A611B68CE
:102F20007B653B6E01333B662DE000237B6513E040
:102F3000A0DC0100A8DC0100781B02007A6D1346BA
:102F40009B0013445B001A4697F967301344303BEB
:102F50007B653B6E01333B663B6E1B7887F86730C1
:102F600097F96730002B0ED097F967300133844A08
:102F7000134493F90030DBB203F00403002B02D0BA
:102F80007B6D1F2BDAD97B6D202B00F2E6803B6E28
:102F900093F900302E2B40F0E2803B6E01333B660C
:102FA0003B6E93F900302A2B08D13B691A1D3A6118
:102FB0001B683B653B6E01333B6627E000233B65A6
:102FC0000DE03A6D13469B0013445B001A4697F9D7
:102FD00067301344303B3B653B6E01333B663B6ED1
:102FE0001B7887F8673097F96730002B0ED097F978
:102FF00067300133624A134493F90030DBB203F0C7
:103000000403002B02D03B6D1F2BDAD997F96730F0
:10301000002B00F0A6803B6E01333B663B6D202BFE
:1030200000F2A1807A6D3B6D13441F2B00F29D804E
:103030007B6D7B633B6DBB633B6E1B7887F86730B2
:1030400097F96730002B0ED097F9673019464D4835
:103050000AF0F4FA0346002B05D03B6E01333B66C1
:1030600097F9673000E0002387F8283097F9283077
:10307000002B17D03B6E1B7887F8673097F96730C5
:10308000002B0FD097F9283097F967209A4209D181
:1030900097F9283043F001035BB287F828303B6E84
:1030A00001333B663B6E1B7887F8673097F96730D2
:1030B000002B05D13B691A1D3A611B683B6631E064
:1030C00097F8673087F8433097F94330432B0FD197
:1030D0003B6E01333B663B6E1B7887F8673097F990
:1030E0006730002B43D097F8673087F8293002E02B
:1030F000002387F8293097F9432007F1100107F1E1
:10310000140007F108030093FB68FFF785FCF863E0
:10311000FB6B002B2DDB7A69FB6B13447B613B6EF1
:1031200001333B663B6E1B7887F8673097F9673051
:10313000002B7FF479AD7B691EE000BF1AE000BF71
:1031400018E000BF16E000BF14E000BF12E000BFAF
:1031500010E000BF0EE000BF0CE000BF0AE000BFBF
:1031600008E000BF06E000BF04E000BF02E000BFCF
:1031700000E000BF4FF0FF3318466837BD4680BD02
:10318000781B020070DC010080B483B000AF78606F
:103190007B6800221A607B6818460C37BD4680BCED
:1031A000704780B483B000AF78607B6800221A60FB
:1031B0007B6818460C37BD4680BC704780B483B02E
:1031C00000AF786039603B681A687B681A607B687A
:1031D00018460C37BD4680BC704780B483B000AF42
:1031E00078607B6800221A607B6818460C37BD4601
:1031F00080BC704780B483B000AF786039603B68B2
:103200001A687B681A607B6818460C37BD4680BC1C
:103210007047000080B582B000AF78607B681B68A3
:103220001946304806F02AFA7B681B78C3F300037E
:10323000DBB219462C4806F021FA7B681B78C3F3F1
:103240004003DBB21946294806F018FA7B681B7860
:10325000C3F38003DBB21946254806F00FFA7B68FA
:103260001B78C3F3C003DBB21946224806F006FA06
:103270007B681B78C3F30013DBB219461E4806F0C7
:10328000FDF97B681B78C3F34013DBB219461B487A
:1032900006F0F4F97B681B78C3F38013DBB21946A0
:1032A000174806F0EBF97B681B78C3F3C013DBB259
:1032B0001946144806F0E2F97B685B78C3F3030310
:1032C000DBB21946104806F0D9F97B685B78C3F386
:1032D0000313DBB219460C4806F0D0F900BF0837DB
:1032E000BD4680BDC8DC0100F4DC01000CDD01003E
:1032F00024DD01003CDD010054DD01006CDD010036
:1033000084DD01009CDD0100B4DD010080B483B0E8
:1033100000AF786039603B68D3E900017B68024602
:103320001A600A465A607B6818460C37BD4680BC56
:10333000704780B584B000AF78607B68B3F9003027
:10334000BB817B68B3F90430FB8107F10E0207F102
:103350000C031146184600F0EBFF0346B3F90030AA
:103360009AB27B68B3F9003019467B68B3F9043030
:10337000CB1A002BB8BF5B42D90F0B445B109BB23A
:1033800013449BB21BB218461037BD4680BD0000E7
:1033900080B582B000AF786079680A684B680E48E3
:1033A00006F06CF97B68B3F9003019460B4806F05B
:1033B00065F97B68B3F904301946094806F05EF9EF
:1033C0007868FFF7B6FF03461946064806F056F937
:1033D00000BF0837BD4680BDCCDD0100E8DD01003F
:1033E000F8DD010008DE010080B58AB000AF0023DF
:1033F000FB84B54B1968D1F88C20D1F89030C7E91F
:10340000042307F1100207F1080311461846FFF7DD
:103410007DFFAD4B1968D1F8AC20D1F8B030C7E9C9
:10342000062307F118023B4611461846FFF76EFFC8
:10343000A64806F023F907F108031846FFF7A8FF8E
:10344000A34806F01BF93B461846FFF7A1FFB7F962
:103450000830002B05D0B7F90C30002B01D0012328
:1034600000E0002387F82530B7F90030002B05D0A5
:10347000B7F90430002B01D0012300E0002387F8C6
:103480002430B7F90820B7F90C309A4202D1002352
:1034900087F82530B7F90020B7F904309A4202D1F5
:1034A000002387F82430B7F908308A4A82FB0312D8
:1034B0001A445112DA178A1A40F2DA2101FB02F299
:1034C0009A1A13B23B81B7F90C30824A82FB03127D
:1034D0001A445112DA178A1A40F2DA2101FB02F279
:1034E0009A1A13B2BB81B7F900307A4A82FB0312F1
:1034F0001A445112DA178A1A40F2DA2101FB02F259
:103500009A1A13B23B80B7F90430724A82FB031255
:103510001A445112DA178A1A40F2DA2101FB02F238
:103520009A1A13B2BB80B7F90830002B07DAB7F943
:1035300008309BB203F2DA239BB21BB23B81B7F98E
:103540000C30002B07DAB7F90C309BB203F2DA2308
:103550009BB21BB2BB81B7F90030002B07DAB7F979
:1035600000309BB203F2DA239BB21BB23B80B7F967
:103570000430002B07DAB7F904309BB203F2DA23E8
:103580009BB21BB2BB80B7F908301A46B7F90C30B2
:10359000D31A002BB8BF5B42B3F5B77F16DBB7F980
:1035A0000820B7F90C309A4208DAB7F908309BB214
:1035B00003F2DA239BB21BB23B8107E0B7F90C3070
:1035C0009BB203F2DA239BB21BB2BB81B7F9003086
:1035D0001A46B7F90430D31A002BB8BF5B42B3F5D3
:1035E000B77F16DBB7F90020B7F904309A4208DA42
:1035F000B7F900309BB203F2DA239BB21BB23B80D7
:1036000007E0B7F904309BB203F2DA239BB21BB296
:10361000BB80B7F908301A46B7F90C30D31A002B23
:10362000B8BF5B42B3F5B77F02DB002387F82530D4
:10363000B7F900301A46B7F90430D31A002BB8BFD7
:103640005B42B3F5B77F02DB002387F824302248C2
:1036500006F014F807F108031846FFF799FE1C4816
:1036600006F00CF83B461846FFF792FE97F8253017
:10367000002B06D007F108031846FFF75AFE034651
:10368000FB8497F82430002B09D03B461846FFF7FF
:1036900050FE0346FA8C9BB213449BB2FB8497F80E
:1036A0002530002B09D097F82430002B05D0B7F92E
:1036B0002630DA0F13445B10FB84B7F92630184626
:1036C0002837BD4680BD00BF4C00002018DE010039
:1036D00044DE0100B1F98CB348DE010080B596B03C
:1036E00000AF00237B6507F114031846FFF74CFD7C
:1036F0003B7D43F001033B753B7D43F002033B758B
:103700003B7D43F004033B757A69A14B1B681A6249
:103710006420FDF7BFF907F110031846FFF741FDDC
:103720009B4B1B685B6AFB6107F11C0207F11803E6
:1037300011461846FFF742FDBB693B6100233B82FF
:103740003A69934B1B685A6200237B6519E0904BE2
:103750001B685B6A7B6207F1240207F120031146B4
:103760001846FFF72BFD3B6A3B61B7F91020B7F90C
:1037700012309A420AD00120FDF78CF97B6D01339B
:103780007B657B6DB3F5FA6FE1D300E000BF3B7D55
:1037900043F008033B757A697D4B1B681A623B7DD9
:1037A00023F008033B757A69794B1B681A6240F273
:1037B000EE233B823A69764B1B685A6200237B6595
:1037C00019E0734B1B685B6AFB6207F12C0207F17F
:1037D000280311461846FFF7F1FCBB6A3B61B7F9B5
:1037E0001020B7F912309A420AD00120FDF752F9A1
:1037F0007B6D01337B657B6DB3F5FA6FE1D300E040
:1038000000BFFFF7F1FD0346A7F85230B7F852307A
:103810002D3B9BB21BB23B823A695D4B1B685A62DF
:10382000B7F952302D3B19465A4805F027FF0023BF
:103830007B651AE0564B1B685B6A7B6307F13402B9
:1038400007F1300311461846FFF7B8FC3B6B3B61AC
:10385000B7F952302D3BB7F9122093420AD001201C
:10386000FDF718F97B6D01337B657B6DB3F5FA6F5E
:10387000E0D300E000BFB7F852303B823A69444BD6
:103880001B685A62B7F952301946424805F0F6FEF5
:1038900000237B6519E03E4B1B685B6AFB6307F105
:1038A0003C0207F1380311461846FFF787FCBB6B53
:1038B0003B61B7F91230B7F952209A420AD0012081
:1038C000FDF7E8F87B6D01337B657B6DB3F5FA6F2F
:1038D000E1D300E000BFB7F912307A6D19462E48E7
:1038E00005F0CCFE3B7D43F008033B757A69284B1D
:1038F0001B681A623B7D23F008033B757A69244BF1
:103900001B681A62224B1968D1F88C20D1F89030CC
:10391000C7E9102307F1400207F1080311461846D2
:10392000FFF7F4FC1A4B1968D1F8AC20D1F8B0308D
:10393000C7E9122307F148023B4611461846FFF734
:10394000E5FC164805F09AFE07F108031846FFF754
:103950001FFD134805F092FE3B461846FFF718FD81
:10396000104B01221A603B7D23F001033B753B7D28
:1039700023F002033B753B7D23F004033B757A691A
:10398000034B1B681A6200BF5837BD4680BD00BF9D
:103990004C00002078DE0100A4DE0100D8DE01002A
:1039A00044DE01003800002080B58CB000AF7860A4
:1039B0000023FB6200237B857B68082B01D9FFF77E
:1039C0008DFE634B1B687A689A4200F0BD807B686D
:1039D000002B02D187237B850DE07B689BB21A46C2
:1039E00052001A44920013441A46D200D31A9BB2D2
:1039F0005B3B9BB27B8507F10C031846FFF7C4FBCA
:103A00003B7B43F001033B733B7B43F002033B737F
:103A10003B7B43F004033B73FA684E4B1B681A620E
:103A20006420FDF737F807F108031846FFF7B9FBE4
:103A3000484B1B685B6A7B6107F1140207F11003B6
:103A400011461846FFF7BAFB3B69BB60B7F92A304D
:103A50002D3B1946404805F011FE7B8D2D3B9BB256
:103A60001BB23B81BA683B4B1B685A620023FB6266
:103A70001AE0384B1B685B6AFB6107F11C0207F117
:103A8000180311461846FFF799FBBB69BB60B7F9ED
:103A90002A302D3BB7F90A2093420AD00120FCF7C7
:103AA000F9FFFB6A0133FB62FB6AB3F5FA6FE0D3FF
:103AB00000E000BFB7F92A301946274805F0DEFDBF
:103AC0007B8D3B81BA68234B1B685A620023FB62E3
:103AD00019E0204B1B685B6A7B6207F1240207F147
:103AE000200311461846FFF769FB3B6ABB60B7F934
:103AF0000A30B7F92A209A420AD00120FCF7CAFFFF
:103B0000FB6A0133FB62FB6AB3F5FA6FE1D300E0B5
:103B100000BFB7F90A30FA6A1946104805F0AEFD41
:103B20000B4A7B6813603B7B23F001033B733B7BB9
:103B300023F002033B733B7B23F004033B73FA68DF
:103B4000044B1B681A6200E000BF3037BD4680BDE1
:103B5000380000204C00002078DE0100A4DE0100C7
:103B600080B58CB000AF1C4B1B68082B01D9FFF748
:103B7000B5FD07F10C031846FFF713FB174B1B6845
:103B80005B6A7B6107F1140207F1100311461846C6
:103B9000FFF714FB3B69FB60B7F90C20B7F90E3057
:103BA0009A4201D00123BCE30B4B1B68B7F90E20EE
:103BB00019460B4805F062FD074B1B68002B11D11D
:103BC000B7F90E30852B05DDB7F90E30882B01DCF7
:103BD0000123A6E30023A4E3380000204C000020CA
:103BE000F8DE010007F108031846FFF7CDFA3B7A2B
:103BF00043F001033B723B7A43F002033B723B7A92
:103C000023F004033B72BA68A14B1B681A6264205C
:103C1000FCF740FF3B1D1846FFF7DFFA9C4B1B6883
:103C20009B6AFB6107F11C0207F118031146184655
:103C3000FFF7E0FABB697B60964805F01FFD3B1D6E
:103C40001846FFF7E7FA3B7903F00103DBB2002BDC
:103C50000CBF01230023DAB23B7903F00203DBB28D
:103C6000002B14BF01230023DBB21340DBB21A4642
:103C70003B7903F00403DBB2002B14BF01230023C4
:103C8000DBB213403A7902F00802D2B2002A14BF24
:103C900001220022D2B21340002B14BF01230023C3
:103CA00087F82F303B7903F01003DBB2002B0CBFF9
:103CB00001230023DAB23B7903F02003DBB2002BAF
:103CC00014BF01230023DBB21340DBB21A463B7959
:103CD00003F04003DBB2002B14BF01230023DBB24F
:103CE00013403A7922F07F02D2B2002A14BF012297
:103CF0000022D2B21340002B14BF0123002387F807
:103D00002E303B7903F00103DBB2002B14BF0123FB
:103D10000023DAB23B7903F00203DBB2002B0CBFC5
:103D200001230023DBB21340DBB21A463B7903F0D8
:103D30000403DBB2002B14BF01230023DBB21340CA
:103D40003A7902F00802D2B2002A14BF01220022FE
:103D5000D2B21340002B14BF0123002387F82D306B
:103D60003B7903F01003DBB2002B14BF01230023C7
:103D7000DAB23B7903F02003DBB2002B0CBF012346
:103D80000023DBB21340DBB21A463B7903F0400359
:103D9000DBB2002B14BF01230023DBB213403A79BE
:103DA00022F07F02D2B2002A14BF01220022D2B236
:103DB0001340002B14BF0123002387F82C303B79DC
:103DC00003F00103DBB2002B14BF01230023DAB29E
:103DD0003B7903F00203DBB2002B14BF0123002365
:103DE000DBB21340DBB21A463B7903F00403DBB2CB
:103DF000002B0CBF01230023DBB213403A7902F001
:103E00000802D2B2002A14BF01220022D2B213400B
:103E1000002B14BF0123002387F82B303B7903F0DC
:103E20001003DBB2002B14BF01230023DAB23B796D
:103E300003F02003DBB2002B14BF01230023DBB20D
:103E40001340DBB21A463B7903F04003DBB2002B90
:103E50000CBF01230023DBB213403A7922F07F022A
:103E6000D2B2002A14BF01220022D2B21340002B8A
:103E700014BF0123002387F82A303B7903F00103A4
:103E8000DBB2002B14BF01230023DAB23B7903E03D
:103E90004C00002030DF010003F00203DBB2002BF6
:103EA0000CBF01230023DBB21340DBB21A463B797F
:103EB00003F00403DBB2002B0CBF01230023DBB2B1
:103EC00013403A7902F00802D2B2002A14BF01224C
:103ED0000022D2B21340002B14BF0123002387F825
:103EE00029303B7903F01003DBB2002B14BF012310
:103EF0000023DAB23B7903F02003DBB2002B0CBFC6
:103F000001230023DBB21340DBB21A463B7903F0F6
:103F10004003DBB2002B0CBF01230023DBB21340B4
:103F20003A7922F07F02D2B2002A14BF0122002285
:103F3000D2B21340002B14BF0123002387F828308E
:103F40003B7903F00103DBB2002B14BF01230023F4
:103F5000DAB23B7903F00203DBB2002B14BF01237A
:103F60000023DBB21340DBB21A463B7903F00403B3
:103F7000DBB2002B14BF01230023DBB213403A79DC
:103F800002F00802D2B2002A0CBF01220022D2B2F3
:103F90001340002B14BF0123002387F827303B79FF
:103FA00003F01003DBB2002B14BF01230023DAB2AD
:103FB0003B7903F02003DBB2002B14BF0123002365
:103FC000DBB21340DBB21A463B7903F04003DBB2AD
:103FD000002B14BF01230023DBB213403A7922F0F7
:103FE0007F02D2B2002A0CBF01220022D2B21340BB
:103FF000002B14BF0123002387F826303B7903F000
:104000000103DBB2002B14BF01230023DAB23B799A
:1040100003F00203DBB2002B0CBF01230023DBB251
:104020001340DBB21A463B7903F00403DBB2002BEA
:1040300014BF01230023DBB213403A7902F00802D7
:10404000D2B2002A0CBF01220022D2B21340002BB0
:1040500014BF0123002387F825303B7903F01003B8
:10406000DBB2002B14BF01230023DAB23B7903F04B
:104070002003DBB2002B0CBF01230023DBB2134073
:10408000DBB21A463B7903F04003DBB2002B14BFCE
:1040900001230023DBB213403A7922F07F02D2B22F
:1040A000002A0CBF01220022D2B21340002B14BF01
:1040B0000123002387F824303B7903F00103DBB2AE
:1040C000002B14BF01230023DAB23B7903F0020373
:1040D000DBB2002B14BF01230023DBB21340DBB2A1
:1040E0001A463B7903F00403DBB2002B0CBF01231B
:1040F0000023DBB213403A7902F00802D2B2002A60
:104100000CBF01220022D2B21340002B14BF0123A6
:10411000002387F823303B7903F01003DBB2002B38
:1041200014BF01230023DAB23B7903F02003DBB292
:10413000002B14BF01230023DBB21340DBB21A466D
:104140003B7903F04003DBB2002B0CBF01230023BB
:10415000DBB213403A7922F07F02D2B2002A0CBFC0
:1041600001220022D2B21340002B14BF01230023EE
:1041700087F822303B7903F00103DBB2002B14BF38
:1041800001230023DAB23B7903F00203DBB2002BF8
:104190000CBF01230023DBB21340DBB21A463B798C
:1041A00003F00403DBB2002B0CBF01230023DBB2BE
:1041B00013403A7902F00802D2B2002A0CBF012261
:1041C0000022D2B21340002B14BF0123002387F832
:1041D00021303B7903F01003DBB2002B14BF012325
:1041E0000023DAB23B7903F02003DBB2002B0CBFD3
:1041F00001230023DBB21340DBB21A463B7903F004
:104200004003DBB2002B0CBF01230023DBB21340C1
:104210003A7922F07F02D2B2002A0CBF012200229A
:10422000D2B21340002B14BF0123002387F82030A3
:104230003E4B1B68013B072B72D801A252F823F0BA
:10424000614200007942000091420000A942000052
:10425000C1420000D9420000F142000009430000C1
:1042600097F82F2097F82E301343DBB2002B14BFA2
:1042700001230023DBB254E097F82D2097F82C306F
:104280001343DBB2002B14BF01230023DBB248E051
:1042900097F82B2097F82A301343DBB2002B14BF7A
:1042A00001230023DBB23CE097F8292097F828305F
:1042B0001343DBB2002B14BF01230023DBB230E039
:1042C00097F8272097F826301343DBB2002B14BF52
:1042D00001230023DBB224E097F8252097F824304F
:1042E0001343DBB2002B14BF01230023DBB218E021
:1042F00097F8232097F822301343DBB2002B14BF2A
:1043000001230023DBB20CE097F8212097F820303E
:104310001343DBB2002B14BF01230023DBB200E008
:10432000002318463037BD4680BD00BF380000204E
:1043300080B483B000AF786039603B68B3F9002087
:104340007B68B3F900309A4201DA3B6800E07B6891
:1043500018460C37BD4680BC704780B584B000AFAE
:10436000F860B9607A603B60FB68BA681A60FB6805
:104370007A685A60FB6800221A72FB683A68DA6051
:10438000FB681B68184609F08BFC0346DAB2FB6831
:104390001A72FB6818461037BD4680BD80B582B0E2
:1043A00000AF786039607B681B68184618F064FBC2
:1043B0003B68D3E9002318F0C9FB02460B461046C0
:1043C00019464FF00002054B18F0EAFC02460B4676
:1043D000104619460837BD4680BD00BF00005E414B
:1043E00080B483B000AF7860012318460C37BD4617
:1043F00080BC704780B483B000AF7860044A7B68AB
:104400001A607B6818460C37BD4680BC704700BFF9
:10441000BCDF010080B582B000AF78607868FFF73C
:10442000E9FF0421786807F032FD7B6818460837F9
:10443000BD4680BD98B500AF434C444B444A454906
:104440002046FFF78AFF1034434B444A4449204634
:10445000FFF783FF1034434B434A44492046FFF79C
:104460007CFF10343C4B424A42492046FFF775FF1F
:1044700010343C4B404A41492046FFF76EFF103450
:104480003F4B404A40492046FFF767FF10343F4BFF
:104490003F4A40492046FFF760FF10343E4B3F4AF9
:1044A0003F492046FFF759FF10343E4B3E4A3F49F3
:1044B0002046FFF752FF10343D4B3E4A3E4920460E
:1044C000FFF74BFF10343A4B3A4A3C492046FFF77E
:1044D00044FF10343A4B3B4A3B492046FFF73DFF2F
:1044E0001034374B374A39492046FFF736FF10342E
:1044F000374B384A38492046FFF72FFF1034374BE7
:10450000374A38492046FFF728FF1034364B374AE0
:1045100037492046FFF721FF1034364B364A3749DA
:104520002046FFF71AFF1034354B364A36492046ED
:10453000FFF713FF04F11000344B354A3549FFF7FC
:104540000CFF00BF98BD00BFCC080020ED4A000062
:10455000C8DF010000E001005D4B000008E0010041
:104560001CE001001D4C000028E0010044E00100B7
:1045700050E0010068E001006CE001008CE0010007
:10458000A94C000090E00100DCE00100C94D0000F2
:10459000E8E0010038E101009D53000044E1010022
:1045A00074E101002D5500007CE1010000E20100F2
:1045B000E57E0000C80B0200B80B020010E201000B
:1045C0005D8000000C0C0200FC0B020014E20100F4
:1045D000598200004C0C0200380C020065560000A5
:1045E00018E201004CE201009957000054E201007A
:1045F000B8E20100115A0000C8E2010008E301001E
:10460000695A000018E3010064E301000D5C00003A
:1046100074E30100A0E3010080B500AF0248FFF79A
:10462000E9FE00BF80BD00BF3C00002080B500AFA8
:10463000FFF700FF80BD80B500AFFFF7EDFF80BD45
:1046400080B483B000AF78607B6800221A607B681A
:1046500018460C37BD4680BC704780B483B000AFAD
:10466000786039603B681A687B681A607B68184616
:104670000C37BD4680BC704780B582B000AF786013
:104680000F4804F0FBFF7B681B6819460D4804F0D7
:10469000F5FF7B685B6819460B4804F0EFFF7B6809
:1046A0009B681946094804F0E9FF7B68DB681946F6
:1046B000074804F0E3FF00BF0837BD4680BD00BFD8
:1046C000B0E30100C8E30100E0E30100F8E301000A
:1046D00014E4010080B483B000AF786039603B68B7
:1046E0001A687B681A607B6818460C37BD4680BC28
:1046F0007047000080B582B000AF78607B681B68AF
:104700001946664804F0BAFF7B681B78C3F30003C0
:10471000DBB21946624804F0B1FF7B681B78C3F333
:104720004003DBB219465F4804F0A8FF7B681B78A2
:10473000C3F38003DBB219465B4804F09FFF7B683C
:104740001B78C3F3C003DBB21946584804F096FF48
:104750007B681B78C3F30013DBB21946544804F09E
:104760008DFF7B681B78C3F34013DBB219465148B9
:1047700004F084FF7B681B78C3F38013DBB2194617
:104780004D4804F07BFF7B681B78C3F3C013DBB29A
:1047900019464A4804F072FF7B685B78C3F3000354
:1047A000DBB21946464804F069FF7B685B78C3F3C7
:1047B0004003DBB21946434804F060FF7B685B7836
:1047C000C3F38003DBB219463F4804F057FF7B6810
:1047D0005B78C3F3C003DBB219463C4804F04EFFDC
:1047E0007B685B78C3F30013DBB21946384804F0EA
:1047F00045FF7B685B78C3F34013DBB2194635484D
:1048000004F03CFF7B685B78C3F38013DBB219468E
:10481000314804F033FF7B685B78C3F3C013DBB22D
:1048200019462E4804F02AFF7B689B78C3F30003E7
:10483000DBB219462A4804F021FF7B689B78C3F35A
:104840004003DBB21946274804F018FF7B689B78C9
:10485000C3F38003DBB21946234804F00FFF7B68E3
:104860009B78C3F3C003DBB21946204804F006FF6F
:104870007B689B78C3F30013DBB219461C4804F035
:10488000FDFE7B689B78C3F34013DBB219461948E1
:1048900004F0F4FE00BF0837BD4680BD28E40100E7
:1048A00054E4010068E401007CE4010090E40100AC
:1048B000A4E40100B8E40100CCE40100E0E401005C
:1048C000F4E4010004E5010014E5010024E5010021
:1048D00038E501004CE5010058E5010064E5010000
:1048E00070E5010080E5010090E50100A0E5010010
:1048F000B0E50100C4E5010080B582B000AF78608A
:104900007B681B6819460A4804F0B8FE7B68B3F957
:1049100000301946074804F0B1FE7B68B3F9023055
:104920001946054804F0AAFE00BF0837BD4680BD01
:10493000D8E5010008E601001CE6010080B584B05E
:1049400000AF78607B6803F580539B8919467B68CC
:1049500003F5805393F82130002B01D0592200E059
:104960004E227B6803F580535B6A104804F086FE94
:104970000023FB600BE07A68FB6813440C331B7860
:1049800019460B4804F07AFEFB680133FB607B6834
:1049900003F580539B891A46FB689342EBD3054885
:1049A00004F06CFE00BF1037BD4680BD80E70100FB
:1049B0009CE70100A4E7010080B582B000AF7860F9
:1049C00039607B681B68184618F056F83B68D3E9D5
:1049D000002318F0BBF802460B46104619464FF06C
:1049E0000002054B18F0DCF902460B46104619464A
:1049F0000837BD4680BD00BF00005E4180B483B073
:104A000000AF78600B46FB707B68FA781A7100BFC4
:104A10000C37BD4680BC704780B483B000AF78606F
:104A20007B681B7918460C37BD4680BC7047000078
:104A300080B584B000AF78607B685B681B683033FA
:104A40001B687A685268104698477B689B681846CE
:104A5000FFF712FE7B685B681B6824331B687A686B
:104A600052681046984701467B6893F82130002B26
:104A700001D0592200E04E227B685B6A184804F09E
:104A8000FDFD0023FB6012E07B685A687B685B6871
:104A90001B6808331B68F9681046984703461A4696
:104AA000F968104804F0EAFDFB680133FB607B689D
:104AB0005B681B6824331B687A6852681046984705
:104AC0000246FB68934234BF01230023DBB2002B74
:104AD000DAD1054804F0D2FD00BF1037BD4680BDD5
:104AE000A8E70100D0E70100A4E7010080B586B087
:104AF00002AFF860B9607A603B60134B1B68002B13
:104B000014BF01230023DBB2002B0ED00E4B1B6819
:104B100019680D4B1B685B6801930C4B0093A12334
:104B20000B4A0C4804F0AAFD05E0084BA1220849F5
:104B3000094804F0A3FDB86809F0B2F803465BB277
:104B400018461037BD4680BD4C000020C8F6010055
:104B5000DCE70100E0E7010040E8010080B588B033
:104B600000AFF860B9607A603B6000237B6107F1B9
:104B700014031A462049B86808F0ACFB0346FB77DB
:104B800097F91F30002B16DC1C4804F077FD1C4BF6
:104B90001A687B6913441B78BB617B69BA69194643
:104BA000184804F06BFDB969174804F067FD174811
:104BB00004F064FD1AE07B6923F003037B61104B72
:104BC0001A687B6913441B78BB610C4804F056FDDE
:104BD0007B69BA6919460E4804F050FDB9690D4861
:104BE00004F04CFDB9690C4804F048FD7B685BB2E9
:104BF00018462037BD4680BD7CE8010080E80100F2
:104C00004C00002094E80100A8E80100A4E701009E
:104C1000B0E80100C4E80100CCE8010080B588B02C
:104C200000AFF860B9607A603B600023BB6100238D
:104C30007B6107F1140307F118021649B86808F000
:104C400049FB0346FB7797F91F30012B09DC97F9E5
:104C50001F301A46B968104804F010FD4FF0FF33BA
:104C600013E07B69D9B20D4B1A68BB6913440A463D
:104C70001A707B6919460A4804F000FDBB691946A1
:104C8000084804F0FBFC7B685BB218462037BD4641
:104C900080BD00BFD8E80100E0E801004C00002022
:104CA0003CE9010060E9010080B58EB000AFF8601A
:104CB000B9607A603B6007F11C031846FEF764FA9E
:104CC00007F118031846FEF76CFA07F114031846AB
:104CD000FEF783FA354B1B68002B0CBF0123002322
:104CE000DBB2002B05D0324804F0C8FC7B685BB215
:104CF00058E0242224212F4804F0C0FC2822282137
:104D00002D4804F0BBFC202220212C4804F0B6FCE6
:104D1000264B1B681B6A7B6207F1240207F1200304
:104D200011461846FFF7D6FC3B6AFB611F4B1B6818
:104D30005B6AFB6207F12C0207F128031146184653
:104D4000FEF73CFABB6ABB61184B1B689B6A7B632E
:104D500007F1340207F1300311461846FEF74AFA0C
:104D60003B6B7B61164804F089FC07F11C03184675
:104D7000FFF7C0FC134804F081FC07F11803184644
:104D8000FFF7BAFD0F4804F079FC07F11403184649
:104D9000FEF740FA0B4804F071FC0A4804F06EFC80
:104DA0007B685BB218463837BD4680BD4C0000209A
:104DB0006CE90100C0E9010010EA01005CEA0100B1
:104DC000A8EA0100CCEA010090B5E7B000AF07F512
:104DD000CC74A4F5C674206007F5CC70A0F5C8703B
:104DE000016007F5CC71A1F5CA710A6007F5CC72B4
:104DF000A2F5CC721360734B1B68002B0CBF012310
:104E00000023DBB2002B09D06F4804F037FC07F514
:104E1000CC73A3F5CA731B685BB295E28C228C211C
:104E20006A4804F02BFC4FF4A4724FF4A271684856
:104E300004F024FC674804F021FC674804F01EFCE1
:104E4000604B1968D1F88C20D1F89030C7E906235F
:104E500007F1180207F1100311461846FEF756FA3B
:104E600007F110031846FEF793FA5C4804F006FCBD
:104E7000544B1968D1F89420D1F89830C7E90A2327
:104E800007F1280207F1200311461846FEF73EFA03
:104E900007F120031846FEF77BFA514804F0EEFBB9
:104EA000484B1968D1F89C20D1F8A030C7E90E23EF
:104EB00007F1380207F1300311461846FEF726FACB
:104EC00007F130031846FEF763FA464804F0D6FBB4
:104ED0003C4B1968D1F8A420D1F8A830C7E91223B7
:104EE00007F1480207F1400311461846FEF70EFA93
:104EF00007F140031846FEF74BFA3B4804F0BEFBAF
:104F0000304B1968D1F8AC20D1F8B030C7E916237E
:104F100007F1580207F1500311461846FEF7F6F95B
:104F200007F150031846FEF733FA304804F0A6FBA9
:104F3000244B1968D1F8B420D1F8B830C7E91A2346
:104F400007F1680207F1600311461846FEF7DEF923
:104F500007F160031846FEF71BFA254804F08EFBA4
:104F6000184B1968D1F8BC20D1F8C030C7E91E230E
:104F700007F1780207F1700311461846FEF7C6F9EB
:104F800007F170031846FEF703FA1A4804F076FB9F
:104F90000C4B1968D1F8C420D1F8C830C7E92223D6
:104FA00007F1880207F1800311461846FEF7AEF9B3
:104FB00007F180031846FEF7EBF90023C7F8943198
:104FC00021E000BF4C000020D0EA010028EB0100E6
:104FD00078EB0100C8EB0100F0EB010000EC0100F0
:104FE00010EC010020EC010030EC010040EC01006D
:104FF00050EC010060EC010006F096FFD7F8943108
:105000000133C7F89431D7F89431B3F5805FF3D307
:10501000D04804F033FBD04804F030FBCF4B196884
:10502000D1F8CC20D1F8D030C7E9262307F1980277
:1050300007F1900311461846FEF768F907F190034F
:105040001846FEF7A5F9C64804F018FBC34B1968CB
:10505000D1F8D420D1F8D830C7E92A2307F1A80223
:1050600007F1A00311461846FEF750F907F1A00317
:105070001846FEF78DF9BB4804F000FBB74B1968E2
:10508000D1F8DC20D1F8E030C7E92E2307F1B802CF
:1050900007F1B00311461846FEF738F907F1B003DF
:1050A0001846FEF775F9B04804F0E8FAAB4B1968FA
:1050B000D1F8E420D1F8E830C7E9322307F1C8027B
:1050C00007F1C00311461846FEF720F907F1C003A7
:1050D0001846FEF75DF9A54804F0D0FA9F4B196811
:1050E000D1F8EC20D1F8F030C7E9362307F1D80227
:1050F00007F1D00311461846FEF708F907F1D0036F
:105100001846FEF745F99A4804F0B8FA934B196827
:10511000D1F8F420D1F8F830C7E93A2307F1E802D2
:1051200007F1E00311461846FEF7F0F807F1E00337
:105130001846FEF72DF98F4804F0A0FA874B19683E
:10514000D1F8FC20D1F80031C7E93E2307F1F8027D
:1051500007F1F00311461846FEF7D8F807F1F003FF
:105160001846FEF715F9844804F088FA7B4B196855
:10517000D1F80421D1F80831C7E9422307F5847238
:1051800007F5807311461846FEF7C0F807F58073DF
:105190001846FEF7FDF80023C7F8903106E006F048
:1051A000C3FED7F890310133C7F89031D7F890316A
:1051B000B3F5805FF3D3674804F060FA6F4804F0FA
:1051C0005DFA664B1968D1F80C21D1F81031C7E9A6
:1051D000462307F58C7207F5887311461846FEF7CB
:1051E00095F807F588731846FEF7D2F8644804F07E
:1051F00045FA5A4B1968D1F81421D1F81831C7E98A
:105200004A2307F5947207F5907311461846FEF786
:105210007DF807F590731846FEF7BAF8594804F080
:105220002DFA4E4B1968D1F81C21D1F82031C7E96D
:105230004E2307F59C7207F5987311461846FEF742
:1052400065F807F598731846FEF7A2F84E4804F083
:1052500015FA424B1968D1F82421D1F82831C7E951
:10526000522307F5A47207F5A07311461846FEF7FE
:105270004DF807F5A0731846FEF78AF8434804F086
:10528000FDF9364B1968D1F82C21D1F83031C7E936
:10529000562307F5AC7207F5A87311461846FEF7BA
:1052A00035F807F5A8731846FEF772F8384804F089
:1052B000E5F92A4B1968D1F83421D1F83831C7E91A
:1052C0005A2307F5B47207F5B07311461846FEF776
:1052D0001DF807F5B0731846FEF75AF82D4804F08C
:1052E000CDF91E4B1968D1F83C21D1F84031C7E9FE
:1052F0005E2307F5BC7207F5B87311461846FEF732
:1053000005F807F5B8731846FEF742F8224804F08E
:10531000B5F9124B1968D1F84421D1F84831C7E9E1
:10532000622307F5C47207F5C07311461846FDF7EE
:10533000EDFF07F5C0731846FEF72AF807F5CC73A2
:10534000A3F5CA731B685BB2184607F5CE77BD4656
:1053500090BD00BFCCEA010070EC01004C000020C1
:105360007CEC010088EC010094EC0100A0EC010051
:10537000ACEC0100B8EC0100C4EC0100D0EC010081
:10538000DCEC0100E8EC0100F4EC010000ED0100B0
:105390000CED010018ED010024ED010080B58EB088
:1053A00000AFF860B9607A603B6007F11C031846F3
:1053B000FDF7F7FE554B1B68002B0CBF01230023A4
:1053C000DBB2002B05D0524804F058F97B685BB281
:1053D00098E007F118031A464E49B86807F07AFFBB
:1053E000034687F8333097F93330002B6FDD07F130
:1053F00014031846FDF7C8FE3B7D43F001033B75DF
:105400003B7D43F002033B753B7D43F004033B755A
:105410007A693E4B1B681A62BB691BB2BB83FA698F
:105420003A4B1B685A6200237B6335E0374B1B689D
:105430005B6A7B6207F1240207F1200311461846DC
:10544000FDF7BCFE3B6AFB61B7F91C20B7F91E30C3
:105450009A4226D0B7F91E202F4B83FB0213D91096
:10546000D317C91A0B469B000B4499000B44D31A5F
:105470001BB2002B0AD1294804F000F907F11C03E4
:105480001846FFF739FA264804F0F8F80120FBF730
:1054900001FB7B6B01337B637B6BB3F5FA6FC5D389
:1054A00000E000BFBB6919461E4804F0E7F83B7DE9
:1054B00023F001033B753B7D23F002033B753B7DED
:1054C00023F004033B757A69104B1B681A620F4B7B
:1054D0001B685B6AFB6207F12C0207F12803114687
:1054E0001846FDF76BFEBB6AFB610F4804F0C6F877
:1054F00007F11C031846FFF7FFF9094804F0BEF84E
:105500007B685BB218463837BD4680BD4C00002032
:1055100030ED010080ED01001F85EB5184ED0100AD
:10552000CCEA0100A0ED0100C0ED010080B58AB019
:1055300000AFF860B9607A603B600023BB6107F19F
:1055400018031A463D49B86807F0C4FE034687F8B9
:10555000273097F92730002B2FDDBB69082B0AD99C
:10556000BB6908221946364804F088F8FEF7B6F8F9
:105570007B685BB25EE0BB691946324804F07EF896
:10558000BB691846FEF710FAFEF7EAFA034683F005
:105590000103DBB2002B0DD02B4804F06FF8FEF7AF
:1055A0009DF8BB691946274804F068F8BB6918469E
:1055B000FEF7FAF97B685BB23CE0244804F05EF841
:1055C00007F114031846FDF7ECFD214B1B685B6ADD
:1055D0003B6207F1200207F11C0311461846FDF754
:1055E000EDFDFB697B61B7F91420B7F916309A42DB
:1055F00008D0184B1B681946174804F03FF87B6821
:105600005BB217E0FEF7ACFA034683F00103DBB2AE
:10561000002B07D0114804F031F8FEF75FF87B68E3
:105620005BB207E00B4B1B6819460D4804F026F8E7
:105630007B685BB218462837BD4680BD80ED01000F
:10564000E4ED010068EE010090EE0100B8EE01000B
:105650004C00002038000020F0EE010034EF010083
:105660007CEF010080B586B000AFF860B9607A6069
:105670003B603C4B1B68D3F888113A4B1B68D3F84E
:1056800088311A46384803F0F9FF364B1B68D3F8C7
:105690008C311946354803F0F1FF324B1B68D3F8C3
:1056A00090311946324803F0E9FF2E4B1B68D3F8BE
:1056B000943119462F4803F0E1FF2A4B1B68D3F8B9
:1056C000983119462C4803F0D9FF264B1B68D3F8B4
:1056D0009C311946294803F0D1FF224B1B68D3F8AF
:1056E000A0311946264803F0C9FF1E4B1B68D3F8AA
:1056F000A4311946234803F0C1FF1A4B1B68D3F8A5
:10570000A8311946204803F0B9FF164B1B68D3F89F
:10571000AC3119461D4803F0B1FF00237B6110E056
:105720007A69104B1B68C3F854210E4B1B68D3F8E1
:1057300058313B613969164803F0A0FF7B6901339A
:105740007B617B69132BEBD9124803F097FF054B64
:105750001B680022C3F85C217B685BB218461837CF
:10576000BD4680BD4C000020ACEF0100DCEF010025
:10577000FCEF01001CF001003CF001005CF00100B6
:1057800080F00100A0F00100C0F00100E0F0010095
:1057900000F10100A4E7010080B59EB002AFF860FF
:1057A000B9607A603B6007F124031846FEF748FFB2
:1057B00000233B620023FB610023BB6100237B616C
:1057C000894B1B68002B0CBF01230023DBB2002B8D
:1057D00005D0864803F052FF7B685BB2FAE007F120
:1057E0001C0107F1200207F11403019307F11803CC
:1057F00000930B467E49B86807F06CFD034687F8B6
:105800006F3097F96F30032B1DDD3B6ADBB287F8F1
:105810002430FB69DBB287F82530BB69DBB287F83F
:1058200026307B69DBB287F82730396AFA69B869B4
:105830007B69009303466F4803F020FF7A6A6A4B46
:105840001B681A6420E097F96F30002B1CDD3B6A5F
:10585000DBB287F824303B6ADBB287F825303B6A3D
:10586000DBB287F826303B6ADBB287F82730396A2B
:105870003A6A386A3B6A009303465E4803F0FEFECC
:105880007A6A594B1B681A64574B1B681B6CFB6286
:1058900007F12C0207F1280311461846FEF7DDFE3A
:1058A000BB6A7B6297F824303B6297F82530FB6136
:1058B00097F82630BB6197F827307B61396AFA691F
:1058C000B8697B69009303464B4803F0D7FE44A3B5
:1058D000D3E90023C7E918233B6A0133FB65FB6961
:1058E0000133BB65BB6901337B657B6901333B6574
:1058F000F86D17F0B1F802460B46D7E9180117F01A
:105900004FFA02460B46104619464FF000023B4B39
:1059100017F046FA02460B46C7E91223B86D17F096
:105920009BF802460B46D7E9180117F039FA0246F0
:105930000B46104619464FF00002304B17F030FA74
:1059400002460B46C7E91023786D17F085F802462A
:105950000B46D7E9180117F023FA02460B4610460A
:1059600019464FF00002254B17F01AFA02460B4673
:10597000C7E90E23386D17F06FF802460B46D7E9DA
:10598000180117F00DFA02460B46104619464FF063
:1059900000021A4B17F004FA02460B46C7E90C2323
:1059A000D7E91223F96D164803F068FED7E91023F2
:1059B000B96D144803F062FED7E90E23796D1248E1
:1059C00003F05CFED7E90C23396D104803F056FE56
:1059D0007B685BB218467037BD4680BDAFF3008070
:1059E00000000000965198414C00002008F1010091
:1059F00058F1010068F101009CF101000000304005
:105A0000CCF1010018F2010064F20100B4F20100CF
:105A100080B584B000AFF860B9607A603B600C4834
:105A200003F02CFE0B48FEF789FF0B48FEF786FFBC
:105A30000A48FEF783FF0A48FEF7FAFF094803F019
:105A40001DFE7B685BB218461037BD4680BD00BFA7
:105A500004F30100F01C0020302D0020703D0020D8
:105A6000E04D0020A4E7010080B58CB002AFF860E3
:105A7000B9607A603B6000233B6207F1180107F1CF
:105A8000200207F1170300930B465449B86807F04A
:105A900021FC034687F8263097F92630032B5ADD80
:105AA000002387F8273097F91730592B0FD097F933
:105AB0001730792B0BD097F91730542B07D097F963
:105AC0001730742B03D097F91730312B02D10123F3
:105AD00087F82730396A97F82730002B01D05923EF
