:1000000000000120910100007F0300006105000055
:100010008303000073050000850500000000000058
:100020000000000000000000000000008903000044
:100030008B030000000000008D0300008F03000010
:100040009103000093030000950300009703000054
:10005000990300009B0300009D0300009F03000024
:10006000A1030000A3030000A5030000A7030000F4
:10007000A9030000AB030000AD030000AF030000C4
:10008000B1030000B3030000B5030000B703000094
:10009000B9030000BB030000BD030000BF03000064
:1000A000C1030000C3030000C5030000C703000034
:1000B000C9030000CB030000CD030000CF03000004
:1000C000D1030000D3030000D5030000D7030000D4
:1000D000D9030000DB030000DD030000DF030000A4
:1000E000E1030000E3030000E5030000E703000074
:1000F000E9030000EB030000ED030000EF03000044
:10010000F1030000F3030000F5030000F703000013
:10011000F9030000FB030000FD030000FF030000E3
:1001200001040000030400000504000007040000AF
:10013000090400000B0400000D0400000F0400007F
:10014000110400001304000015040000170400004F
:10015000190400001B0400001D0400001F0400001F
:1001600021040000230400002504000027040000EF
:10017000290400002B0400002D0400002F040000BF
:100180003104000033040000000000000000000003
:100190004FF0000BDFF8BE020068DFF8B612096806
:1001A00001F0030100F01C00142801D14BF0020BF8
:1001B000002901D04BF0010BBBF1000F05D0A7487F
:1001C000A749DFF8722200F09FF8A64880470BF09D
:1001D000020ABAF1000F0CD0DFF86E02DFF86E12DF
:1001E00002680B680FB44FF000024FF0FF0302608B
:1001F0000B609D484FF000024FF00103022808D128
:10020000DFF83A120A60DFF83E120A60DFF83212B5
:100210000B60012808D1DFF82A120A60DFF82612E5
:100220000A60DFF81A120B609048002809D1904844
:100230009049914A00F030F890489149914A00F075
:100240002BF891489149924A00F026F8914892493A
:10025000DFF8E22100F058F8BBF1000F10D08F4812
:100260008F49DFF8D62100F04FF80BF0020ABAF1FF
:10027000000F05D00FBC02600B6000BFAFF3008021
:10028000DFF820020FF2030E00474FF000004FF09E
:100290000001DFF814F2FEE72DE9F841884225D08D
:1002A000B2EB010200D5FEE740EA010313F00303BD
:1002B00002D000F01DF819E04FF000039046121133
:1002C000F7D09A421CBFF0C8F0C103F10103F8D186
:1002D00008F00F08B8F1000F08D004780C7000F196
:1002E000010001F10101B8F10108F6D1BDE8F88182
:1002F00008B54FF0000303780B7000F1010001F125
:100300000101013AF7D108BD884237D000F0030659
:10031000002E14D04FF00405A5EB06044FF008079B
:1003200007FB06F8914669FA08F9002C07D080F817
:10033000009069FA07F900F10100013CF5E74FF080
:1003400000060F46091A88460911914614461546BB
:10035000B14206D018BFA0E8340206F10106B1424E
:10036000F8D108F00F08B8F1000F07D002704FEA7B
:10037000322200F10100B8F10108F4E77047FEE70E
:10038000FEE7FEE7FEE7FEE7FEE7FEE7FEE7FEE745
:10039000FEE7FEE7FEE7FEE7FEE7FEE7FEE7FEE735
:1003A000FEE7FEE7FEE7FEE7FEE7FEE7FEE7FEE725
:1003B000FEE7FEE7FEE7FEE7FEE7FEE7FEE7FEE715
:1003C000FEE7FEE7FEE7FEE7FEE7FEE7FEE7FEE705
:1003D000FEE7FEE7FEE7FEE7FEE7FEE7FEE7FEE7F5
:1003E000FEE7FEE7FEE7FEE7FEE7FEE7FEE7FEE7E5
:1003F000FEE7FEE7FEE7FEE7FEE7FEE7FEE7FEE7D5
:10040000FEE7FEE7FEE7FEE7FEE7FEE7FEE7FEE7C4
:10041000FEE7FEE7FEE7FEE7FEE7FEE7FEE7FEE7B4
:10042000FEE7FEE7FEE7FEE7FEE7FEE7FEE7FEE7A4
:10043000FEE7FEE7704700000000A2A2A2A2008033
:100440000340088003401080034030800340348024
:1004500003403880034018080240000000F00020EC
:10046000000001209D0500000000000000000000C9
:10047000000000000000000090010000B004000037
:10048000B0040000C8B70200D0B70200000000208E
:100490007008002070080020706500207065002042
:1004A00000F0002091E50000A9CD00000000000050
:1004B00010B5054C237833B9044B13B10448AFF39E
:1004C00000800123237010BD700800200000000090
:1004D00044B7020008B5034B1BB103490348AFF30F
:1004E000008008BD000000007408002044B702002E
:1004F000A3F5803A704700BF154B002B08BF114B86
:100500009D46FFF7F5FF00218B460F461148124A22
:10051000121A0DF05FFE0C4B002B00D098470B4BCE
:10052000002B00D098470020002104000D000B484C
:100530000DF03AF90EF02CF8200029000CF034FCF4
:100540000DF038F900000800000000000000000075
:1005500000F000207008002070650020E1E5000038
:100560001EF0040F0CBFEFF30880EFF309800CF0CE
:10057000B7BA1EF0040F0CBFEFF30880EFF3098049
:100580000CF0F8BA1EF0040F0CBFEFF30880EFF385
:1005900009800CF01FBB0138FDD1704780B500AF5A
:1005A00000F0FAF8044B5B69034A43F400735361AB
:1005B000FFF740FF00BF80BD00ED00E080B588B0D0
:1005C00000AF314BD3F8983003F08063FB61FB69D7
:1005D000002B4ED12C4BD3F8983003F480537B6121
:1005E0007B69002B15D1294B294A1A60294B284ACF
:1005F0001A60294B264A1A60284B294A1A60294B4F
:10060000234A1A60284B224A1A60284B204A1A6053
:1006100036E0274A3B1D92E8030083E803001A4BAB
:10062000D3F89C309B0903F007033B613A1D3B69FB
:1006300013441B78FB73FB7B022B12D0022B14DCC0
:10064000002B02D0012B07D00FE000F035F8B86185
:10065000B86900F04FF813E04FF4004000F04AF89A
:100660000EE0144800F046F80AE0124800F042F8A4
:1006700006E000F021F8B861B86900F03BF8FFE748
:1006800000BF2037BD4680BD00800340040000202D
:1006900080651406080000200C00002010000020D7
:1006A0006019850114000020180000201C000020A3
:1006B0004CF3010040420F0080B483B000AF0A4BFE
:1006C000D3F8503103F004033B603B68002B02D1A8
:1006D000064B7B6001E0064B7B607B6818460C375D
:1006E000BD4680BC704700BF0080034040787D015C
:1006F00080F0FA0280B483B000AF78600C4A7B6867
:1007000013600C4A7B6813600B4A7B6813600B4BC9
:100710000B4A1A600B4A7B6813600B4A7B681360B4
:100720000A4A7B68136000BF0C37BD4680BC704727
:1007300004000020080000200C0000201000002011
:100740006019850114000020180000201C00002002
:1007500080B483B000AF0E4BD3F84C313B603B68A4
:100760004FF60202934204D03B680A4A934203D0F8
:1007700005E001237B6005E002237B6002E00023AB
:100780007B6000BF7B6818460C37BD4680BC704755
:100790000080034002F8010080B582B000AFFFF78F
:1007A000D7FF78607B68012B02D100F007F800E0EA
:1007B00000BF00BF0837BD4680BD000080B400AF59
:1007C000094BD3F89830084A43F48073C2F8983044
:1007D000054BD3F89830044A23F08063C2F8983070
:1007E00000BFBD4680BC70470080034080B483B02A
:1007F00000AF78604FF0FF3318460C37BD4680BC21
:10080000704780B584B000AFF860B9607A600DF0D1
:10081000B9FE03460C221A604FF0FF33184610371A
:10082000BD4680BD80B483B000AF786000BFFDE7F7
:1008300080B500AF0DF0A6FE03460B221A604FF004
:10084000FF33184680BD80B483B000AF7860396054
:100850003B684FF400525A60002318460C37BD46DF
:1008600080BC704780B400AF01231846BD4680BCF1
:10087000704780B483B000AF7860012318460C370E
:10088000BD4680BC704780B582B000AF78603960EB
:100890000DF078FE034616221A604FF0FF3318461B
:1008A0000837BD4680BD80B582B000AF7860396042
:1008B0000DF068FE03461F221A604FF0FF33184602
:1008C0000837BD4680BD80B485B000AFF860B96020
:1008D0007A60002318461437BD4680BC704780B448
:1008E00085B000AFF860B9607A604FF0FF3318460A
:1008F0001437BD4680BC704780B485B000AFF86047
:10090000B9607A60002318461437BD4680BC704732
:1009100080B485B000AFF860B9607A603B600023B6
:1009200018461437BD4680BC7047000080B586B0BD
:1009300000AF78601F4B1B68002B02D11D4B1E4A75
:100940001A601C4B1B687B61EFF308833B61194BFA
:100950001B683A699A420FD9164B1A687B68134490
:100960003A699A421AD21923144A01210020FFF74A
:10097000CFFF0120FFF756FF114BFB600D4B1A68AC
:100980007B681344FA689A4208D219230D4A012160
:100990000020FFF7BDFF0120FFF744FF054B1A6859
:1009A0007B681344034A13607B6918461837BD46B9
:1009B00080BD00BF900800207065002054F3010046
:1009C00000F0002070F3010080B483B000AF7860C5
:1009D00039603B684FF400525A60002318460C37C8
:1009E000BD4680BC704780B483B000AF78604FF0E4
:1009F000FF3318460C37BD4680BC704780B582B0C7
:100A000000AF78600DF0BEFD034602221A604FF081
:100A1000FF3318460837BD4680BD80B582B000AFB1
:100A200078600DF0AFFD03460A221A604FF0FF33E5
:100A300018460837BD4680BD2DE9B04384B000AFED
:100A400078607B68002298469146104BD3E90023DA
:100A500002FB09F008FB03F10144A8FB02454B1916
:100A60001D460B4A4FF00003204629461DF066F94B
:100A700002460B4613460133FB60F868FFF78BFD17
:100A800000BF1037BD46BDE8B08300BF8000002026
:100A900040420F0080B582B000AF78607B684FF4B1
:100AA0007A7202FB03F31846FFF7C6FF00BF083750
:100AB000BD4680BD80B582B000AF78607B684FF4E2
:100AC0007A7202FB03F31846FFF7E4FF00BF083712
:100AD000BD4680BD80B485B000AF786039604FF00E
:100AE000FF33FB603B68BB6012E07B681B781A46F3
:100AF000FB681B0E53400B4A52F82320FB681B0275
:100B00005340FB607B6801337B60BB68013BBB608B
:100B1000BB68002BE9D1FB68DB4318461437BD46A0
:100B200080BC704784F3010080B500AF30480BF003
:100B30004BFD304B1B6819462F480BF045FD2F4BE2
:100B40001B6819462E480BF03FFD2E4B1B681946BB
:100B50002D480BF039FD2D4B1B6819462C480BF026
:100B600033FD2C4B1B6819462B480BF02DFD2B4BEE
:100B70001B6819462A480BF027FD2A4B1B681946AB
:100B800029480BF021FD294B1B68194628480BF01A
:100B90001BFD284B1B68194627480BF015FD274BFA
:100BA0001B68194626480BF00FFD264B1B6819469B
:100BB00025480BF009FD254B1B68194624480BF00E
:100BC00003FD244B1B68194623480BF0FDFC234B07
:100BD0001B68194622480BF0F7FC224B1B6819468C
:100BE00021480BF0F1FC21480BF0EEFC00BF80BD6A
:100BF00084F70100000000009CF701009001000054
:100C0000BCF70100B0040000D8F70100C8B702002B
:100C1000F0F70100C0B7020004F80100C8B70200F5
:100C20001CF801000000002034F8010070080020CA
:100C30004CF801007008002060F801007065002089
:100C400078F801007065002088F8010000F00020AD
:100C5000A4F8010000F00020B8F801000000012015
:100C6000D4F8010070650020E8F80100F8F80100F0
:100C700080B584B000AFF860B9607A603B603B68D3
:100C800018687B68BA68F968984702463B681A603A
:100C90003B681B68002B02D14FF0FF3300E00023BC
:100CA00018461037BD4680BD80B586B000AFF860ED
:100CB000B9607A603B6014E0BB68102B28BF10233A
:100CC0007B613B687A687969F868FFF7D1FF034672
:100CD000002B02DA4FF0FF3307E0BA687B69D31AC2
:100CE000BB60BB68002BE7D1002318461837BD4610
:100CF00080BD000080B586B000AFF860B9607A6052
:100D00003B6000237B617B68002B0BD0BB68FA68DB
:100D100079683048FFF7C8FF0346002B02DA4FF02E
:100D2000FF3353E07A697B6813447B613B68002B97
:100D300012D03B6A002B0FD0BB68FA68396A38685A
:100D4000FFF796FF0346002B02DA4FF0FF333DE03A
:100D50007A693B6A13447B617B6A002B0BD0BB68CA
:100D6000FA68796A1C48FFF79FFF0346002B02DAF6
:100D70004FF0FF332AE07A697B6A13447B61FB6A98
:100D8000002B0BD0BB68FA68F96AB86AFFF770FFEE
:100D90000346002B02DA4FF0FF3317E07A69FB6A53
:100DA00013447B613B6B002B0BD0BB68FA68396B3B
:100DB0000848FFF779FF0346002B02DA4FF0FF33B4
:100DC00004E07A693B6B13447B617B6918461837F2
:100DD000BD4680BDFCF8010010F9010080B489B067
:100DE00000AFF860B9607A603B600023FB610023CC
:100DF000BB6100237B61FB689B681A46BB6893421A
:100E000005D2FB689B681A46BB68D31A7B61FB68F6
:100E10005B6803F00403002B02D07B69BB6101E037
:100E20007B69FB61FB685B6803F04003002B15D016
:100E3000FA69BB6913443B61FB685B6803F0040318
:100E4000002B0CBF01230023DBB21A463B6913447D
:100E50005B08FB613A69FB69D31ABB617B68002BB5
:100E600002D07B68FA691A603B68002B02D03B68AD
:100E7000BA691A6000BF2437BD4680BC70470000C5
:100E80002DE9B04FA0B000AFC7E912017A643B640E
:100E9000D7E91223C7E91C23D7E91C231446C3F35F
:100EA0001305C7E91845D7E91C234FF000004FF0A0
:100EB0000001180D00210346C3F30A03BB66D7E9FE
:100EC0001C234FF000004FF00001D80F0021034613
:100ED000FB66BA6E40F2FF739A4209D16FF000438D
:100EE000BB65FB6EFB65D7E91823C7E91423FFE058
:100EF000D7E9182313430DD1BB6E002B0AD1002371
:100F0000BB654FF000024FF00003C7E91423FB6EEE
:100F1000FB65EDE0FB6EFB65BB6E002B21D1012371
:100F2000BB664FF000024FF00003C7E91423002313
:100F3000BB650CE0D7E918239118B9615B41FB61EF
:100F4000D7E90623C7E91823BB6E013BBB66D7E987
:100F500018234FF0000A03F4002B5AEA0B03E9D0E0
:100F600006E075A3D3E90023C7E914230023BB657A
:100F700073A3D3E90023C7E91E23D7E918234FF051
:100F800000004FF00001190341EA12511003C7E9B4
:100F9000180131E0D7E91823002B0CDAD7E9140146
:100FA000D7E91E238418BC6341EB0303FB63D7E935
:100FB0000E34C7E91434D7E91823911839615B411D
:100FC0007B61D7E90423C7E91823D7E91E23511C05
:100FD000396343F100037B634FF000024FF00003DD
:100FE000D7E90C4521464A08204629460C4642EAE4
:100FF000C4724B08C7E91E23D7E918231343C9D18C
:10100000BB6EA3F2FF33BB6629E0D7E91423911826
:10101000B9605B41FB60D7E90223C7E91423D7E934
:10102000142341498A4241498B4115D3D7E91423FE
:10103000511DB96243F10003FB624FF00A024FF009
:101040000003D7E90A011CF079FE02460B46C7E906
:101050001423BB6D0133BB65BB6E013BBB66BB6E2E
:10106000002BD2DC41E0D7E9142331498A423149CF
:101070008B4120D2D7E9144522462B464FF0000081
:101080004FF00001990041EA9271900002460B4630
:1010900012EB040843EB050918EB08033B6049EB2E
:1010A00009037B60D7E9008942464B46C7E9142310
:1010B000BB6D013BBB65D7E91423511C396243F179
:1010C00000037B624FF000024FF00003D7E90845B0
:1010D00021464A08204629460C4642EAC4724B087B
:1010E000C7E91423BB6E0133BB66BB6E002BBADBB2
:1010F0007B6C002B02D0FA6D7B6C1A603B6C002B72
:1011000004D0D7E91423396CC1E90023D7F8A03003
:10111000002B03D0BA6DD7F8A0301A6000BF80371B
:10112000BD46BDE8B08F00BF0000C16FF28623004E
:1011300000008D49FD1A07000080C6A47E8D0300C3
:1011400000406352BFC6010080B586B000AFF860B2
:10115000C7E900233A6A7B6AD31A7B610EE0D7E9BC
:1011600000014FF00A024FF000031CF0E7FD0246B9
:101170000B46C7E900237B69013B7B617B69002B40
:10118000EDDC7B6A7B6122E0D7E900014FF00A02C7
:101190004FF000031CF0D2FD13463B613B69DBB20C
:1011A0003033D9B27B69013BFA6813444AB21A70F2
:1011B000D7E900014FF00A024FF000031CF0BEFD1A
:1011C00002460B46C7E900237B69013B7B617B69D3
:1011D000002BD9D17B6A18461837BD4680BD000068
:1011E00080B590B006AFF8607A603B600B46FB724A
:1011F00000237B6100233B613B6C6FF00042934214
:1012000015D1D7E90E23134311D097F90B30662B74
:1012100007D097F90B30652B03D097F90B30672B6C
:1012200002D12F4B3B6213E02E4B3B6210E097F94B
:101230000B30662B07D097F90B30652B03D097F94D
:101240000B30672B02D1284B3B6201E0274B3B62FE
:10125000386A0DF041FBF8613B6B002B02D0244B48
:101260007B6219E03B6B002B08D1FB685B6803F0E5
:101270000203002B02D01F4B7B620DE03B6B002B67
:1012800008D1FB685B6803F00103002B02D01A4B06
:101290007B6201E0194B7B62786A0DF01DFBB8613F
:1012A000FA69BB69D11807F1100307F11402F86855
:1012B000FFF794FD7A693B690493FB6903933B6AEA
:1012C000029300230193BB6900937B6A39687868B5
:1012D000FFF710FD034618462837BD4680BD00BF06
:1012E00024F9010028F901002CF9010030F901006E
:1012F00034F9010038F901003CF9010040F901001E
:101300002DE9B0438AB000AFF860B9607A603B6005
:1013100048A3D3E90023C7E908230023FB61BB6886
:101320001B68BB617B6C002B21D0BA693E4B83FBF1
:101330000231D317C91A0B465B000B44D31ABB61A9
:10134000BB69002B02DABB690333BB613B68002B2E
:101350000DD0BB681B68002BB8BF5B427B617B690B
:10136000182B04DD7B69183BBA691344BB613B68E9
:10137000002B0AD1BB69002B02DABB690133BB61C8
:10138000BB69002BB8BF5B42BB61BA697B68134481
:101390000133FB61FB6923EAE373FB610BE0D7E9EF
:1013A00008014FF00A024FF000031CF0C7FC024690
:1013B0000B46C7E90823FB695A1EFA61002BEED1E0
:1013C000FB68D3E90001D7E90823841841EB030542
:1013D000FB68C3E90045FB68D3E9002313498A424F
:1013E00013498B4118D3FB68D3E9002312F1050898
:1013F00043F100094FF00A024FF00003404649460E
:101400001CF09CFC02460B46F968C1E90023BB684E
:101410001B685A1CBB681A6000BF2837BD46BDE870
:10142000B08300BFAFF30080565555550000C16F23
:10143000F28623000080E03779C3110080B5AAB09E
:1014400006AFF8607A603B600B46FB720023C7F87A
:101450008C300023C7F884300023C7F88030002385
:10146000BB6100237B610023FB670023BB67002374
:101470007B6700233B670023FB660023BB660023DA
:10148000BB6500237B6500233B650023FB7497F954
:101490000B30672B03D097F90B30472B23D1012357
:1014A0007B65FB685B6823F02002FB685A60D7F815
:1014B000A83013F1040F05DBFB68DA68D7F8A83011
:1014C0009A4208DC97F90B30672B01D1652300E0C5
:1014D0004523FB7207E097F90B30672B01D1662398
:1014E00000E04623FB7297F90B30662B03D097F987
:1014F0000B30462B01D101233B65FB68DB68002BD9
:1015000002DAFB680622DA607B6D002B06D0FB68EE
:10151000DB68002B02D1FB680122DA60D7F8983033
:10152000002B03D0AB4BC7F888301EE0D7F89830BB
:10153000002B09D1FB685B6803F00203002B03D08A
:10154000A54BC7F8883010E0D7F89830002B09D1A8
:10155000FB685B6803F00103002B03D09F4BC7F8C7
:10156000883002E09E4BC7F88830D7F888000DF02D
:10157000B3F97863FB68DA68FB685B6803F0200303
:1015800007F1A80107F1A00001937B6D00933B6D6B
:10159000FFF7B6FED7E92823134324D01023C7F85A
:1015A0008C301AE0D7E928014FF00A024FF000030F
:1015B0001CF0C4FB134315D1D7F88C30013BC7F89E
:1015C0008C30D7E928014FF00A024FF000031CF0DD
:1015D000B5FB02460B46C7E92823D7F88C30002B11
:1015E000E0D100E000BF3B6D002B37D0FB685B68AB
:1015F00003F02003002B2AD00823FB6419E0D7F85E
:10160000A830022B08DDFB6C0133FB64D7F8A8304F
:10161000033BC7F8A8300CE0D7F8A830002B0FDA4E
:10162000FB6C013BFB64D7F8A8300333C7F8A83044
:1016300000BFFB6C002B04DDFB6C0F2BDFD900E03F
:1016400000BF684AFB6C134493F90030FB74D7F871
:10165000A83043EAE37301337B6623E001237B6612
:10166000FB685B6803F02003002B1BD0D7F8A82091
:101670005D4B83FB0231D317C91A0B465B000B4449
:10168000D31ABB64BB6C002B02DABB6C0333BB64A4
:101690007A6EBB6C13447B66D7F8A820BB6CD31A58
:1016A000C7F8A830FB68DA68D7F88C107B6ECB1AC5
:1016B00023EAE3739342A8BF13463B663B6D002BBE
:1016C0003CD07B6D002B39D0D7E92823C7E9102304
:1016D000D7F88C30FB630EE0FB6B013BFB63D7E973
:1016E00010014FF00A024FF000031CF027FB0246E6
:1016F0000B46C7E910237A6E3B6E1344FA6B9A428D
:10170000EADC0EE0D7E910014FF00A024FF00003C7
:101710001CF014FB02460B46C7E910233B6E013B4D
:101720003B663B6E002B09DDD7E910014FF00A0242
:101730004FF000031CF002FB1343E3D07A6E7B6B87
:101740001A443B6E1344C7F880303B6D002B38D0F1
:101750007B6E002B06D10123FB67D7F88030013365
:10176000C7F880307A6ED7F88C309A4204DD7A6EF2
:10177000D7F88C30D31ABB67D7F8A830B3F1FF3F46
:1017800015DAFB68DB68002B11DDD7F8A830DB43E6
:101790007B67FB68DB681A467B6F934228BF134662
:1017A0007B67D7F880207B6F1344C7F8803097F9A8
:1017B0001330002B34D0D7F880300133C7F8803095
:1017C0002EE0D7F8A830002BB8BF5B42FB650023A2
:1017D000BB6516E034F9010038F901003CF901005D
:1017E00040F901002400002056555555BB6D0133CA
:1017F000BB65FB6D9C4A82FB03129210DB17D31A68
:10180000FB65FB6D002BF1DCBB6D022B38BF0223A7
:10181000BB65BA6DD7F8803013440233C7F8803007
:101820003A6E7B6F1344FA68D268934217D27B6D8D
:10183000002B05D0FB685B6803F00803002B0ED07B
:10184000FB68DB681A467B6FD21A3B6ED31A3B6784
:10185000D7F880203B6F1344C7F880301AE03B6D07
:10186000002B17D03A6E7B6F1344FA68D26893420C
:1018700010D93A6E7B6F1344FA68D2689B1A3B63A7
:101880003B6BD7F88020D31AC7F880303A6E3B6B99
:10189000D31A3B667B6F002B0BD13B6F002B08D11B
:1018A0003B6E002B05DCFB685B6803F00803002B34
:1018B00006D00123BB66D7F880300133C7F88030EB
:1018C00007F1140307F11802D7F88010F868FFF742
:1018D00085FAFB685B6803F01003002B05D0BB6939
:1018E000FA6F1344FB670023BB617B6E002B0ED0A5
:1018F000D7E92823786EB96F411A07F11C000191CE
:10190000D7F88C100091FFF71FFC034600E000237E
:10191000C7F88430D7F88C20D7F88430D31AC7F8AA
:101920008C30BA6900230493D7F88430039307F10D
:101930001C030293FB6F01937B6B0093D7F88830F5
:1019400039687868FFF7D6F9F862FB6AB3F1FF3FB0
:1019500001D1FB6AF4E0FA6EFB6A1344FB660023D4
:1019600004930023039300230293BB6F019300238E
:1019700000930023002239687868FFF7BBF9F8620A
:10198000FB6AB3F1FF3F01D1FB6AD9E0FA6EFB6A53
:101990001344FB663B6E002B0CD0D7E9282307F1DC
:1019A0001C00396E0191D7F88C100091FFF7CCFB29
:1019B000034600E00023C7F88430BB6E002B14BF41
:1019C00001230023DBB21A4600230493D7F88430A6
:1019D000039307F11C0302937B6F01930092234B47
:1019E000002239687868FFF785F9F862FB6AB3F17D
:1019F000FF3F01D1FB6AA3E0FA6EFB6A1344FB666A
:101A00000023049300230393002302933B6F01936D
:101A1000002300930023002239687868FFF76AF9F1
:101A2000F862FB6AB3F1FF3F01D1FB6A88E0FA6E0E
:101A3000FB6A1344FB66BB6D002B5DD0D7F8A83062
:101A4000002BB8BF5B42BB63FB7A3B74D7F8A8306E
:101A5000002B01DA2D2300E02B237B74BB6DFB658B
:101A60000023C7F8843025E06766666644F9010004
:101A7000B96B354BA3FB0123DA0813469B001344D3
:101A80005B00CA1AD3B23033DAB2FB6D013B52B2FB
:101A900090333B4403F8742CFB6D013BFB65D7F896
:101AA00084300133C7F88430BB6B274AA2FB032381
:101AB000DB08BB63FB6D002BDADC07F110020023AF
:101AC0000493D7F88430039307F11C030293002397
:101AD0000193022300931346002239687868FFF7C8
:101AE00009F9F862FB6AB3F1FF3F01D1FB6A27E015
:101AF000FA6EFB6A1344FB6697F91330002B14BF90
:101B000001230023DBB21A467B690493039207F199
:101B10001303029300230193002300930023002268
:101B200039687868FFF7E6F8F862FB6AB3F1FF3FBF
:101B300001D1FB6A04E0FA6EFB6A1344FB66FB6E9C
:101B400018469037BD4680BDCDCCCCCC90B593B077
:101B500006AFF860B9603B601346FB71FB6893F910
:101B600014304C2B02D14FF0FF334DE0BB681B68A3
:101B7000073323F0070303F10801BA681160D3E9C2
:101B80000023C7E90A2307F1180107F1240207F12E
:101B9000140300930B46D7E90A01FFF771F97B693B
:101BA0006FF00042934203D1D7E90623134308D1D3
:101BB0007B696FF00042934215D1D7E906231343A6
:101BC00011D1796AD7E90623786997F9074004901B
:101BD000CDE9022300913B6C3A682146F868FFF793
:101BE000FFFA034610E0796AD7E90623786997F986
:101BF00007400490CDE9022300913B6C3A682146EE
:101C0000F868FFF71BFC034618463437BD4690BD05
:101C10002DE9B04FAAB006AFF865B9653B6513462C
:101C200087F85730FB6D1A6AFB6D5B6A1344C7F87F
:101C30008430D7F884300733DB08C7F880304FF0A2
:101C400000024FF00003C7E918234FF000024FF0E5
:101C50000003C7E91823D7F88030002B02D14FF0DA
:101C6000FF33EEE0D7F88030042B08D8BB6D19683D
:101C70000A1DBB6D1A600B68C7F88C3007E0BB6D9E
:101C800019680A1DBB6D1A600B68C7F88C30D7F84D
:101C90008C30002B0AD10023FB674FF000024FF07D
:101CA0000003C7E91C230023FB66BAE0D7F88430A1
:101CB0005A1E012303FA02F2D7F88C301340002B8E
:101CC00014BF01230023DBB2FB67FB6F002B04D0A2
:101CD000D7F88C305B42C7F88C30D7F884305A1E66
:101CE000012393405A1ED7F88C301340C7F88C302C
:101CF000D7F88C30DA17BB64FA64D7E91223C7E946
:101D00001C234FF0FF33C7F8883009E0D7F88C3038
:101D10005B10C7F88C30D7F888300133C7F88830AB
:101D2000D7F88C30002BF1D1D7F88820FB6D5B6A97
:101D3000D31AFB6609E0D7E91C23911839605B418F
:101D40007B60D7E90023C7E91C23D7E91C23B3F53F
:101D5000801FF0D3D7E9182300244FEA13554FEA28
:101D60000555D7E91C239246C3F3130B44EA0A0333
:101D70003B6445EA0B037B64D7E91034C7E91834A8
:101D8000D7E91823BA636FF31E53FB63FB6EDA17B0
:101D90003B637A633B6BC3F30A084FF0000940F2E0
:101DA000FF3318EB0303BB6249F10003FB624FF002
:101DB00000024FF00003B96A0B050022D7E90E01BB
:101DC000044614433C6219437962D7E90834C7E9F1
:101DD0001834D7E91823BA6123F00043FB61FB6F85
:101DE00000223B617A614FF000024FF00003396935
:101DF000CB070022D7E9060104461443BC6019430F
:101E0000F960D7E90234C7E91834D7E9180107F1B6
:101E1000700407F17C0207F16C0300932346FFF77F
:101E20002FF8F96FD7E91C23F86E0490CDE902234F
:101E30000091D7F8B0303A6D6621F86DFFF7FEFAE1
:101E4000034618469037BD46BDE8B08FB0B485B0A4
:101E500000AF786039603B681B68191D3A681160F3
:101E60001B68FB60FB68002B48D07B6893F914303B
:101E7000682B05D17B681B681AB2FB681A803DE0AD
:101E80007B6893F91430692B05D17B681B685AB2C3
:101E9000FB681A7032E07B6893F914306C2B05D123
:101EA0007B681B681A46FB681A6027E07B6893F919
:101EB00014306A2B08D17B681B6800221C4615462B
:101EC000FB68C3E9004519E07B6893F914307A2B6D
:101ED00004D17B681A68FB681A600FE07B6893F98D
:101EE0001430742B05D17B681B681A46FB681A6096
:101EF00004E07B681B681A46FB681A6000231846DA
:101F00001437BD46B0BC704780B58EB006AFF860E0
:101F1000B9603B601346FB710023FB6197F9073002
:101F2000632B08D1BB681B68191DBA6811601B6858
:101F30005BB2FB7403E0FB6893F91530FB74FB683C
:101F4000DB68002B02DAFB680122DA60FB68DB68E1
:101F5000012BB8BF0123BB611FE0002304930123C1
:101F6000039307F1130302930023019300230093CB
:101F700000230022B96A3868FEF7BCFE78617B69ED
:101F8000B3F1FF3F02D14FF0FF330AE0FA697B69FA
:101F90001344FB61BB69013BBB61BB69002BDCD116
:101FA000FB6918462037BD4680BD000080B58EB065
:101FB00006AFF860B9603B601346FB710023FB611C
:101FC00000237B6100233B61BB681B68191DBA6855
:101FD00011601B68BB61BB69002B01D1174BBB6152
:101FE000B8690CF079FCF861FB68DB68002B07DB53
:101FF000FB68DB681A46FB69934228BF1346FB6106
:1020000007F1100307F11402F969F868FEF7E6FE1C
:102010007A693B690493FB690393BB6902930023CC
:102020000193002300930023B96A3868FEF762FE2B
:10203000034618462037BD4680BD00BF48F9010061
:102040002DE9F043CBB006AF07F58876A6F582768A
:10205000306007F58870A0F584700160114607F5BF
:102060008872A2F58872136007F58873A3F20913CA
:102070000A461A700023C7F80C310023BB61002305
:102080007B610023C7F804310023C7F80031002327
:10209000C7F8FC300023C7F8F4300023C7F8F0304D
:1020A00007F58873A3F582731B685B6803F08003F0
:1020B000002B00F0EE8007F58873A3F582731B6890
:1020C00093F914306C2B10D107F58873A3F5847342
:1020D0001B681B68191D07F58872A2F584721268C7
:1020E00011601B68C7F8EC3063E007F58873A3F54F
:1020F00082731B6893F914306A2B16D107F5887325
:10210000A3F584731B681B68073323F0070303F1EF
:10211000080107F58872A2F5847212681160D3E98C
:1021200000231346C7F8EC3043E007F58873A3F5A6
:1021300082731B6893F914307A2B10D107F58873DA
:10214000A3F584731B681B68191D07F58872A2F537
:102150008472126811601B68C7F8EC3029E007F53B
:102160008873A3F582731B6893F91430742B10D114
:1021700007F58873A3F584731B681B68191D07F5A1
:102180008872A2F58472126811601B68C7F8EC307F
:102190000FE007F58873A3F584731B681B68191D8E
:1021A00007F58872A2F58472126811601B68C7F87F
:1021B000EC3007F58873A3F582731B6893F914302C
:1021C000682B04D1D7F8EC301BB2C7F8EC3007F518
:1021D0008873A3F582731B6893F91430692B04D1BB
:1021E000D7F8EC305BB2C7F8EC30D7F8EC30002B06
:1021F000B8BF5B42C7F8F83007F58873A3F5807362
:1022000000221A70D7F8EC30002B06DA07F5887335
:10221000A3F580732D221A7020E007F58873A3F5CB
:1022200082731B685B6803F00203002B06D007F57E
:102230008873A3F580732B221A700FE007F588735B
:10224000A3F582731B685B6803F00103002B05D0C4
:1022500007F58873A3F5807320221A7007F5887339
:10226000A3F5807393F90030002B00F0B2800123B6
:10227000C7F8F43007F58873A3F582731B685B68B1
:1022800043F0080207F58873A3F582731B685A6050
:102290009FE007F58873A3F582731B6893F91430E8
:1022A0006C2B10D107F58873A3F584731B681B682A
:1022B000191D07F58872A2F58472126811601B68F7
:1022C000C7F8F83063E007F58873A3F582731B68DD
:1022D00093F914306A2B16D107F58873A3F584732C
:1022E0001B681B68073323F0070303F1080107F598
:1022F0008872A2F5847212681160D3E90023134634
:10230000C7F8F83043E007F58873A3F582731B68BC
:1023100093F914307A2B10D107F58873A3F58473E1
:102320001B681B68191D07F58872A2F58472126874
:1023300011601B68C7F8F83029E007F58873A3F52A
:1023400082731B6893F91430742B10D107F58873CE
:10235000A3F584731B681B68191D07F58872A2F525
:102360008472126811601B68C7F8F8300FE007F537
:102370008873A3F584731B681B68191D07F58872A1
:10238000A2F58472126811601B68C7F8F83007F56F
:102390008873A3F582731B6893F91430682B04D1FA
:1023A000D7F8F8309BB2C7F8F83007F58873A3F573
:1023B00082731B6893F91430692B04D1D7F8F83075
:1023C000DBB2C7F8F83007F58873A3F580733022C5
:1023D0001A7007F58873A3F2091393F900306F2B75
:1023E00006D1D7F8F830002B02D00123C7F8F4301B
:1023F00007F58873A3F2091393F90030782B0FD0F7
:1024000007F58873A3F2091393F90030582B07D00E
:1024100007F58873A3F2091393F90030622B32D1C8
:1024200007F58873A3F582731B685B6803F02003CC
:10243000002B03D1D7F8F830002B0CD007F58873A8
:10244000A3F5807307F58872A2F2091212785A7008
:102450000223C7F8F43007F58873A3F582731B686D
:102460005B6803F02003002B0DD007F58873A3F5FC
:10247000807393F9013043F020035AB207F5887353
:10248000A3F580735A7007F58873A3F582731B68F0
:102490005B6803F00803002B0ED0D7F80C21D7F8A7
:1024A000F4301344C7F80C3107F11003C7F8FC30BF
:1024B000D7F8F430C7F80031D7F834310A2B50D1AF
:1024C0000023C7F8083147E0D7F8F83000229846D3
:1024D0009146AF4B03FB09F2002303FB08F31344BF
:1024E000AB4AA8FB02452B441D46C7E92C45C7E96A
:1024F0002C45D7E92C014FF000024FF00003CA0829
:1025000000231346C7F8AC30D7F8AC309B00D7F89F
:10251000AC201344C7F8A830D7F8A8305B00D7F830
:10252000F820D31AC7F8A430D7F808310133C7F818
:102530000831D7F8A430DBB23033DAB2D7F808313B
:10254000C3F1820352B203F588733B4403F8F42CC1
:10255000D7F8AC30C7F8F830D7F8F830002BB3D143
:10256000ACE0D7F83431022B07D0D7F83431082B40
:1025700003D0D7F83431102B5BD1D7F83431013B7D
:10258000C7F8C030D7F83431102B07D0D7F8343122
:10259000082B01D1032302E0012300E00423C7F844
:1025A000BC300023C7F808313EE0D7F8F820D7F850
:1025B000C0301340774AD35C87F8EB3007F5887357
:1025C000A3F2091393F90030782B0FD007F5887325
:1025D000A3F2091393F90030692B07D007F588732C
:1025E000A3F2091393F90030752B05D197F8EB305E
:1025F00043F0200387F8EB30D7F808310133C7F8F0
:102600000831D7F80831C3F1820303F588733B44DE
:1026100097F8EB2003F8F42CD7F8F820D7F8BC3063
:1026200022FA03F3C7F8F830D7F8F830002BBCD102
:1026300044E00023C7F808313CE0D7F8F830D7F879
:102640003421B3FBF2F2D7F8341101FB02F29B1AEA
:10265000504AD35C87F8EA3007F58873A3F2091370
:1026600093F90030692B07D007F58873A3F209139B
:1026700093F90030752B05D197F8EA3043F0200329
:1026800087F8EA30D7F808310133C7F80831D7F8AE
:102690000831C3F1820303F588733B4497F8EA20BD
:1026A00003F8F42CD7F8F820D7F83431B2FBF3F361
:1026B000C7F8F830D7F8F830002BBED107F588738B
:1026C000A3F582731B68DB69002B00F01C8107F502
:1026D0008873A3F582731B689B69C7F8E43007F51C
:1026E0008873A3F582731B68DB69C7F8E0300023A9
:1026F000C7F8D830D7F80831C7F8D030D7F8083144
:10270000C3F18203C7F8CC30D7F8E030013BD7F8EB
:10271000E4201344C7F8E430E6E0D7F8E030002BBB
:1027200000F08580D7F8E4301B7887F8DF3097F920
:10273000DF302D2B00F0DE8097F9DF302A2B1FD100
:1027400007F58873A3F584731B681B68191D07F5CB
:102750008872A2F58472126811601B68C7F8D830BD
:10276000D7F8D830002BC0F2C780D7F8E430013B4F
:10277000C7F8E430D7F8E030013BC7F8E03043E079
:102780000023C7F8D8300123C7F8D43023E000BFB6
:10279000CDCCCCCC58F9010097F9DF30303B1A464C
:1027A000D7F8D43003FB02F2D7F8D8301344C7F877
:1027B000D830D7F8D42013469B0013445B00C7F8E9
:1027C000D430D7F8E430013BC7F8E430D7F8E03034
:1027D000013BC7F8E030D7F8E030002B14D0D7F831
:1027E000E4301B7887F8DF3097F9DF30002B0BD00F
:1027F00097F9DF300133874A134493F90030DBB295
:1028000003F00403002BC7D1D7F8E030002B75D0BC
:10281000D7F8E4301B7887F8DF30D7F8E430013B95
:10282000C7F8E430D7F8E030013BC7F8E030D7F81C
:10283000D830002B54D0D7F8D830D7F8D0209A42CF
:102840005ED9D7F8CC30C7F8C830D7F8D830D7F829
:10285000D020D31AC7F8C43018E0D7F8C830013BED
:1028600007F11C01D7F8C8200A4492F9002003F5AB
:1028700088733B4403F8F42CD7F8C430013BC7F805
:10288000C430D7F8C8300133C7F8C830D7F8C430DF
:10289000002BE2D1D7F8CC30013BC7F8CC30D7F8C9
:1028A000CC20D7F8D0301A44D7F8D830D31A03F553
:1028B00088733B4497F8DF2003F8F42CD7F80831ED
:1028C0000133C7F80831D7F8F0300133C7F8F030DA
:1028D000D7F8D830D7F8D020D31AC7F8D03003E0D3
:1028E000D7F8E030002B0DD0D7F8D030002B7FF494
:1028F00014AF08E000BF06E000BF04E000BF02E044
:1029000000BF00E000BFD7F80831C7F8A03007F5D6
:102910008873A3F582731B68DB68002B07DA07F561
:102920008873A3F582731B680122DA600DE007F556
:102930008873A3F582731B685B6823F0100207F5A8
:102940008873A3F582731B685A6007F58873A3F533
:1029500082731B68DB681A46D7F8F0301344D7F847
:102960000821934238BF1346C7F80831D7F80C2125
:10297000D7F808311344C7F80C3107F1140307F1F5
:10298000180207F58871A1F58270D7F80C1100685C
:10299000FEF724FAD7F80821D7F8A030D31AC7F8E1
:1029A000043107F58873A3F582731B685B6803F035
:1029B0001003002B07D0BB69D7F804211344C7F8D4
:1029C00004310023BB61B969D7F8A030C3F1820399
:1029D00007F11C0213447A6907F58870A0F5887026
:1029E0000492D7F8A02003920293D7F80431019300
:1029F000D7F800310093D7F8FC300A46D7F83011E9
:102A00000068FEF777F90346184607F58A77BD4652
:102A1000BDE8F083CC40020080B58CB006AFF86012
:102A2000B9603B601346FB7100237B6197F9073067
:102A30006E2B05D1B968F868FFF708FA0346DDE0A8
:102A400097F90730252B11D1002304930123039319
:102A5000FB1D029300230193002300930023002217
:102A6000396A3868FEF746F90346C7E097F9073038
:102A7000632B03D097F90730432B0AD197F907202E
:102A80003B6A00933B68B968F868FFF73DFA034674
:102A9000B4E097F90730732B0AD197F907203B6A06
:102AA00000933B68B968F868FFF780FA0346A5E031
:102AB00097F90730652B13D097F90730452B0FD0C6
:102AC00097F90730662B0BD097F90730462B07D0C4
:102AD00097F90730672B03D097F90730472B0AD1B6
:102AE00097F907203B6A00933B68B968F868FFF7DD
:102AF0002DF8034682E097F907306B2B0AD197F93E
:102B000007203B6A00933B68B968F868FFF780F8D4
:102B1000034673E097F90730702B0DD15823FB71F2
:102B2000FB6800221A75FB6828225A60FB6808229D
:102B30009A60FB680822DA6097F90730642B07D0A7
:102B400097F90730692B03D097F90730492B1CD12F
:102B5000FB685B6843F08002FB685A600A237B6174
:102B6000FB685B6823F00802FB685A6097F907303E
:102B7000692B03D097F90730492B06D1FB681B69F5
:102B8000002B02D0FB681B697B6197F90730782B1B
:102B900003D097F90730582B01D110237B6197F9A7
:102BA0000730752B03D097F90730552B08D1FB68F8
:102BB0001B69002B02D0FB681B6900E00A237B61C4
:102BC00097F907306F2B01D108237B6197F9073004
:102BD000622B01D102237B617B69012B0CD997F910
:102BE00007207B6901933B6A00933B68B968F868EA
:102BF000FFF726FA034601E04FF0FF331846183777
:102C0000BD4680BD80B59CB002AFF860B9607A6007
:102C10003B607B683B663B683B617B68002B00F058
:102C20008C8200237B617DE23B6EFB6502E0FB6DE5
:102C30000133FB65FB6D93F90030002B04D0FB6D75
:102C400093F90030252BF2D1FA6D3B6ED31AFB6459
:102C5000FB6C002B0ED007F10803FA68F96C386E94
:102C6000FEF706F80346002BC0F269827A69FB6C16
:102C700013447B61FB6D3B663B6E93F90030002B88
:102C800000F050823B6E01333B660023BB610BE0DA
:102C9000BA69BB6CA6495B1AA64951F823301343A5
:102CA000BB613B6E01333B663B6E1B7887F8673038
:102CB00097F96730002B09D097F9673019469C487F
:102CC0000BF0D8FAB864BB6C002BE1D13B6E93F9E2
:102CD00000302A2B12D13B691A1D3A611B68FB6137
:102CE000FB69002B06DAFB695B42FB61BB6943F0C1
:102CF0000403BB613B6E01333B6628E00023FB61AC
:102D00000DE0FA6913469B0013445B001A4697F9DD
:102D100067301344303BFB613B6E01333B663B6ED7
:102D20001B7887F8673097F96730002B0FD097F939
:102D300067300133804A134493F90030DBB203F06B
:102D40000403002B03D0FB69B3F5FA7FD9DBFB69E1
:102D5000B3F5FA7F00F3F5813B6E93F900302E2B2B
:102D600003D04FF0FF333B6243E03B6E01333B66E1
:102D70003B6E93F900302A2B0DD13B691A1D3A6145
:102D80001B683B623B6AB3F5FA7F00F3DC813B6E64
:102D900001333B662DE000233B620DE03A6A1346A7
:102DA0009B0013445B001A4697F967301344303B8D
:102DB0003B623B6E01333B663B6E1B7887F86730A6
:102DC00097F96730002B0FD097F9673001335A4AD3
:102DD000134493F90030DBB203F00403002B03D05B
:102DE0003B6AB3F5FA7FD9DB3B6AB3F5FA7F00F3B0
:102DF000AC813B6E93F900303A2B02D000237B620A
:102E000048E03B6E01333B663B6E93F900302A2B62
:102E100014D13B691A1D3A611B687B647B6C002BE3
:102E200002DA00237B6205E07B6C242B00F38F81A8
:102E30007B6C7B623B6E01333B662BE000237B6245
:102E40000DE07A6A13469B0013445B001A4697F91B
:102E500067301344303B7B623B6E01333B663B6E15
:102E60001B7887F8673097F96730002B0ED097F9F9
:102E700067300133304A134493F90030DBB203F07A
:102E80000403002B02D07B6A232BDADD7B6A242B20
:102E900000F35F8110237B631023BB6300233B633C
:102EA0000023FB623B6E1B7887F8673097F9673029
:102EB0005B2B24D10023BB653B6E01333B663B6E2D
:102EC000FB6205E03B6E01333B66BB6D0133BB65C6
:102ED0003B6E1B7887F8673097F96730002B03D07B
:102EE00097F967305D2BEDD197F96730002B00F033
:102EF00032813B6E01333B66BB6D3B639CE097F9CF
:102F000067307B2B40F098803B6E01333B663B6E15
:102F100093F900302A2B08D13B691A1D3A611B68CE
:102F20007B653B6E01333B662DE000237B6513E040
:102F300080F9010088F90100CC4002007A6D134647
:102F40009B0013445B001A4697F967301344303BEB
:102F50007B653B6E01333B663B6E1B7887F86730C1
:102F600097F96730002B0ED097F967300133844A08
:102F7000134493F90030DBB203F00403002B02D0BA
:102F80007B6D1F2BDAD97B6D202B00F2E6803B6E28
:102F900093F900302E2B40F0E2803B6E01333B660C
:102FA0003B6E93F900302A2B08D13B691A1D3A6118
:102FB0001B683B653B6E01333B6627E000233B65A6
:102FC0000DE03A6D13469B0013445B001A4697F9D7
:102FD00067301344303B3B653B6E01333B663B6ED1
:102FE0001B7887F8673097F96730002B0ED097F978
:102FF00067300133624A134493F90030DBB203F0C7
:103000000403002B02D03B6D1F2BDAD997F96730F0
:10301000002B00F0A6803B6E01333B663B6D202BFE
:1030200000F2A1807A6D3B6D13441F2B00F29D804E
:103030007B6D7B633B6DBB633B6E1B7887F86730B2
:1030400097F96730002B0ED097F9673019464D4835
:103050000BF010F90346002B05D03B6E01333B66A5
:1030600097F9673000E0002387F8283097F9283077
:10307000002B17D03B6E1B7887F8673097F96730C5
:10308000002B0FD097F9283097F967209A4209D181
:1030900097F9283043F001035BB287F828303B6E84
:1030A00001333B663B6E1B7887F8673097F96730D2
:1030B000002B05D13B691A1D3A611B683B6631E064
:1030C00097F8673087F8433097F94330432B0FD197
:1030D0003B6E01333B663B6E1B7887F8673097F990
:1030E0006730002B43D097F8673087F8293002E02B
:1030F000002387F8293097F9432007F1100107F1E1
:10310000140007F108030093FB68FFF785FCF863E0
:10311000FB6B002B2DDB7A69FB6B13447B613B6EF1
:1031200001333B663B6E1B7887F8673097F9673051
:10313000002B7FF479AD7B691EE000BF1AE000BF71
:1031400018E000BF16E000BF14E000BF12E000BFAF
:1031500010E000BF0EE000BF0CE000BF0AE000BFBF
:1031600008E000BF06E000BF04E000BF02E000BFCF
:1031700000E000BF4FF0FF3318466837BD4680BD02
:10318000CC40020050F9010080B584B000AFF86077
:10319000B9607A603B60FB68BA681A60FB687A685D
:1031A0005A60FB6800221A72FB683A68DA60FB68B2
:1031B0001B6818460BF090FB0346DAB2FB681A72E4
:1031C000FB6818461037BD4680BD000080B582B050
:1031D00000AF786039607B681B6818461AF070F998
:1031E0003B68D3E900231AF0D5F902460B46104696
:1031F00019464FF00002054B1AF0F6FA02460B464C
:10320000104619460837BD4680BD00BF00005E412C
:1032100098B500AF664C674B674A68492046FFF790
:10322000B3FF1034664B674A67492046FFF7ACFF8F
:103230001034664B664A67492046FFF7A5FF1034F5
:103240005F4B654A65492046FFF79EFF10345F4B90
:10325000634A64492046FFF797FF1034624B634A84
:1032600063492046FFF790FF10345F4B614A624983
:103270002046FFF789FF1034604B614A61492046C0
:10328000FFF782FF10345D4B5F4A60492046FFF72D
:103290007BFF10345E4B5F4A5F492046FFF774FFA7
:1032A00010345B4B5D4A5E492046FFF76DFF1034DA
:1032B0005C4B5D4A5D492046FFF766FF10345C4B6E
:1032C0005C4A5D492046FFF75FFF10345B4B5C4A68
:1032D0005C492046FFF758FF10345B4B5B4A5C4962
:1032E0002046FFF751FF10345A4B5B4A5B4920469A
:1032F000FFF74AFF10345A4B5A4A5B492046FFF702
:1033000043FF1034594B5A4A5A492046FFF73CFFB5
:103310001034564B584A59492046FFF735FF1034B0
:10332000574B584A58492046FFF72EFF1034574B49
:10333000574A58492046FFF727FF1034564B574A43
:1033400057492046FFF720FF1034564B564A57493D
:103350002046FFF719FF1034554B564A5649204670
:10336000FFF712FF1034524B544A55492046FFF7DD
:103370000BFF1034534B544A54492046FFF704FFC7
:103380001034534B534A54492046FFF7FDFE103486
:10339000524B534A53492046FFF7F6FE04F1100002
:1033A000514B524A5249FFF7EFFE00BF98BD00BF94
:1033B00094080020253A000010FA010048FA0100A4
:1033C000953A000050FA010064FA01005D3B0000EC
:1033D00070FA01008CFA010098FA0100B0FA0100BD
:1033E000B4FA0100D4FA0100E93B0000D8FA010068
:1033F00024FB01002CFB01007CFB0100213D0000AF
:1034000080FB0100CCFB0100D4FB010024FC010087
:10341000D140000028FC01005CFC010064FC0100BC
:103420009CFC010085AA00006C3502005C3502009E
:103430008DAD0000B0350200A0350200C9B100001A
:10344000F0350200DC35020071430000A0FC0100F1
:10345000D4FC010021440000DCFC010038FD010027
:10346000F147000040FD01008CFD0100D149000042
:1034700094FD0100B0FD0100B8FD0100D4FD010084
:10348000C14A0000D8FD010028FE0100214D0000C6
:1034900038FE0100B0FE01007D4E0000BCFE0100C0
:1034A000FCFE0100AD4E00000CFF010054FF0100C6
:1034B0005150000064FF01009CFF0100ACFF0100BF
:1034C000E8FF0100E5550000ECFF01001C000200D0
:1034D0000957000028000200680002004958000057
:1034E00078000200B0000200DD580000BC000200BD
:1034F0002801020080B500AFFFF78AFE80BD80B4CE
:1035000083B000AF78607A68136803F0000313603B
:103510007A6893886FF30F0393807A68D3886FF388
:103520000F03D3807B6818460C37BD4680BC7047BC
:1035300080B483B000AF786039603B681B6819B213
:103540007A68938861F30F0393803B681B681B0CB8
:1035500019B27A68D38861F30F03D38000BF0C37A8
:10356000BD4680BC7047000080B582B000AF786077
:103570007B681B68184619F0A3FF02460B460D48EE
:1035800009F022F87B681B6819467B68B3F90430A0
:103590001A467B68B3F90630074809F015F87B68CE
:1035A000B3F906301946054809F00EF800BF083790
:1035B000BD4680BD34010200580102008C010200AA
:1035C00080B483B000AF78607B6800221A607B68AB
:1035D00018460C37BD4680BC704780B483B000AF3E
:1035E000786039603B681A687B681A607B681846A7
:1035F0000C37BD4680BC704780B584B002AF7860A0
:103600007B681B8819467B681B881A467B685B8829
:1036100018467B685B8800930346034808F0D4FF94
:1036200000BF0837BD4680BD9401020080B483B05E
:1036300000AF78607B6800221A607B6818460C3700
:10364000BD4680BC704780B483B000AF78603960FD
:103650003B681A687B681A607B6818460C37BD4661
:1036600080BC704780B584B002AF78607B681B88EF
:1036700019467B681B881A467B685B8818467B68FE
:103680005B8800930346034808F09EFF00BF08379D
:10369000BD4680BDE401020080B483B000AF786015
:1036A0007B6800221A607B6818460C37BD4680BCD8
:1036B000704780B483B000AF786039603B681A68A7
:1036C0007B681A607B6818460C37BD4680BC704723
:1036D00080B584B002AF78607B681B8819467B6830
:1036E0001B881A467B685B8818467B685B8800935A
:1036F0000346034808F068FF00BF0837BD4680BD99
:103700004002020080B483B000AF78607B68002282
:103710001A607B6818460C37BD4680BC704780B481
:1037200083B000AF786039603B681A687B681A60C4
:103730007B6818460C37BD4680BC704780B483B0A8
:1037400000AF78600B46FB707B68FA781A7100BF97
:103750000C37BD4680BC704780B483B000AF786042
:103760007B681B7918460C37BD4680BC704700004B
:1037700080B582B000AF78607B681B6819467B68B3
:103780005A687B689B6803480AF0CAFA00BF08378A
:10379000BD4680BD8802020080B483B000AF78606F
:1037A0007B6800221A607B6818460C37BD4680BCD7
:1037B000704780B483B000AF786039603B681A68A6
:1037C0007B681A607B6818460C37BD4680BC704722
:1037D000F0B5B9B01EAF78667B6E1B683B667B6E3A
:1037E0001B78C3F30003DBB29C467B6E1B78C3F3EC
:1037F0004003DBB29E467B6E1B78C3F38003DBB2D3
:10380000FB657B6E1B78C3F3C003DBB2BB657B6ECD
:103810001B78C3F30013DBB27B657B6E1B78C3F3AD
:103820004013DBB23B657B6E1B78C3F38013DBB2C6
:10383000FB647B6E1B78C3F3C013DBB2BB647B6E8F
:103840005B78C3F30003DBB27B647B6E5B78C3F30E
:103850004003DBB23B647B6E5B78C3F38003DBB277
:10386000FB637B6E5B78C3F3C003DBB2BB637B6E31
:103870005B78C3F30013DBB27B637B6E5B78C3F3CF
:103880004013DBB23B637B6E5B78C3F38013DBB228
:10389000FB627B6E5B78C3F3C013DBB2BB627B6EF3
:1038A0009B78C3F30003DBB27B627B6E9B78C3F330
:1038B0004003DBB23B627B6E9B78C3F38003DBB2D9
:1038C000FB617B6E9B78C3F3C003DBB2BB617B6E95
:1038D0009B78C3F30013DBB27B617B6E9B78C3F3F1
:1038E0004013DBB23B617B6E9B78C3F38013DBB28A
:1038F000FB607B6E9B78C3F3C013DBB2BB607B6E57
:10390000DB78C3F30003DBB27B607B6EDB78C3F351
:103910004003DBB21E467B6EDB78C3F38003DBB271
:103920001D467B6EDB78C3F3C003DBB21C467B6EA7
:10393000DB78C3F30013DBB218467B6EDB78C3F38E
:103940004013DBB219467B6EDB78C3F38013DBB226
:103950001A467B6EDB78C3F3C013DBB21D931C9257
:103960001B911A901994189517967A681692BA684E
:103970001592FA6814923A6913927A691292BA69A6
:103980001192FA6910923A6A0F927A6A0E92BA6AA2
:103990000D92FA6A0C923A6B0B927A6B0A92BA6B9E
:1039A0000992FA6B08923A6C07927A6C0692BA6C9A
:1039B0000592FA6C04923A6D03927A6D0292BA6D96
:1039C0000192FA6D009273466246396E034808F020
:1039D000FBFD00BF6C37BD46F0BD00BFEC0202002E
:1039E00080B582B000AF786039607B681B6818468C
:1039F00019F066FD3B68D3E9002319F0CBFD0246C0
:103A00000B46104619464FF00002054B19F0ECFE2C
:103A100002460B46104619460837BD4680BD00BF1A
:103A200000005E4180B586B002AFF860B9607A6090
:103A30003B60134B1B68002B14BF01230023DBB238
:103A4000002B0ED00E4B1B6819680D4B1B685B6872
:103A500001930C4B0093E1230B4A0C4808F0B4FD92
:103A600005E0084BE1220849094808F0ADFDB868B7
:103A70000AF032FF03465BB218461037BD4680BDE0
:103A80004C00002018130200400502006C050200E3
:103A9000D005020080B586B000AFF860B9607A60EA
:103AA0003B6000233B6107F110031A462449B868C4
:103AB0000AF02CFA0346FB7597F91730002B20DC2F
:103AC000204808F081FD00233B6113E01E4B1A687B
:103AD0003B6913441B78BB753B69BA7D19461B488B
:103AE00008F072FDBB7D1946194808F06DFD3B6971
:103AF00001333B613B69802BE8D9164808F064FD2F
:103B000018E0114B1A683B6913441B78BB750D48CC
:103B100008F05AFD3B69BA7D19460C4808F054FD7F
:103B2000BB7D19460A4808F04FFDBB7D19460A487F
:103B300008F04AFD7B685BB218461837BD4680BD69
:103B40000C060200100602004C00002024060200B1
:103B500038060200400602004406020080B588B024
:103B600000AFF860B9607A603B600023BB6100235E
:103B70007B6107F1140307F118021649B8680AF0CF
:103B8000C5F90346FB7797F91F30012B09DC97F93C
:103B90001F301A46B968104808F016FD4FF0FF3381
:103BA00013E07B69D9B20D4B1A68BB6913440A460E
:103BB0001A707B6919460A4808F006FDBB69194668
:103BC000084808F001FD7B685BB218462037BD4607
:103BD00080BD00BF50060200580602004C000020C5
:103BE000B4060200D806020080B58CB002AFF860BF
:103BF000B9607A603B6000233B620023FB610023D5
:103C0000BB6100237B61404B1B68002B0CBF012371
:103C10000023DBB2002B05D03C4808F0D5FC7B68C4
:103C20005BB26CE007F11C0107F1200207F11403FD
:103C3000019307F1180300930B463549B8680AF061
:103C400065F9034687F8273097F92730032B1BDDEA
:103C50003A6A2D4B1B68DA62FA692B4B1B681A63B0
:103C6000BA69294B1B685A637A69274B1B689A63A8
:103C7000396AFA69B8697B6900930346254808F0F8
:103C8000A3FC7B685BB23AE097F92730002B1BDD81
:103C90003A6A1D4B1B68DA623A6A1B4B1B681A634F
:103CA0003A6A194B1B685A633A6A174B1B689A6346
:103CB000396A3A6A386A3B6A00930346154808F045
:103CC00083FC7B685BB21AE00F4B1B68DB6A3B62CC
:103CD0000D4B1B681B6BFB610B4B1B685B6BBB616C
:103CE000094B1B689B6B7B61396AFA69B8697B6910
:103CF00000930346084808F067FC7B685BB21846EF
:103D00002837BD4680BD00BF4C000020E4060200FD
:103D100030070200400702006807020000000000B0
:103D20002DE9F043A1B00EAFF860B9607A603B6056
:103D30004FF000024FF00003C7E90A234FF00002E2
:103D40004FF00003C7E908234FF000024FF00003D3
:103D5000C7E906234FF000024FF00003C7E9042330
:103D600000237B6400233B640023FB630023BB63CD
:103D7000874B1B68002B0CBF01230023DBB2002BF9
:103D800005D0844808F020FC7B685BB28DE107F128
:103D9000200107F1280207F11003019307F118032E
:103DA00000930B467C49B8680AF0B0F8034687F8E0
:103DB0003730D7E90A014FF06042784B19F0EAFB3F
:103DC00002460B46104619464FF00002744B19F09C
:103DD000E1FB02460B46104619466BA3D3E90023CC
:103DE00019F002FD02460B461046194619F0AAFECC
:103DF00003467B64D7E908014FF06042674B19F036
:103E0000C9FB02460B46104619464FF00002644BB0
:103E100019F0C0FB02460B46104619465AA3D3E9D7
:103E2000002319F0E1FC02460B461046194619F032
:103E300089FE03463B64D7E906014FF06042574BC9
:103E400019F0A8FB02460B46104619464FF0000237
:103E5000534B19F09FFB02460B46104619464AA3E6
:103E6000D3E9002319F0C0FC02460B461046194660
:103E700019F068FE0346FB63D7E904014FF0604286
:103E8000464B19F087FB02460B46104619464FF089
:103E90000002434B19F07EFB02460B4610461946C2
:103EA00039A3D3E9002319F09FFC02460B461046C4
:103EB000194619F047FE0346BB6397F93730032BC9
:103EC0002DDD7A6C324B1B68DA623A6C304B1B6822
:103ED0001A63FA6B2E4B1B685A63BA6B2C4B1B6828
:103EE0009A63D7E90A89D7E90823D7E90601D7E910
:103EF0000445BE6B0C96CDE90A45FC6B0894CDE9F0
:103F00000601396C0491CDE902237B6C0093424693
:103F10004B46244808F058FB7B685BB2C5E097F934
:103F20003730002B40DD7A6C194B1B68DA627A6CF3
:103F3000174B1B681A637A6C154B1B685A637A6CB3
:103F4000134B1B689A63D7E90A89D7E90823D7E995
:103F50000601D7E90445BE6B0C96CDE90A45FC6B1A
:103F60000894CDE90601396C0491CDE902237B6CFC
:103F7000009342464B460B4808F026FB7B685BB239
:103F800093E000BFAFF30080FCA9F1D24D62104076
:103F90004C00002098070200E4070200FFFF6F4179
:103FA00000004E40F4070200454B1B68DB6A7B644F
:103FB000434B1B681B6B3B64414B1B685B6BFB6398
:103FC0003F4B1B689B6BBB63786C19F069FA3AA393
:103FD000D3E9002319F0DEFA02460B4610461946D3
:103FE0004FF06242374B19F0FFFB02460B46C7E920
:103FF0000A23386C19F054FA2FA3D3E9002319F0DF
:10400000C9FA02460B46104619464FF062422D4B44
:1040100019F0EAFB02460B46C7E90823F86B19F0D2
:104020003FFA25A3D3E9002319F0B4FA02460B4660
:10403000104619464FF06242224B19F0D5FB02465A
:104040000B46C7E90623B86B19F02AFA1AA3D3E97D
:10405000002319F09FFA02460B46104619464FF00E
:104060006242184B19F0C0FB02460B46C7E9042315
:10407000D7E90A89D7E90823D7E90601D7E9044532
:10408000BE6B0C96CDE90A45FC6B0894CDE90601A0
:10409000396C0491CDE902237B6C009342464B4678
:1040A000094808F091FA7B685BB218464C37BD4668
:1040B000BDE8F083AFF30080FCA9F1D24D6210405F
:1040C0004C000020FFFFCD4140080200000000002E
:1040D000F0B5A5B00AAFF860B9607A603B60002324
:1040E0007B669F4B1B68002B0CBF01230023DBB2B8
:1040F000002B05D09B4808F067FA7B685BB224E18F
:104100007B6E01337B667B6EDBB243F00103DAB278
:10411000934B1B68C8331A7007F128031846FFF742
:10412000EEF907F120031846FFF7E9F907F1180344
:104130001846FFF7E4F907F110031846FFF7DFF917
:10414000874B1B68DA6BBB6A62F31F03BB62844B4D
:104150001B681B6C3B6307F1300207F12803114613
:104160001846FFF7E5F97E4B1B685A6C3B6A62F311
:104170001F033B627A4B1B689B6C7B6307F1340225
:1041800007F1200311461846FFF7D2F9744B1B685C
:10419000DA6CBB6962F31F03BB61714B1B681B6D5B
:1041A000BB6307F1380207F1180311461846FFF701
:1041B000BFF96B4B1B685A6D3B6962F31F033B6190
:1041C000674B1B689B6DFB6307F13C0207F1100313
:1041D00011461846FFF7ACF9BB6A184619F070F99A
:1041E0005DA3D3E9002319F0D5F902460B46144626
:1041F0001D46B7F92E30184619F062F94FF000024B
:10420000594B19F0C7F902460B462046294619F0CA
:10421000EBFA02460B46C7E916233B6A184619F02B
:104220004FF94DA3D3E9002319F0B4F902460B4628
:1042300014461D46B7F92630184619F041F94FF0DB
:104240000002494B19F0A6F902460B4620462946C2
:1042500019F0CAFA02460B46C7E91423BB6918468F
:1042600019F02EF93CA3D3E9002319F093F9024683
:104270000B4614461D46B7F91E30184619F020F9B2
:104280004FF00002384B19F085F902460B462046E4
:10429000294619F0A9FA02460B46C7E912233B69E1
:1042A000184619F00DF92CA3D3E9002319F072F97F
:1042B00002460B4614461D46B7F91630184619F04B
:1042C000FFF84FF00002284B19F064F902460B4644
:1042D0002046294619F088FA02460B46C7E9102302
:1042E000B7F92E301E46BC6A3D6AB9693869D7E90C
:1042F0001023CDE90823D7E91223CDE90623D7E916
:104300001423CDE90423D7E91623CDE90223019034
:1043100000912B4622463146144808F055F907F122
:1043200028031846FFF720F907F120031846FFF786
:104330001BF907F118031846FFF716F907F11003E8
:104340001846FFF711F97B685BB218466C37BD461B
:10435000F0BD00BFAFF30080FCA9F1D24D62104068
:104360004C0000209408020000006041E0080200B8
:1043700080B586B000AFF860B9607A603B6000231A
:10438000FB7507F115031A462149B86809F0BEFD0F
:104390000346BB7597F91630002B28DD97F91530C9
:1043A000592B0FD097F91530792B0BD097F9153081
:1043B000542B07D097F91530742B03D097F915308B
:1043C000312B01D10123FB75FB7D002B01D059233B
:1043D00000E04E2319460F4808F0F6F80E4AFB7D20
:1043E0001370B8680AF078FA03465BB20CE00A4B27
:1043F0001B78002B01D0592300E04E2319460548B5
:1044000008F0E2F87B685BB218461837BD4680BDFD
:10441000540902005C0902008060002000000000D6
:1044200080B5A2B002AFF860B9607A603B6000234B
:10443000FB670023BB6700237B6700233B670023E8
:10444000FB660023BB664FF00002B94BC7E90623A9
:104450004FF00002B64BC7E9042307F1100307F140
:104460001802B449B86809F051FDD7E906014FF0C8
:1044700000024FF0000319F0FFFA0346002B05D0AD
:104480004FF000024FF00003C7E90623D7E9060109
:104490004FF00002A64B19F00DFB0346002B04D091
:1044A0004FF00002A24BC7E90623D7E9040198A305
:1044B000D3E9002319F0E0FA0346002B04D094A3BB
:1044C000D3E90023C7E90423D7E9040192A3D3E980
:1044D000002319F0EFFA0346002B04D08EA3D3E992
:1044E0000023C7E90423D7E90601D7E90423CDE96E
:1044F000002302460B46904808F066F8FB6F013334
:10450000FB67BA6F8D4B1B68DA627A6F8B4B1B6847
:104510001A633A6F894B1B685A63FA6E874B1B68A4
:104520009A63864B1B68DB6A7B66844B1B681B6B3C
:104530003B66824B1B685B6BFB65804B1B689B6B10
:10454000BB65BB6D0093FB6D3A6E796E7C4808F0DD
:104550003BF8F96F7B4BA3FB01235A0913461B0160
:104560009B1A9B00CA1A104618F09AFF4FF00002DF
:10457000754B19F00FF802460B46C7E914234FF0AC
:104580000002724BD7E9140119F02EF902460B46CE
:104590001046194662A3D3E9002318F0FBFF024638
:1045A0000B46C7E912234FF00002694BD7E914010B
:1045B00018F03AFE02460B46104619464FF000022C
:1045C000624B19F011F902460B461046194654A3E6
:1045D000D3E9002318F0DEFF02460B46C7E910239B
:1045E0004FF000025B4BD7E9140118F01DFE0246A4
:1045F0000B46104619464FF00002544B19F0F4F8E0
:1046000002460B461046194645A3D3E9002318F08D
:10461000C1FF02460B46C7E90E23D7E9120119F084
:1046200037FD4FF00002424B18F0FEFD02460B46EC
:10463000104619464FF000024FF0804319F0D4F8AD
:1046400002460B4610461946D7E9062318F0A2FF8A
:1046500002460B46C7E90C23D7E9100119F018FDF3
:104660004FF00002324B18F0DFFD02460B461046B9
:1046700019464FF000024FF0804319F0B5F802469A
:104680000B4610461946D7E9062318F083FF024669
:104690000B46C7E90A23D7E90E0119F0F9FC4FF0E0
:1046A0000002234B18F0C0FD02460B461046194687
:1046B0004FF000024FF0804319F096F802460B4687
:1046C00010461946D7E9062318F064FF02460B4648
:1046D000C7E9082314A3D3E90023D7E90C0118F094
:1046E00059FF02460B461046194619F02BFA0346AD
:1046F000BB670DA3D3E90023D7E90A0118F04AFFED
:1047000002460B461046194626E000BFAFF3008074
:10471000FCA9F1D24D62503F000000000088C34068
:104720001F85EB51B81E194000000000E0FFEF406C
:104730000000F03F7C090200840902004C000020C8
:10474000AC09020089888888000018400080764003
:1047500000005E4000006E4019F0F4F903467B67EC
:104760001FA3D3E90023D7E9080118F013FF02467D
:104770000B461046194619F0E5F903463B6718A3A6
:10478000D3E90023D7E9080118F004FF02460B46DD
:104790001046194619F0D6F90346FB66FB6FB3F5D0
:1047A0007A7F04D9B96E104807F00EFF11E0D7E9FF
:1047B00004014FF000020D4B18F0ECFE02460B46D0
:1047C0001046194619F0BEF903461846FCF734F9AD
:1047D00094E67B685BB218468037BD4680BD00BF5B
:1047E00000000000E0FFEF40C009020000408F40E1
:1047F000B0B592B006AFF860B9607A603B60002354
:10480000FB620023BB6200237B6200233B62674B99
:104810001B68002B0CBF01230023DBB2002B05D04B
:10482000634807F0D1FE7B685BB2BBE04FF000024B
:104830004FF00003C7E906234FF000024FF00003DA
:10484000C7E9042307F1100307F118025949B868B2
:1048500009F05CFBD7E906014FF000024FF00003BE
:1048600019F00AF90346002B05D04FF000024FF073
:104870000003C7E90623D7E906014FF000024E4BBB
:1048800019F018F90346002B04D04FF000024A4BF0
:10489000C7E90623D7E904014FF000024FF00003F7
:1048A00019F0EAF80346002B05D04FF000024FF054
:1048B0000003C7E90423D7E904014FF000023E4B8F
:1048C00019F0F8F80346002B04D04FF000023A4BE1
:1048D000C7E90423D7E906014FF06042374B18F0CF
:1048E00059FE02460B461046194619F02BF90346AD
:1048F000FB62D7E904014FF06042304B18F04AFEEA
:1049000002460B461046194619F01CF903467B6215
:10491000FA6A264B1B68DA62244B1B68284A1A6322
:104920007A6A224B1B685A63204B1B68244A9A639D
:10493000234B00937B6A224AF96A224807F044FE1F
:104940001A4B1B68DB6AFB62184B1B681B6BBB6254
:10495000164B1B685B6B7B62144B1B689B6B3B624B
:10496000D7E906014FF00002174B18F013FE02467C
:104970000B4614461D46D7E904014FF00002124BC6
:1049800018F008FE02460B46CDE90423CDE90245A6
:104990003B6A00937B6ABA6AF96A0C4807F014FE16
:1049A0007B685BB218463037BD46B0BD4C00002076
:1049B000E40902007C0902000000F03FFFFF6941AA
:1049C000FFFFCF002C0A020000005940540A0200E9
:1049D00080B58EB000AFF860B9607A603B6007F1D7
:1049E000200310220021184609F0F4FB2A4BBB6279
:1049F0004FF000024FF00003C7E9082300237B6358
:104A000090228C21254807F0DFFDBB68013304228A
:104A10002349184609F096FC0346002B0FD1214B81
:104A20001B685522C3F88C201F4B1B685B68184617
:104A300008F09CFF796B1D4807F0C6FD00BF0023FE
:104A40007B61E123BB610023FB61164B1B68002BDC
:104A500014BF01230023DBB2002B07D0114B1B68CE
:104A60001B687B610F4B1B685B68FB610C21104866
:104A700007F0AAFD07F114031846FEF779FE0D486A
:104A800007F0A2FD0C4807F09FFD7B685BB218465B
:104A90003837BD4680BD00BF40420F00900A02007B
:104AA000A80A02004C00002094000020C009020067
:104AB000B00A0200DC0A0200E00A02000000000066
:104AC00080B59EB002AFF860B9607A603B600023A9
:104AD0007B6200233B620023FB610023BB6107F183
:104AE00014031846FEF70EFE834B1B68002B0CBF09
:104AF00001230023DBB2002B05D0804807F064FDC2
:104B00007B685BB2EEE007F1200107F1240207F1B8
:104B10001803019307F11C0300930B467849B8680A
:104B200009F0F4F9034687F86F3097F96F30032BDB
:104B300019DD7B6ADBB23B753B6ADBB27B75FB69D7
:104B4000DBB2BB75BB69DBB2FB757A696A4B1B686C
:104B50001A67796A3A6AF869BB690093034669483B
:104B600007F032FD1CE097F96F30002B18DD7B6AEF
:104B7000DBB23B757B6ADBB27B757B6ADBB2BB75F4
:104B80007B6ADBB2FB757A695B4B1B681A67796AD3
:104B90007A6A786A7B6A009303465A4807F014FDE4
:104BA000554B1B681B6FFB6207F12C0207F12803B2
:104BB00011461846FEF7B3FDBB6A7B613B7D7B6205
:104BC0007B7D3B62BB7DFB61FB7DBB61796A3A6AA1
:104BD000F869BB69009303464B4807F0F5FC44A312
:104BE000D3E90023C7E918237B6A0133FB653B6ADD
:104BF0000133BB65FB6901337B65BB6901333B65F1
:104C0000F86D18F04DFC02460B46D7E9180118F074
:104C1000EBFD02460B46104619464FF000023B4B97
:104C200018F0E2FD02460B46C7E91223B86D18F0F2
:104C300037FC02460B46D7E9180118F0D5FD0246AD
:104C40000B46104619464FF00002304B18F0CCFDD1
:104C500002460B46C7E91023786D18F021FC024686
:104C60000B46D7E9180118F0BFFD02460B46104667
:104C700019464FF00002254B18F0B6FD02460B46D0
:104C8000C7E90E23386D18F00BFC02460B46D7E936
:104C9000180118F0A9FD02460B46104619464FF0C0
:104CA00000021A4B18F0A0FD02460B46C7E90C2380
:104CB000D7E91223F96D164807F086FCD7E91023CF
:104CC000B96D144807F080FCD7E90E23796D1248BE
:104CD00007F07AFCD7E90C23396D104807F074FC13
:104CE0007B685BB218467037BD4680BDAFF300806D
:104CF00000000000965198414C000020FC0A020080
:104D00004C0B02005C0B0200900B020000003040D4
:104D1000C80B0200140C0200600C0200B00C020070
:104D200080B592B002AFF860B9607A603B6007F17D
:104D300028031846FEF744FC07F124031846FEF743
:104D400075FC00233B620023FB61444B1B68002B76
:104D50000CBF01230023DBB2002B05D0404807F035
:104D600033FC7B685BB274E007F11C0107F12002A1
:104D700007F11403019307F1180300930B46394917
:104D8000B86809F0C3F8034687F83F3097F93F3019
:104D9000012B14DD3B6A9BB23B85FB699BB27B8593
:104DA000314807F011FC07F128031846FEF724FCF0
:104DB0002E4807F009FCBA6A284B1B685A6297F91B
:104DC0003F30032B14DDBB699BB2BB847B699BB274
:104DD000FB84274807F0F8FB07F124031846FEF789
:104DE00041FC224807F0F0FB7A6A1C4B1B689A6270
:104DF0001A4B1B685B6A3B6307F1300207F12C0317
:104E000011461846FEF7E9FBFB6ABB62134B1B68B1
:104E10009B6ABB6307F1380207F134031146184659
:104E2000FEF711FC7B6B7B62124807F0CDFB07F1AC
:104E300028031846FEF7E0FB0F4807F0C5FB07F113
:104E400024031846FEF70EFC084807F0BDFB7B68FC
:104E50005BB218464037BD4680BD00BF4C00002005
:104E6000000D02004C0B0200500D0200DC0A020093
:104E7000740D02009C0D0200BC0D020080B584B0D0
:104E800000AFF860B9607A603B60064807F09CFBB1
:104E9000054807F099FB7B685BB218461037BD46A2
:104EA00080BD00BFC00D02004006020080B58CB07E
:104EB00002AFF860B9607A603B6000233B62002378
:104EC00087F8273007F1180107F1200207F11703CF
:104ED00000930B465249B86809F018F8034687F862
:104EE000263097F92630032B57DD97F91730592BC9
:104EF0000FD097F91730792B0BD097F91730542B27
:104F000007D097F91730742B03D097F91730312B4E
:104F100002D1012387F82730396A97F82730002B10
:104F200001D0592300E04E231A463E4807F04CFBBF
:104F30003B6A032B26D801A252F823F04D4F000004
:104F40005B4F0000694F0000774F000097F8273053
:104F500019463548FEF7F2FB19E097F82730194655
:104F60003248FEF7EBFB12E097F82730194630483D
:104F7000FEF7E4FB0BE097F8273019462D48FEF7C3
:104F8000DDFB04E03B6A19462B4807F01DFBB868BF
:104F900009F0A2FC03465BB23EE097F926301946C1
:104FA000264807F011FB2048FEF7D6FB0346002BEE
:104FB00001D0592300E04E231946214807F004FB95
:104FC0001A48FEF7C9FB0346002B01D0592300E025
:104FD0004E2319461B4807F0F7FA1548FEF7BCFBAD
:104FE0000346002B01D0592300E04E2319461648F2
:104FF00007F0EAFA0F48FEF7AFFB0346002B01D09B
:10500000592300E04E231946104807F0DDFAB8682E
:1050100009F062FC03465BB218462837BD4680BDE6
:10502000E80D0200F80D0200F01A0020081B002015
:10503000201B0020381B00202C0E0200640E0200F2
:10504000B40E0200E40E0200140F0200440F02002E
:1050500080B5A2B010AFF860B9607A603B6007F12C
:1050600028031846FEF798FB002387F847300023F3
:1050700087F84630002387F84530002387F844300E
:10508000002387F84330002387F84230002387F855
:105090004130002387F84030002387F83F30002359
:1050A00087F83E30002387F83D30002387F83C30F6
:1050B000002387F83B30002387F83A30002387F835
:1050C0003930002387F83830002387F83730074B12
:1050D0001B68002B0CBF01230023DBB2002B09D07F
:1050E000034807F071FA7B685BB273E24C00002062
:1050F000740F020007F1260107F1270207F11703D9
:105100000E9307F118030D9307F119030C9307F1A0
:105110001A030B9307F11B030A9307F11C0309936E
:1051200007F11D03089307F11E03079307F11F03FF
:10513000069307F12003059307F12103049307F178
:105140002203039307F12303029307F1240301933E
:1051500007F1250300930B46B149B86808F0D6FE65
:10516000034687F8363097F93630002B40F3178224
:1051700097F92730592B0FD097F92730792B0BD07F
:1051800097F92730542B07D097F92730742B03D089
:1051900097F92730312B02D1012387F8473097F94F
:1051A0002630592B0FD097F92630792B0BD097F951
:1051B0002630542B07D097F92630742B03D097F95B
:1051C0002630312B02D1012387F8463097F925305C
:1051D000592B0FD097F92530792B0BD097F9253023
:1051E000542B07D097F92530742B03D097F925302D
:1051F000312B02D1012387F8453097F92430592B00
:105200000FD097F92430792B0BD097F92430542BF9
:1052100007D097F92430742B03D097F92430312B21
:1052200002D1012387F8443097F92330592B0FD04E
:1052300097F92330792B0BD097F92330542B07D0D3
:1052400097F92330742B03D097F92330312B02D1F7
:10525000012387F8433097F92230592B0FD097F963
:105260002230792B0BD097F92230542B07D097F9A5
:105270002230742B03D097F92230312B02D1012335
:1052800087F8423097F92130592B0FD097F9213008
:10529000792B0BD097F92130542B07D097F9213077
:1052A000742B03D097F92130312B02D1012387F8D9
:1052B000413097F92030592B0FD097F92030792BB6
:1052C0000BD097F92030542B07D097F92030742B4E
:1052D00003D097F92030312B02D1012387F84030D9
:1052E00097F91F30592B0FD097F91F30792B0BD01E
:1052F00097F91F30542B07D097F91F30742B03D028
:1053000097F91F30312B02D1012387F83F3097F9ED
:105310001E30592B0FD097F91E30792B0BD097F9EF
:105320001E30542B07D097F91E30742B03D097F9F9
:105330001E30312B02D1012387F83E3097F91D3002
:10534000592B0FD097F91D30792B0BD097F91D30C1
:10535000542B07D097F91D30742B03D097F91D30CB
:10536000312B02D1012387F83D3097F91C30592B9E
:105370000FD097F91C30792B0BD097F91C30542B98
:1053800007D097F91C30742B03D097F91C30312BC0
:1053900002D1012387F83C3097F91B30592B0FD0ED
:1053A00097F91B30792B0BD097F91B30542B07D072
:1053B00097F91B30742B03D097F91B30312B02D196
:1053C000012387F83B3097F91A30592B0FD097F902
:1053D0001A30792B0BD097F91A30542B07D097F944
:1053E0001A30742B03D097F91A30312B02D10123D4
:1053F00087F83A3097F91930592B13D097F91930AB
:10540000792B0FD097F91930542B0BD097F919300D
:10541000742B07D097F91930312B06D102E000BF69
:10542000B00F0200012387F8393097F91830592B53
:105430000FD097F91830792B0BD097F91830542BDF
:1054400007D097F91830742B03D097F91830312B07
:1054500002D1012387F8383097F91730592B0FD034
:1054600097F91730792B0BD097F91730542B07D0B9
:1054700097F91730742B03D097F91730312B02D1DD
:10548000012387F8373097F8293097F8472062F3DF
:10549000451387F8293097F8293097F8462062F3AA
:1054A000861387F8293097F8293097F8452062F35A
:1054B000C71387F8293097F82B3097F8442062F308
:1054C000861387F82B3097F82B3097F8432062F338
:1054D000C71387F82B3097F82A3097F8422062F3E9
:1054E000000387F82A3097F82A3097F8412062F3B2
:1054F000410387F82A3097F82A3097F8402062F362
:10550000820387F82A3097F82A3097F83F2062F311
:10551000C30387F82A3097F82A3097F83E2062F3C1
:10552000041387F82A3097F82A3097F83D2062F361
:10553000861387F82A3097F82B3097F83C2062F3CF
:10554000000387F82B3097F82B3097F83B2062F355
:10555000410387F82B3097F82B3097F83A2062F305
:10556000820387F82B3097F82B3097F8392062F3B5
:10557000C30387F82B3097F82B3097F8382062F365
:10558000041387F82B3097F82B3097F8372062F305
:10559000451387F82B30BA6A104B1B681A620F4B01
:1055A0001B681B6A3B6307F1300207F12C031146AD
:1055B0001846FEF7FEF8FB6ABB62094807F004F8DC
:1055C00007F128031846FEF703F9B86809F084F9D3
:1055D00003465BB218464837BD4680BD4C000020EC
:1055E000F40F020080B58CB000AFF860B9607A604B
:1055F0003B6007F118031846FEF7CEF83D4B1B68D9
:10560000002B0CBF01230023DBB2002B05D03A484E
:1056100006F0DAFF7B685BB267E0002387F82F3083
:1056200007F117031A463549B86808F06FFC0346BE
:1056300087F82E3097F92E30002B3BDD97F9173085
:10564000592B0FD097F91730792B0BD097F91730CA
:10565000542B07D097F91730742B03D097F91730D4
:10566000312B02D1012387F82F30224B1B681B6A94
:105670003B6207F1200207F11C0311461846FEF7B2
:1056800098F8FB69BB61FB7E97F82F2062F3C30398
:10569000FB76BA69174B1B681A6297F82F30002BFC
:1056A00001D0312300E0302397F917201946144820
:1056B00006F08AFF0F4B1B681B6ABB6207F12802CA
:1056C00007F1240311461846FEF773F87B6ABB61A5
:1056D000FB7EC3F3C003DBB219460A4806F074FF31
:1056E000B86809F0F9F803465BB218463037BD4692
:1056F00080BD00BF4C0000202010020050100200AE
:10570000541002007010020080B58CB000AFF86039
:10571000B9607A603B6007F118031846FEF73CF861
:10572000444B1B68002B0CBF01230023DBB2002B72
:1057300005D0414806F048FF7B685BB276E0002365
:1057400087F82F3007F117031A463C49B86808F06C
:10575000DDFB034687F82E3097F92E30002B4ADD0B
:1057600097F91730592B0FD097F91730792B0BD0A9
:1057700097F91730542B07D097F91730742B03D0B3
:1057800097F91730312B02D1012387F82F30294B9D
:105790001B681B6A3B6207F1200207F11C031146DC
:1057A0001846FEF706F8FB69BB6197F82F30002B0F
:1057B00008D0FB7E23F00203FB76FB7E43F004035C
:1057C000FB7607E0FB7E43F00203FB76FB7E23F0D3
:1057D0000403FB76BA69174B1B681A6297F82F30DF
:1057E000002B01D0312300E0302397F91720194610
:1057F000134806F0E9FE0F4B1B681B6ABB6207F1FA
:10580000280207F1240311461846FDF7D2FF7B6AF0
:10581000BB61FB7EC3F38003DBB21946094806F087
:10582000D3FEB86809F058F803465BB21846303723
:10583000BD4680BD4C0000209410020050100200B4
:10584000C8100200E410020080B586B000AFF86016
:10585000B9607A603B6000233B611B4B1B68002BE7
:105860000CBF01230023DBB2002B05D0174806F044
:10587000ABFE7B685BB222E007F110031A461449C5
:10588000B86808F043FB0346FB7597F91730002B07
:1058900009DD3B693A6919460E4806F095FE3A69FA
:1058A000094B1B689A61084B1B689B693B613B690C
:1058B0003A691946084806F087FE7B685BB21846CD
:1058C0001837BD4680BD00BF4C0000200811020003
:1058D00054110200581102008811020080B58AB0EC
:1058E00000AFF860B9607A603B6007F118031846B2
:1058F000FDF7D2FE00237B61274B1B68002B0CBFFA
:1059000001230023DBB2002B05D0244806F05CFE07
:105910007B685BB23CE007F114031A462049B86883
:1059200008F0F4FA034687F8273097F92730002B60
:1059300012DD7B699BB23B831A4806F045FE07F1F6
:1059400018031846FDF7C4FE174806F03DFEBA6975
:10595000114B1B68C3F8CC200F4B1B68D3F8CC301D
:105960003B6207F1200207F11C0311461846FDF7C0
:10597000A0FEFB69BB610D4806F026FE07F1180387
:105980001846FDF7A5FE084806F01EFE7B685BB2D0
:1059900018462837BD4680BD4C000020B0110200DB
:1059A0005411020004120200DC0A0200301202004C
:1059B00080B485B000AFF860B9607A603B60FB6886
:1059C000BA681A60FB687A685A60FB683A689A603D
:1059D000FB6818461437BD4680BC704798B500AFC9
:1059E0002C4C2D4B2D4A41F201012046FFF7E0FFE0
:1059F0000C34294B2A4A01212046FFF7D9FF0C34E9
:105A0000284B294A42F202012046FFF7D1FF0C340D
:105A1000264B274A42F203012046FFF7C9FF0C3408
:105A2000244B254A42F204012046FFF7C1FF0C3403
:105A3000224B234A42F205012046FFF7B9FF0C34FE
:105A4000204B214A42F206012046FFF7B1FF0C34F9
:105A50001E4B1F4A42F207012046FFF7A9FF0C34F4
:105A60001C4B1D4A42F208012046FFF7A1FF0C34EF
:105A70001A4B1B4A42F209012046FFF799FF04F135
:105A80000C00184B184A42F20A01FFF791FF00BFC1
:105A900098BD00BF641A002039610000881302001D
:105AA000A0130200B5610000C4130200556200009B
:105AB000DC13020031630000F413020021650000D2
:105AC00018140200E16700003C140200916E00000F
:105AD00054140200256F000070140200B96F00001A
