:1000000000000120910100007F0300006105000055
:100010008303000073050000850500000000000058
:100020000000000000000000000000008903000044
:100030008B030000000000008D0300008F03000010
:100040009103000093030000950300009703000054
:10005000990300009B0300009D0300009F03000024
:10006000A1030000A3030000A5030000A7030000F4
:10007000A9030000AB030000AD030000AF030000C4
:10008000B1030000B3030000B5030000B703000094
:10009000B9030000BB030000BD030000BF03000064
:1000A000C1030000C3030000C5030000C703000034
:1000B000C9030000CB030000CD030000CF03000004
:1000C000D1030000D3030000D5030000D7030000D4
:1000D000D9030000DB030000DD030000DF030000A4
:1000E000E1030000E3030000E5030000E703000074
:1000F000E9030000EB030000ED030000EF03000044
:10010000F1030000F3030000F5030000F703000013
:10011000F9030000FB030000FD030000FF030000E3
:1001200001040000030400000504000007040000AF
:10013000090400000B0400000D0400000F0400007F
:10014000110400001304000015040000170400004F
:10015000190400001B0400001D0400001F0400001F
:1001600021040000230400002504000027040000EF
:10017000290400002B0400002D0400002F040000BF
:100180003104000033040000000000000000000003
:100190004FF0000BDFF8BE020068DFF8B612096806
:1001A00001F0030100F01C00142801D14BF0020BF8
:1001B000002901D04BF0010BBBF1000F05D0A7487F
:1001C000A749DFF8722200F09FF8A64880470BF09D
:1001D000020ABAF1000F0CD0DFF86E02DFF86E12DF
:1001E00002680B680FB44FF000024FF0FF0302608B
:1001F0000B609D484FF000024FF00103022808D128
:10020000DFF83A120A60DFF83E120A60DFF83212B5
:100210000B60012808D1DFF82A120A60DFF82612E5
:100220000A60DFF81A120B609048002809D1904844
:100230009049914A00F030F890489149914A00F075
:100240002BF891489149924A00F026F8914892493A
:10025000DFF8E22100F058F8BBF1000F10D08F4812
:100260008F49DFF8D62100F04FF80BF0020ABAF1FF
:10027000000F05D00FBC02600B6000BFAFF3008021
:10028000DFF820020FF2030E00474FF000004FF09E
:100290000001DFF814F2FEE72DE9F841884225D08D
:1002A000B2EB010200D5FEE740EA010313F00303BD
:1002B00002D000F01DF819E04FF000039046121133
:1002C000F7D09A421CBFF0C8F0C103F10103F8D186
:1002D00008F00F08B8F1000F08D004780C7000F196
:1002E000010001F10101B8F10108F6D1BDE8F88182
:1002F00008B54FF0000303780B7000F1010001F125
:100300000101013AF7D108BD884237D000F0030659
:10031000002E14D04FF00405A5EB06044FF008079B
:1003200007FB06F8914669FA08F9002C07D080F817
:10033000009069FA07F900F10100013CF5E74FF080
:1003400000060F46091A88460911914614461546BB
:10035000B14206D018BFA0E8340206F10106B1424E
:10036000F8D108F00F08B8F1000F07D002704FEA7B
:10037000322200F10100B8F10108F4E77047FEE70E
:10038000FEE7FEE7FEE7FEE7FEE7FEE7FEE7FEE745
:10039000FEE7FEE7FEE7FEE7FEE7FEE7FEE7FEE735
:1003A000FEE7FEE7FEE7FEE7FEE7FEE7FEE7FEE725
:1003B000FEE7FEE7FEE7FEE7FEE7FEE7FEE7FEE715
:1003C000FEE7FEE7FEE7FEE7FEE7FEE7FEE7FEE705
:1003D000FEE7FEE7FEE7FEE7FEE7FEE7FEE7FEE7F5
:1003E000FEE7FEE7FEE7FEE7FEE7FEE7FEE7FEE7E5
:1003F000FEE7FEE7FEE7FEE7FEE7FEE7FEE7FEE7D5
:10040000FEE7FEE7FEE7FEE7FEE7FEE7FEE7FEE7C4
:10041000FEE7FEE7FEE7FEE7FEE7FEE7FEE7FEE7B4
:10042000FEE7FEE7FEE7FEE7FEE7FEE7FEE7FEE7A4
:10043000FEE7FEE7704700000000A2A2A2A2008033
:100440000340088003401080034030800340348024
:1004500003403880034018080240000000F00020EC
:10046000000001209D0500000000000000000000C9
:10047000000000000000000090010000B004000037
:10048000B004000048B4020050B402000000002094
:100490007008002070080020806500208065002022
:1004A00000F000202DE20000A1CA000000000000C2
:1004B00010B5054C237833B9044B13B10448AFF39E
:1004C00000800123237010BD700800200000000090
:1004D000CCB3020008B5034B1BB103490348AFF38B
:1004E000008008BD0000000074080020CCB30200AA
:1004F000A3F5803A704700BF154B002B08BF114B86
:100500009D46FFF7F5FF00218B460F461148124A22
:10051000121A0DF0C3FC0C4B002B00D098470B4B6C
:10052000002B00D098470020002104000D000B484C
:100530000CF09EFF0DF07AFE200029000CF0B0FABE
:100540000CF09CFF0000080000000000000000000C
:100550000000000070080020806500207DE200009F
:100560001EF0040F0CBFEFF30880EFF309800CF0CE
:100570004FB91EF0040F0CBFEFF30880EFF30980B2
:100580000CF090B91EF0040F0CBFEFF30880EFF3EE
:1005900009800CF0B7B90138FDD1704780B500AFC4
:1005A00000F0FAF8044B5B69034A43F400735361AB
:1005B000FFF740FF00BF80BD00ED00E080B588B0D0
:1005C00000AF314BD3F8983003F08063FB61FB69D7
:1005D000002B4ED12C4BD3F8983003F480537B6121
:1005E0007B69002B15D1294B294A1A60294B284ACF
:1005F0001A60294B264A1A60284B294A1A60294B4F
:10060000234A1A60284B224A1A60284B204A1A6053
:1006100036E0274A3B1D92E8030083E803001A4BAB
:10062000D3F89C309B0903F007033B613A1D3B69FB
:1006300013441B78FB73FB7B022B12D0022B14DCC0
:10064000002B02D0012B07D00FE000F035F8B86185
:10065000B86900F04FF813E04FF4004000F04AF89A
:100660000EE0144800F046F80AE0124800F042F8A4
:1006700006E000F021F8B861B86900F03BF8FFE748
:1006800000BF2037BD4680BD00800340040000202D
:1006900080651406080000200C00002010000020D7
:1006A0006019850114000020180000201C000020A3
:1006B000F4EF010040420F0080B483B000AF0A4B5A
:1006C000D3F8503103F004033B603B68002B02D1A8
:1006D000064B7B6001E0064B7B607B6818460C375D
:1006E000BD4680BC704700BF0080034040787D015C
:1006F00080F0FA0280B483B000AF78600C4A7B6867
:1007000013600C4A7B6813600B4A7B6813600B4BC9
:100710000B4A1A600B4A7B6813600B4A7B681360B4
:100720000A4A7B68136000BF0C37BD4680BC704727
:1007300004000020080000200C0000201000002011
:100740006019850114000020180000201C00002002
:1007500080B483B000AF0E4BD3F84C313B603B68A4
:100760004FF60202934204D03B680A4A934203D0F8
:1007700005E001237B6005E002237B6002E00023AB
:100780007B6000BF7B6818460C37BD4680BC704755
:100790000080034002F8010080B582B000AFFFF78F
:1007A000D7FF78607B68012B02D100F007F800E0EA
:1007B00000BF00BF0837BD4680BD000080B400AF59
:1007C000094BD3F89830084A43F48073C2F8983044
:1007D000054BD3F89830044A23F08063C2F8983070
:1007E00000BFBD4680BC70470080034080B483B02A
:1007F00000AF78604FF0FF3318460C37BD4680BC21
:10080000704780B584B000AFF860B9607A600DF0D1
:1008100007FD03460C221A604FF0FF3318461037CD
:10082000BD4680BD80B483B000AF786000BFFDE7F7
:1008300080B500AF0DF0F4FC03460B221A604FF0B8
:10084000FF33184680BD80B483B000AF7860396054
:100850003B684FF400525A60002318460C37BD46DF
:1008600080BC704780B400AF01231846BD4680BCF1
:10087000704780B483B000AF7860012318460C370E
:10088000BD4680BC704780B582B000AF78603960EB
:100890000DF0C6FC034616221A604FF0FF331846CF
:1008A0000837BD4680BD80B582B000AF7860396042
:1008B0000DF0B6FC03461F221A604FF0FF331846B6
:1008C0000837BD4680BD80B485B000AFF860B96020
:1008D0007A60002318461437BD4680BC704780B448
:1008E00085B000AFF860B9607A604FF0FF3318460A
:1008F0001437BD4680BC704780B485B000AFF86047
:10090000B9607A60002318461437BD4680BC704732
:1009100080B485B000AFF860B9607A603B600023B6
:1009200018461437BD4680BC7047000080B586B0BD
:1009300000AF78601F4B1B68002B02D11D4B1E4A75
:100940001A601C4B1B687B61EFF308833B61194BFA
:100950001B683A699A420FD9164B1A687B68134490
:100960003A699A421AD21923144A01210020FFF74A
:10097000CFFF0120FFF756FF114BFB600D4B1A68AC
:100980007B681344FA689A4208D219230D4A012160
:100990000020FFF7BDFF0120FFF744FF054B1A6859
:1009A0007B681344034A13607B6918461837BD46B9
:1009B00080BD00BF9008002080650020FCEF010092
:1009C00000F0002018F0010080B483B000AF786020
:1009D00039603B684FF400525A60002318460C37C8
:1009E000BD4680BC704780B483B000AF78604FF0E4
:1009F000FF3318460C37BD4680BC704780B582B0C7
:100A000000AF78600DF00CFC034602221A604FF034
:100A1000FF3318460837BD4680BD80B582B000AFB1
:100A200078600DF0FDFB03460A221A604FF0FF3399
:100A300018460837BD4680BD2DE9B04384B000AFED
:100A400078607B68002298469146104BD3E90023DA
:100A500002FB09F008FB03F10144A8FB02454B1916
:100A60001D460B4A4FF00003204629461CF0B6FFF6
:100A700002460B4613460133FB60F868FFF78BFD17
:100A800000BF1037BD46BDE8B08300BF8000002026
:100A900040420F0080B582B000AF78607B684FF4B1
:100AA0007A7202FB03F31846FFF7C6FF00BF083750
:100AB000BD4680BD80B582B000AF78607B684FF4E2
:100AC0007A7202FB03F31846FFF7E4FF00BF083712
:100AD000BD4680BD80B485B000AF786039604FF00E
:100AE000FF33FB603B68BB6012E07B681B781A46F3
:100AF000FB681B0E53400B4A52F82320FB681B0275
:100B00005340FB607B6801337B60BB68013BBB608B
:100B1000BB68002BE9D1FB68DB4318461437BD46A0
:100B200080BC70472CF0010080B500AF30480BF05E
:100B30005FFC304B1B6819462F480BF059FC2F4BBC
:100B40001B6819462E480BF053FC2E4B1B681946A8
:100B50002D480BF04DFC2D4B1B6819462C480BF013
:100B600047FC2C4B1B6819462B480BF041FC2B4BC8
:100B70001B6819462A480BF03BFC2A4B1B68194698
:100B800029480BF035FC294B1B68194628480BF007
:100B90002FFC284B1B68194627480BF029FC274BD4
:100BA0001B68194626480BF023FC264B1B68194688
:100BB00025480BF01DFC254B1B68194624480BF0FB
:100BC00017FC244B1B68194623480BF011FC234BE0
:100BD0001B68194622480BF00BFC224B1B68194678
:100BE00021480BF005FC21480BF002FC00BF80BD42
:100BF0002CF401000000000044F40100900100000A
:100C000064F40100B004000080F4010048B4020064
:100C100098F4010040B40200ACF4010048B40200B2
:100C2000C4F4010000000020DCF401007008002082
:100C3000F4F401007008002008F501008065002030
:100C400020F501008065002030F5010000F0002053
:100C50004CF5010000F0002060F5010000000120CB
:100C60007CF501008065002090F50100A0F50100F1
:100C700080B584B000AFF860B9607A603B603B68D3
:100C800018687B68BA68F968984702463B681A603A
:100C90003B681B68002B02D14FF0FF3300E00023BC
:100CA00018461037BD4680BD80B586B000AFF860ED
:100CB000B9607A603B6014E0BB68102B28BF10233A
:100CC0007B613B687A687969F868FFF7D1FF034672
:100CD000002B02DA4FF0FF3307E0BA687B69D31AC2
:100CE000BB60BB68002BE7D1002318461837BD4610
:100CF00080BD000080B586B000AFF860B9607A6052
:100D00003B6000237B617B68002B0BD0BB68FA68DB
:100D100079683048FFF7C8FF0346002B02DA4FF02E
:100D2000FF3353E07A697B6813447B613B68002B97
:100D300012D03B6A002B0FD0BB68FA68396A38685A
:100D4000FFF796FF0346002B02DA4FF0FF333DE03A
:100D50007A693B6A13447B617B6A002B0BD0BB68CA
:100D6000FA68796A1C48FFF79FFF0346002B02DAF6
:100D70004FF0FF332AE07A697B6A13447B61FB6A98
:100D8000002B0BD0BB68FA68F96AB86AFFF770FFEE
:100D90000346002B02DA4FF0FF3317E07A69FB6A53
:100DA00013447B613B6B002B0BD0BB68FA68396B3B
:100DB0000848FFF779FF0346002B02DA4FF0FF33B4
:100DC00004E07A693B6B13447B617B6918461837F2
:100DD000BD4680BDA4F50100B8F5010080B489B01E
:100DE00000AFF860B9607A603B600023FB610023CC
:100DF000BB6100237B61FB689B681A46BB6893421A
:100E000005D2FB689B681A46BB68D31A7B61FB68F6
:100E10005B6803F00403002B02D07B69BB6101E037
:100E20007B69FB61FB685B6803F04003002B15D016
:100E3000FA69BB6913443B61FB685B6803F0040318
:100E4000002B0CBF01230023DBB21A463B6913447D
:100E50005B08FB613A69FB69D31ABB617B68002BB5
:100E600002D07B68FA691A603B68002B02D03B68AD
:100E7000BA691A6000BF2437BD4680BC70470000C5
:100E80002DE9B04FA0B000AFC7E912017A643B640E
:100E9000D7E91223C7E91C23D7E91C231446C3F35F
:100EA0001305C7E91845D7E91C234FF000004FF0A0
:100EB0000001180D00210346C3F30A03BB66D7E9FE
:100EC0001C234FF000004FF00001D80F0021034613
:100ED000FB66BA6E40F2FF739A4209D16FF000438D
:100EE000BB65FB6EFB65D7E91823C7E91423FFE058
:100EF000D7E9182313430DD1BB6E002B0AD1002371
:100F0000BB654FF000024FF00003C7E91423FB6EEE
:100F1000FB65EDE0FB6EFB65BB6E002B21D1012371
:100F2000BB664FF000024FF00003C7E91423002313
:100F3000BB650CE0D7E918239118B9615B41FB61EF
:100F4000D7E90623C7E91823BB6E013BBB66D7E987
:100F500018234FF0000A03F4002B5AEA0B03E9D0E0
:100F600006E075A3D3E90023C7E914230023BB657A
:100F700073A3D3E90023C7E91E23D7E918234FF051
:100F800000004FF00001190341EA12511003C7E9B4
:100F9000180131E0D7E91823002B0CDAD7E9140146
:100FA000D7E91E238418BC6341EB0303FB63D7E935
:100FB0000E34C7E91434D7E91823911839615B411D
:100FC0007B61D7E90423C7E91823D7E91E23511C05
:100FD000396343F100037B634FF000024FF00003DD
:100FE000D7E90C4521464A08204629460C4642EAE4
:100FF000C4724B08C7E91E23D7E918231343C9D18C
:10100000BB6EA3F2FF33BB6629E0D7E91423911826
:10101000B9605B41FB60D7E90223C7E91423D7E934
:10102000142341498A4241498B4115D3D7E91423FE
:10103000511DB96243F10003FB624FF00A024FF009
:101040000003D7E90A011CF0C9FC02460B46C7E9B8
:101050001423BB6D0133BB65BB6E013BBB66BB6E2E
:10106000002BD2DC41E0D7E9142331498A423149CF
:101070008B4120D2D7E9144522462B464FF0000081
:101080004FF00001990041EA9271900002460B4630
:1010900012EB040843EB050918EB08033B6049EB2E
:1010A00009037B60D7E9008942464B46C7E9142310
:1010B000BB6D013BBB65D7E91423511C396243F179
:1010C00000037B624FF000024FF00003D7E90845B0
:1010D00021464A08204629460C4642EAC4724B087B
:1010E000C7E91423BB6E0133BB66BB6E002BBADBB2
:1010F0007B6C002B02D0FA6D7B6C1A603B6C002B72
:1011000004D0D7E91423396CC1E90023D7F8A03003
:10111000002B03D0BA6DD7F8A0301A6000BF80371B
:10112000BD46BDE8B08F00BF0000C16FF28623004E
:1011300000008D49FD1A07000080C6A47E8D0300C3
:1011400000406352BFC6010080B586B000AFF860B2
:10115000C7E900233A6A7B6AD31A7B610EE0D7E9BC
:1011600000014FF00A024FF000031CF037FC02466A
:101170000B46C7E900237B69013B7B617B69002B40
:10118000EDDC7B6A7B6122E0D7E900014FF00A02C7
:101190004FF000031CF022FC13463B613B69DBB2BD
:1011A0003033D9B27B69013BFA6813444AB21A70F2
:1011B000D7E900014FF00A024FF000031CF00EFCCB
:1011C00002460B46C7E900237B69013B7B617B69D3
:1011D000002BD9D17B6A18461837BD4680BD000068
:1011E00080B590B006AFF8607A603B600B46FB724A
:1011F00000237B6100233B613B6C6FF00042934214
:1012000015D1D7E90E23134311D097F90B30662B74
:1012100007D097F90B30652B03D097F90B30672B6C
:1012200002D12F4B3B6213E02E4B3B6210E097F94B
:101230000B30662B07D097F90B30652B03D097F94D
:101240000B30672B02D1284B3B6201E0274B3B62FE
:10125000386A0DF08FF9F8613B6B002B02D0244BFC
:101260007B6219E03B6B002B08D1FB685B6803F0E5
:101270000203002B02D01F4B7B620DE03B6B002B67
:1012800008D1FB685B6803F00103002B02D01A4B06
:101290007B6201E0194B7B62786A0DF06BF9B861F3
:1012A000FA69BB69D11807F1100307F11402F86855
:1012B000FFF794FD7A693B690493FB6903933B6AEA
:1012C000029300230193BB6900937B6A39687868B5
:1012D000FFF710FD034618462837BD4680BD00BF06
:1012E000CCF50100D0F50100D4F50100D8F50100DE
:1012F000DCF50100E0F50100E4F50100E8F501008E
:101300002DE9B0438AB000AFF860B9607A603B6005
:1013100048A3D3E90023C7E908230023FB61BB6886
:101320001B68BB617B6C002B21D0BA693E4B83FBF1
:101330000231D317C91A0B465B000B44D31ABB61A9
:10134000BB69002B02DABB690333BB613B68002B2E
:101350000DD0BB681B68002BB8BF5B427B617B690B
:10136000182B04DD7B69183BBA691344BB613B68E9
:10137000002B0AD1BB69002B02DABB690133BB61C8
:10138000BB69002BB8BF5B42BB61BA697B68134481
:101390000133FB61FB6923EAE373FB610BE0D7E9EF
:1013A00008014FF00A024FF000031CF017FB024641
:1013B0000B46C7E90823FB695A1EFA61002BEED1E0
:1013C000FB68D3E90001D7E90823841841EB030542
:1013D000FB68C3E90045FB68D3E9002313498A424F
:1013E00013498B4118D3FB68D3E9002312F1050898
:1013F00043F100094FF00A024FF00003404649460E
:101400001CF0ECFA02460B46F968C1E90023BB6800
:101410001B685A1CBB681A6000BF2837BD46BDE870
:10142000B08300BFAFF30080565555550000C16F23
:10143000F28623000080E03779C3110080B5AAB09E
:1014400006AFF8607A603B600B46FB720023C7F87A
:101450008C300023C7F884300023C7F88030002385
:10146000BB6100237B610023FB670023BB67002374
:101470007B6700233B670023FB660023BB660023DA
:10148000BB6500237B6500233B650023FB7497F954
:101490000B30672B03D097F90B30472B23D1012357
:1014A0007B65FB685B6823F02002FB685A60D7F815
:1014B000A83013F1040F05DBFB68DA68D7F8A83011
:1014C0009A4208DC97F90B30672B01D1652300E0C5
:1014D0004523FB7207E097F90B30672B01D1662398
:1014E00000E04623FB7297F90B30662B03D097F987
:1014F0000B30462B01D101233B65FB68DB68002BD9
:1015000002DAFB680622DA607B6D002B06D0FB68EE
:10151000DB68002B02D1FB680122DA60D7F8983033
:10152000002B03D0AB4BC7F888301EE0D7F89830BB
:10153000002B09D1FB685B6803F00203002B03D08A
:10154000A54BC7F8883010E0D7F89830002B09D1A8
:10155000FB685B6803F00103002B03D09F4BC7F8C7
:10156000883002E09E4BC7F88830D7F888000DF02D
:1015700001F87863FB68DA68FB685B6803F02003B6
:1015800007F1A80107F1A00001937B6D00933B6D6B
:10159000FFF7B6FED7E92823134324D01023C7F85A
:1015A0008C301AE0D7E928014FF00A024FF000030F
:1015B0001CF014FA134315D1D7F88C30013BC7F84F
:1015C0008C30D7E928014FF00A024FF000031CF0DD
:1015D00005FA02460B46C7E92823D7F88C30002BC2
:1015E000E0D100E000BF3B6D002B37D0FB685B68AB
:1015F00003F02003002B2AD00823FB6419E0D7F85E
:10160000A830022B08DDFB6C0133FB64D7F8A8304F
:10161000033BC7F8A8300CE0D7F8A830002B0FDA4E
:10162000FB6C013BFB64D7F8A8300333C7F8A83044
:1016300000BFFB6C002B04DDFB6C0F2BDFD900E03F
:1016400000BF684AFB6C134493F90030FB74D7F871
:10165000A83043EAE37301337B6623E001237B6612
:10166000FB685B6803F02003002B1BD0D7F8A82091
:101670005D4B83FB0231D317C91A0B465B000B4449
:10168000D31ABB64BB6C002B02DABB6C0333BB64A4
:101690007A6EBB6C13447B66D7F8A820BB6CD31A58
:1016A000C7F8A830FB68DA68D7F88C107B6ECB1AC5
:1016B00023EAE3739342A8BF13463B663B6D002BBE
:1016C0003CD07B6D002B39D0D7E92823C7E9102304
:1016D000D7F88C30FB630EE0FB6B013BFB63D7E973
:1016E00010014FF00A024FF000031CF077F9024698
:1016F0000B46C7E910237A6E3B6E1344FA6B9A428D
:10170000EADC0EE0D7E910014FF00A024FF00003C7
:101710001CF064F902460B46C7E910233B6E013BFF
:101720003B663B6E002B09DDD7E910014FF00A0242
:101730004FF000031CF052F91343E3D07A6E7B6B39
:101740001A443B6E1344C7F880303B6D002B38D0F1
:101750007B6E002B06D10123FB67D7F88030013365
:10176000C7F880307A6ED7F88C309A4204DD7A6EF2
:10177000D7F88C30D31ABB67D7F8A830B3F1FF3F46
:1017800015DAFB68DB68002B11DDD7F8A830DB43E6
:101790007B67FB68DB681A467B6F934228BF134662
:1017A0007B67D7F880207B6F1344C7F8803097F9A8
:1017B0001330002B34D0D7F880300133C7F8803095
:1017C0002EE0D7F8A830002BB8BF5B42FB650023A2
:1017D000BB6516E0DCF50100E0F50100E4F5010071
:1017E000E8F501002400002056555555BB6D013326
:1017F000BB65FB6D9C4A82FB03129210DB17D31A68
:10180000FB65FB6D002BF1DCBB6D022B38BF0223A7
:10181000BB65BA6DD7F8803013440233C7F8803007
:101820003A6E7B6F1344FA68D268934217D27B6D8D
:10183000002B05D0FB685B6803F00803002B0ED07B
:10184000FB68DB681A467B6FD21A3B6ED31A3B6784
:10185000D7F880203B6F1344C7F880301AE03B6D07
:10186000002B17D03A6E7B6F1344FA68D26893420C
:1018700010D93A6E7B6F1344FA68D2689B1A3B63A7
:101880003B6BD7F88020D31AC7F880303A6E3B6B99
:10189000D31A3B667B6F002B0BD13B6F002B08D11B
:1018A0003B6E002B05DCFB685B6803F00803002B34
:1018B00006D00123BB66D7F880300133C7F88030EB
:1018C00007F1140307F11802D7F88010F868FFF742
:1018D00085FAFB685B6803F01003002B05D0BB6939
:1018E000FA6F1344FB670023BB617B6E002B0ED0A5
:1018F000D7E92823786EB96F411A07F11C000191CE
:10190000D7F88C100091FFF71FFC034600E000237E
:10191000C7F88430D7F88C20D7F88430D31AC7F8AA
:101920008C30BA6900230493D7F88430039307F10D
:101930001C030293FB6F01937B6B0093D7F88830F5
:1019400039687868FFF7D6F9F862FB6AB3F1FF3FB0
:1019500001D1FB6AF4E0FA6EFB6A1344FB660023D4
:1019600004930023039300230293BB6F019300238E
:1019700000930023002239687868FFF7BBF9F8620A
:10198000FB6AB3F1FF3F01D1FB6AD9E0FA6EFB6A53
:101990001344FB663B6E002B0CD0D7E9282307F1DC
:1019A0001C00396E0191D7F88C100091FFF7CCFB29
:1019B000034600E00023C7F88430BB6E002B14BF41
:1019C00001230023DBB21A4600230493D7F88430A6
:1019D000039307F11C0302937B6F01930092234B47
:1019E000002239687868FFF785F9F862FB6AB3F17D
:1019F000FF3F01D1FB6AA3E0FA6EFB6A1344FB666A
:101A00000023049300230393002302933B6F01936D
:101A1000002300930023002239687868FFF76AF9F1
:101A2000F862FB6AB3F1FF3F01D1FB6A88E0FA6E0E
:101A3000FB6A1344FB66BB6D002B5DD0D7F8A83062
:101A4000002BB8BF5B42BB63FB7A3B74D7F8A8306E
:101A5000002B01DA2D2300E02B237B74BB6DFB658B
:101A60000023C7F8843025E067666666ECF5010060
:101A7000B96B354BA3FB0123DA0813469B001344D3
:101A80005B00CA1AD3B23033DAB2FB6D013B52B2FB
:101A900090333B4403F8742CFB6D013BFB65D7F896
:101AA00084300133C7F88430BB6B274AA2FB032381
:101AB000DB08BB63FB6D002BDADC07F110020023AF
:101AC0000493D7F88430039307F11C030293002397
:101AD0000193022300931346002239687868FFF7C8
:101AE00009F9F862FB6AB3F1FF3F01D1FB6A27E015
:101AF000FA6EFB6A1344FB6697F91330002B14BF90
:101B000001230023DBB21A467B690493039207F199
:101B10001303029300230193002300930023002268
:101B200039687868FFF7E6F8F862FB6AB3F1FF3FBF
:101B300001D1FB6A04E0FA6EFB6A1344FB66FB6E9C
:101B400018469037BD4680BDCDCCCCCC90B593B077
:101B500006AFF860B9603B601346FB71FB6893F910
:101B600014304C2B02D14FF0FF334DE0BB681B68A3
:101B7000073323F0070303F10801BA681160D3E9C2
:101B80000023C7E90A2307F1180107F1240207F12E
:101B9000140300930B46D7E90A01FFF771F97B693B
:101BA0006FF00042934203D1D7E90623134308D1D3
:101BB0007B696FF00042934215D1D7E906231343A6
:101BC00011D1796AD7E90623786997F9074004901B
:101BD000CDE9022300913B6C3A682146F868FFF793
:101BE000FFFA034610E0796AD7E90623786997F986
:101BF00007400490CDE9022300913B6C3A682146EE
:101C0000F868FFF71BFC034618463437BD4690BD05
:101C10002DE9B04FAAB006AFF865B9653B6513462C
:101C200087F85730FB6D1A6AFB6D5B6A1344C7F87F
:101C30008430D7F884300733DB08C7F880304FF0A2
:101C400000024FF00003C7E918234FF000024FF0E5
:101C50000003C7E91823D7F88030002B02D14FF0DA
:101C6000FF33EEE0D7F88030042B08D8BB6D19683D
:101C70000A1DBB6D1A600B68C7F88C3007E0BB6D9E
:101C800019680A1DBB6D1A600B68C7F88C30D7F84D
:101C90008C30002B0AD10023FB674FF000024FF07D
:101CA0000003C7E91C230023FB66BAE0D7F88430A1
:101CB0005A1E012303FA02F2D7F88C301340002B8E
:101CC00014BF01230023DBB2FB67FB6F002B04D0A2
:101CD000D7F88C305B42C7F88C30D7F884305A1E66
:101CE000012393405A1ED7F88C301340C7F88C302C
:101CF000D7F88C30DA17BB64FA64D7E91223C7E946
:101D00001C234FF0FF33C7F8883009E0D7F88C3038
:101D10005B10C7F88C30D7F888300133C7F88830AB
:101D2000D7F88C30002BF1D1D7F88820FB6D5B6A97
:101D3000D31AFB6609E0D7E91C23911839605B418F
:101D40007B60D7E90023C7E91C23D7E91C23B3F53F
:101D5000801FF0D3D7E9182300244FEA13554FEA28
:101D60000555D7E91C239246C3F3130B44EA0A0333
:101D70003B6445EA0B037B64D7E91034C7E91834A8
:101D8000D7E91823BA636FF31E53FB63FB6EDA17B0
:101D90003B637A633B6BC3F30A084FF0000940F2E0
:101DA000FF3318EB0303BB6249F10003FB624FF002
:101DB00000024FF00003B96A0B050022D7E90E01BB
:101DC000044614433C6219437962D7E90834C7E9F1
:101DD0001834D7E91823BA6123F00043FB61FB6F85
:101DE00000223B617A614FF000024FF00003396935
:101DF000CB070022D7E9060104461443BC6019430F
:101E0000F960D7E90234C7E91834D7E9180107F1B6
:101E1000700407F17C0207F16C0300932346FFF77F
:101E20002FF8F96FD7E91C23F86E0490CDE902234F
:101E30000091D7F8B0303A6D6621F86DFFF7FEFAE1
:101E4000034618469037BD46BDE8B08FB0B485B0A4
:101E500000AF786039603B681B68191D3A681160F3
:101E60001B68FB60FB68002B48D07B6893F914303B
:101E7000682B05D17B681B681AB2FB681A803DE0AD
:101E80007B6893F91430692B05D17B681B685AB2C3
:101E9000FB681A7032E07B6893F914306C2B05D123
:101EA0007B681B681A46FB681A6027E07B6893F919
:101EB00014306A2B08D17B681B6800221C4615462B
:101EC000FB68C3E9004519E07B6893F914307A2B6D
:101ED00004D17B681A68FB681A600FE07B6893F98D
:101EE0001430742B05D17B681B681A46FB681A6096
:101EF00004E07B681B681A46FB681A6000231846DA
:101F00001437BD46B0BC704780B58EB006AFF860E0
:101F1000B9603B601346FB710023FB6197F9073002
:101F2000632B08D1BB681B68191DBA6811601B6858
:101F30005BB2FB7403E0FB6893F91530FB74FB683C
:101F4000DB68002B02DAFB680122DA60FB68DB68E1
:101F5000012BB8BF0123BB611FE0002304930123C1
:101F6000039307F1130302930023019300230093CB
:101F700000230022B96A3868FEF7BCFE78617B69ED
:101F8000B3F1FF3F02D14FF0FF330AE0FA697B69FA
:101F90001344FB61BB69013BBB61BB69002BDCD116
:101FA000FB6918462037BD4680BD000080B58EB065
:101FB00006AFF860B9603B601346FB710023FB611C
:101FC00000237B6100233B61BB681B68191DBA6855
:101FD00011601B68BB61BB69002B01D1174BBB6152
:101FE000B8690CF0C7FAF861FB68DB68002B07DB07
:101FF000FB68DB681A46FB69934228BF1346FB6106
:1020000007F1100307F11402F969F868FEF7E6FE1C
:102010007A693B690493FB690393BB6902930023CC
:102020000193002300930023B96A3868FEF762FE2B
:10203000034618462037BD4680BD00BFF0F50100BD
:102040002DE9F043CBB006AF07F58876A6F582768A
:10205000306007F58870A0F584700160114607F5BF
:102060008872A2F58872136007F58873A3F20913CA
:102070000A461A700023C7F80C310023BB61002305
:102080007B610023C7F804310023C7F80031002327
:10209000C7F8FC300023C7F8F4300023C7F8F0304D
:1020A00007F58873A3F582731B685B6803F08003F0
:1020B000002B00F0EE8007F58873A3F582731B6890
:1020C00093F914306C2B10D107F58873A3F5847342
:1020D0001B681B68191D07F58872A2F584721268C7
:1020E00011601B68C7F8EC3063E007F58873A3F54F
:1020F00082731B6893F914306A2B16D107F5887325
:10210000A3F584731B681B68073323F0070303F1EF
:10211000080107F58872A2F5847212681160D3E98C
:1021200000231346C7F8EC3043E007F58873A3F5A6
:1021300082731B6893F914307A2B10D107F58873DA
:10214000A3F584731B681B68191D07F58872A2F537
:102150008472126811601B68C7F8EC3029E007F53B
:102160008873A3F582731B6893F91430742B10D114
:1021700007F58873A3F584731B681B68191D07F5A1
:102180008872A2F58472126811601B68C7F8EC307F
:102190000FE007F58873A3F584731B681B68191D8E
:1021A00007F58872A2F58472126811601B68C7F87F
:1021B000EC3007F58873A3F582731B6893F914302C
:1021C000682B04D1D7F8EC301BB2C7F8EC3007F518
:1021D0008873A3F582731B6893F91430692B04D1BB
:1021E000D7F8EC305BB2C7F8EC30D7F8EC30002B06
:1021F000B8BF5B42C7F8F83007F58873A3F5807362
:1022000000221A70D7F8EC30002B06DA07F5887335
:10221000A3F580732D221A7020E007F58873A3F5CB
:1022200082731B685B6803F00203002B06D007F57E
:102230008873A3F580732B221A700FE007F588735B
:10224000A3F582731B685B6803F00103002B05D0C4
:1022500007F58873A3F5807320221A7007F5887339
:10226000A3F5807393F90030002B00F0B2800123B6
:10227000C7F8F43007F58873A3F582731B685B68B1
:1022800043F0080207F58873A3F582731B685A6050
:102290009FE007F58873A3F582731B6893F91430E8
:1022A0006C2B10D107F58873A3F584731B681B682A
:1022B000191D07F58872A2F58472126811601B68F7
:1022C000C7F8F83063E007F58873A3F582731B68DD
:1022D00093F914306A2B16D107F58873A3F584732C
:1022E0001B681B68073323F0070303F1080107F598
:1022F0008872A2F5847212681160D3E90023134634
:10230000C7F8F83043E007F58873A3F582731B68BC
:1023100093F914307A2B10D107F58873A3F58473E1
:102320001B681B68191D07F58872A2F58472126874
:1023300011601B68C7F8F83029E007F58873A3F52A
:1023400082731B6893F91430742B10D107F58873CE
:10235000A3F584731B681B68191D07F58872A2F525
:102360008472126811601B68C7F8F8300FE007F537
:102370008873A3F584731B681B68191D07F58872A1
:10238000A2F58472126811601B68C7F8F83007F56F
:102390008873A3F582731B6893F91430682B04D1FA
:1023A000D7F8F8309BB2C7F8F83007F58873A3F573
:1023B00082731B6893F91430692B04D1D7F8F83075
:1023C000DBB2C7F8F83007F58873A3F580733022C5
:1023D0001A7007F58873A3F2091393F900306F2B75
:1023E00006D1D7F8F830002B02D00123C7F8F4301B
:1023F00007F58873A3F2091393F90030782B0FD0F7
:1024000007F58873A3F2091393F90030582B07D00E
:1024100007F58873A3F2091393F90030622B32D1C8
:1024200007F58873A3F582731B685B6803F02003CC
:10243000002B03D1D7F8F830002B0CD007F58873A8
:10244000A3F5807307F58872A2F2091212785A7008
:102450000223C7F8F43007F58873A3F582731B686D
:102460005B6803F02003002B0DD007F58873A3F5FC
:10247000807393F9013043F020035AB207F5887353
:10248000A3F580735A7007F58873A3F582731B68F0
:102490005B6803F00803002B0ED0D7F80C21D7F8A7
:1024A000F4301344C7F80C3107F11003C7F8FC30BF
:1024B000D7F8F430C7F80031D7F834310A2B50D1AF
:1024C0000023C7F8083147E0D7F8F83000229846D3
:1024D0009146AF4B03FB09F2002303FB08F31344BF
:1024E000AB4AA8FB02452B441D46C7E92C45C7E96A
:1024F0002C45D7E92C014FF000024FF00003CA0829
:1025000000231346C7F8AC30D7F8AC309B00D7F89F
:10251000AC201344C7F8A830D7F8A8305B00D7F830
:10252000F820D31AC7F8A430D7F808310133C7F818
:102530000831D7F8A430DBB23033DAB2D7F808313B
:10254000C3F1820352B203F588733B4403F8F42CC1
:10255000D7F8AC30C7F8F830D7F8F830002BB3D143
:10256000ACE0D7F83431022B07D0D7F83431082B40
:1025700003D0D7F83431102B5BD1D7F83431013B7D
:10258000C7F8C030D7F83431102B07D0D7F8343122
:10259000082B01D1032302E0012300E00423C7F844
:1025A000BC300023C7F808313EE0D7F8F820D7F850
:1025B000C0301340774AD35C87F8EB3007F5887357
:1025C000A3F2091393F90030782B0FD007F5887325
:1025D000A3F2091393F90030692B07D007F588732C
:1025E000A3F2091393F90030752B05D197F8EB305E
:1025F00043F0200387F8EB30D7F808310133C7F8F0
:102600000831D7F80831C3F1820303F588733B44DE
:1026100097F8EB2003F8F42CD7F8F820D7F8BC3063
:1026200022FA03F3C7F8F830D7F8F830002BBCD102
:1026300044E00023C7F808313CE0D7F8F830D7F879
:102640003421B3FBF2F2D7F8341101FB02F29B1AEA
:10265000504AD35C87F8EA3007F58873A3F2091370
:1026600093F90030692B07D007F58873A3F209139B
:1026700093F90030752B05D197F8EA3043F0200329
:1026800087F8EA30D7F808310133C7F80831D7F8AE
:102690000831C3F1820303F588733B4497F8EA20BD
:1026A00003F8F42CD7F8F820D7F83431B2FBF3F361
:1026B000C7F8F830D7F8F830002BBED107F588738B
:1026C000A3F582731B68DB69002B00F01C8107F502
:1026D0008873A3F582731B689B69C7F8E43007F51C
:1026E0008873A3F582731B68DB69C7F8E0300023A9
:1026F000C7F8D830D7F80831C7F8D030D7F8083144
:10270000C3F18203C7F8CC30D7F8E030013BD7F8EB
:10271000E4201344C7F8E430E6E0D7F8E030002BBB
:1027200000F08580D7F8E4301B7887F8DF3097F920
:10273000DF302D2B00F0DE8097F9DF302A2B1FD100
:1027400007F58873A3F584731B681B68191D07F5CB
:102750008872A2F58472126811601B68C7F8D830BD
:10276000D7F8D830002BC0F2C780D7F8E430013B4F
:10277000C7F8E430D7F8E030013BC7F8E03043E079
:102780000023C7F8D8300123C7F8D43023E000BFB6
:10279000CDCCCCCC00F6010097F9DF30303B1A46A7
:1027A000D7F8D43003FB02F2D7F8D8301344C7F877
:1027B000D830D7F8D42013469B0013445B00C7F8E9
:1027C000D430D7F8E430013BC7F8E430D7F8E03034
:1027D000013BC7F8E030D7F8E030002B14D0D7F831
:1027E000E4301B7887F8DF3097F9DF30002B0BD00F
:1027F00097F9DF300133874A134493F90030DBB295
:1028000003F00403002BC7D1D7F8E030002B75D0BC
:10281000D7F8E4301B7887F8DF30D7F8E430013B95
:10282000C7F8E430D7F8E030013BC7F8E030D7F81C
:10283000D830002B54D0D7F8D830D7F8D0209A42CF
:102840005ED9D7F8CC30C7F8C830D7F8D830D7F829
:10285000D020D31AC7F8C43018E0D7F8C830013BED
:1028600007F11C01D7F8C8200A4492F9002003F5AB
:1028700088733B4403F8F42CD7F8C430013BC7F805
:10288000C430D7F8C8300133C7F8C830D7F8C430DF
:10289000002BE2D1D7F8CC30013BC7F8CC30D7F8C9
:1028A000CC20D7F8D0301A44D7F8D830D31A03F553
:1028B00088733B4497F8DF2003F8F42CD7F80831ED
:1028C0000133C7F80831D7F8F0300133C7F8F030DA
:1028D000D7F8D830D7F8D020D31AC7F8D03003E0D3
:1028E000D7F8E030002B0DD0D7F8D030002B7FF494
:1028F00014AF08E000BF06E000BF04E000BF02E044
:1029000000BF00E000BFD7F80831C7F8A03007F5D6
:102910008873A3F582731B68DB68002B07DA07F561
:102920008873A3F582731B680122DA600DE007F556
:102930008873A3F582731B685B6823F0100207F5A8
:102940008873A3F582731B685A6007F58873A3F533
:1029500082731B68DB681A46D7F8F0301344D7F847
:102960000821934238BF1346C7F80831D7F80C2125
:10297000D7F808311344C7F80C3107F1140307F1F5
:10298000180207F58871A1F58270D7F80C1100685C
:10299000FEF724FAD7F80821D7F8A030D31AC7F8E1
:1029A000043107F58873A3F582731B685B6803F035
:1029B0001003002B07D0BB69D7F804211344C7F8D4
:1029C00004310023BB61B969D7F8A030C3F1820399
:1029D00007F11C0213447A6907F58870A0F5887026
:1029E0000492D7F8A02003920293D7F80431019300
:1029F000D7F800310093D7F8FC300A46D7F83011E9
:102A00000068FEF777F90346184607F58A77BD4652
:102A1000BDE8F083583D020080B58CB006AFF86089
:102A2000B9603B601346FB7100237B6197F9073067
:102A30006E2B05D1B968F868FFF708FA0346DDE0A8
:102A400097F90730252B11D1002304930123039319
:102A5000FB1D029300230193002300930023002217
:102A6000396A3868FEF746F90346C7E097F9073038
:102A7000632B03D097F90730432B0AD197F907202E
:102A80003B6A00933B68B968F868FFF73DFA034674
:102A9000B4E097F90730732B0AD197F907203B6A06
:102AA00000933B68B968F868FFF780FA0346A5E031
:102AB00097F90730652B13D097F90730452B0FD0C6
:102AC00097F90730662B0BD097F90730462B07D0C4
:102AD00097F90730672B03D097F90730472B0AD1B6
:102AE00097F907203B6A00933B68B968F868FFF7DD
:102AF0002DF8034682E097F907306B2B0AD197F93E
:102B000007203B6A00933B68B968F868FFF780F8D4
:102B1000034673E097F90730702B0DD15823FB71F2
:102B2000FB6800221A75FB6828225A60FB6808229D
:102B30009A60FB680822DA6097F90730642B07D0A7
:102B400097F90730692B03D097F90730492B1CD12F
:102B5000FB685B6843F08002FB685A600A237B6174
:102B6000FB685B6823F00802FB685A6097F907303E
:102B7000692B03D097F90730492B06D1FB681B69F5
:102B8000002B02D0FB681B697B6197F90730782B1B
:102B900003D097F90730582B01D110237B6197F9A7
:102BA0000730752B03D097F90730552B08D1FB68F8
:102BB0001B69002B02D0FB681B6900E00A237B61C4
:102BC00097F907306F2B01D108237B6197F9073004
:102BD000622B01D102237B617B69012B0CD997F910
:102BE00007207B6901933B6A00933B68B968F868EA
:102BF000FFF726FA034601E04FF0FF331846183777
:102C0000BD4680BD80B59CB002AFF860B9607A6007
:102C10003B607B683B663B683B617B68002B00F058
:102C20008C8200237B617DE23B6EFB6502E0FB6DE5
:102C30000133FB65FB6D93F90030002B04D0FB6D75
:102C400093F90030252BF2D1FA6D3B6ED31AFB6459
:102C5000FB6C002B0ED007F10803FA68F96C386E94
:102C6000FEF706F80346002BC0F269827A69FB6C16
:102C700013447B61FB6D3B663B6E93F90030002B88
:102C800000F050823B6E01333B660023BB610BE0DA
:102C9000BA69BB6CA6495B1AA64951F823301343A5
:102CA000BB613B6E01333B663B6E1B7887F8673038
:102CB00097F96730002B09D097F9673019469C487F
:102CC0000BF03CF9B864BB6C002BE1D13B6E93F97F
:102CD00000302A2B12D13B691A1D3A611B68FB6137
:102CE000FB69002B06DAFB695B42FB61BB6943F0C1
:102CF0000403BB613B6E01333B6628E00023FB61AC
:102D00000DE0FA6913469B0013445B001A4697F9DD
:102D100067301344303BFB613B6E01333B663B6ED7
:102D20001B7887F8673097F96730002B0FD097F939
:102D300067300133804A134493F90030DBB203F06B
:102D40000403002B03D0FB69B3F5FA7FD9DBFB69E1
:102D5000B3F5FA7F00F3F5813B6E93F900302E2B2B
:102D600003D04FF0FF333B6243E03B6E01333B66E1
:102D70003B6E93F900302A2B0DD13B691A1D3A6145
:102D80001B683B623B6AB3F5FA7F00F3DC813B6E64
:102D900001333B662DE000233B620DE03A6A1346A7
:102DA0009B0013445B001A4697F967301344303B8D
:102DB0003B623B6E01333B663B6E1B7887F86730A6
:102DC00097F96730002B0FD097F9673001335A4AD3
:102DD000134493F90030DBB203F00403002B03D05B
:102DE0003B6AB3F5FA7FD9DB3B6AB3F5FA7F00F3B0
:102DF000AC813B6E93F900303A2B02D000237B620A
:102E000048E03B6E01333B663B6E93F900302A2B62
:102E100014D13B691A1D3A611B687B647B6C002BE3
:102E200002DA00237B6205E07B6C242B00F38F81A8
:102E30007B6C7B623B6E01333B662BE000237B6245
:102E40000DE07A6A13469B0013445B001A4697F91B
:102E500067301344303B7B623B6E01333B663B6E15
:102E60001B7887F8673097F96730002B0ED097F9F9
:102E700067300133304A134493F90030DBB203F07A
:102E80000403002B02D07B6A232BDADD7B6A242B20
:102E900000F35F8110237B631023BB6300233B633C
:102EA0000023FB623B6E1B7887F8673097F9673029
:102EB0005B2B24D10023BB653B6E01333B663B6E2D
:102EC000FB6205E03B6E01333B66BB6D0133BB65C6
:102ED0003B6E1B7887F8673097F96730002B03D07B
:102EE00097F967305D2BEDD197F96730002B00F033
:102EF00032813B6E01333B66BB6D3B639CE097F9CF
:102F000067307B2B40F098803B6E01333B663B6E15
:102F100093F900302A2B08D13B691A1D3A611B68CE
:102F20007B653B6E01333B662DE000237B6513E040
:102F300028F6010030F60100583D02007A6D134674
:102F40009B0013445B001A4697F967301344303BEB
:102F50007B653B6E01333B663B6E1B7887F86730C1
:102F600097F96730002B0ED097F967300133844A08
:102F7000134493F90030DBB203F00403002B02D0BA
:102F80007B6D1F2BDAD97B6D202B00F2E6803B6E28
:102F900093F900302E2B40F0E2803B6E01333B660C
:102FA0003B6E93F900302A2B08D13B691A1D3A6118
:102FB0001B683B653B6E01333B6627E000233B65A6
:102FC0000DE03A6D13469B0013445B001A4697F9D7
:102FD00067301344303B3B653B6E01333B663B6ED1
:102FE0001B7887F8673097F96730002B0ED097F978
:102FF00067300133624A134493F90030DBB203F0C7
:103000000403002B02D03B6D1F2BDAD997F96730F0
:10301000002B00F0A6803B6E01333B663B6D202BFE
:1030200000F2A1807A6D3B6D13441F2B00F29D804E
:103030007B6D7B633B6DBB633B6E1B7887F86730B2
:1030400097F96730002B0ED097F9673019464D4835
:103050000AF074FF0346002B05D03B6E01333B663C
:1030600097F9673000E0002387F8283097F9283077
:10307000002B17D03B6E1B7887F8673097F96730C5
:10308000002B0FD097F9283097F967209A4209D181
:1030900097F9283043F001035BB287F828303B6E84
:1030A00001333B663B6E1B7887F8673097F96730D2
:1030B000002B05D13B691A1D3A611B683B6631E064
:1030C00097F8673087F8433097F94330432B0FD197
:1030D0003B6E01333B663B6E1B7887F8673097F990
:1030E0006730002B43D097F8673087F8293002E02B
:1030F000002387F8293097F9432007F1100107F1E1
:10310000140007F108030093FB68FFF785FCF863E0
:10311000FB6B002B2DDB7A69FB6B13447B613B6EF1
:1031200001333B663B6E1B7887F8673097F9673051
:10313000002B7FF479AD7B691EE000BF1AE000BF71
:1031400018E000BF16E000BF14E000BF12E000BFAF
:1031500010E000BF0EE000BF0CE000BF0AE000BFBF
:1031600008E000BF06E000BF04E000BF02E000BFCF
:1031700000E000BF4FF0FF3318466837BD4680BD02
:10318000583D0200F8F5010080B584B000AFF8604A
:10319000B9607A603B60FB68BA681A60FB687A685D
:1031A0005A60FB6800221A72FB683A68DA60FB68B2
:1031B0001B6818460BF0DEF90346DAB2FB681A7298
:1031C000FB6818461037BD4680BD000080B582B050
:1031D00000AF786039607B681B68184619F0C0FF43
:1031E0003B68D3E900231AF025F802460B46104647
:1031F00019464FF00002054B1AF046F902460B46FD
:10320000104619460837BD4680BD00BF00005E412C
:1032100098B500AF664C674B674A68492046FFF790
:10322000B3FF1034664B674A67492046FFF7ACFF8F
:103230001034664B664A67492046FFF7A5FF1034F5
:103240005F4B654A65492046FFF79EFF10345F4B90
:10325000634A64492046FFF797FF1034624B634A84
:1032600063492046FFF790FF10345F4B614A624983
:103270002046FFF789FF1034604B614A61492046C0
:10328000FFF782FF10345D4B5F4A60492046FFF72D
:103290007BFF10345E4B5F4A5F492046FFF774FFA7
:1032A00010345B4B5D4A5E492046FFF76DFF1034DA
:1032B0005C4B5D4A5D492046FFF766FF10345C4B6E
:1032C0005C4A5D492046FFF75FFF10345B4B5C4A68
:1032D0005C492046FFF758FF10345B4B5B4A5C4962
:1032E0002046FFF751FF10345A4B5B4A5B4920469A
:1032F000FFF74AFF10345A4B5A4A5B492046FFF702
:1033000043FF1034594B5A4A5A492046FFF73CFFB5
:103310001034564B584A59492046FFF735FF1034B0
:10332000574B584A58492046FFF72EFF1034574B49
:10333000574A58492046FFF727FF1034564B574A43
:1033400057492046FFF720FF1034564B564A57493D
:103350002046FFF719FF1034554B564A5649204670
:10336000FFF712FF1034524B544A55492046FFF7DD
:103370000BFF1034534B544A54492046FFF704FFC7
:103380001034534B534A54492046FFF7FDFE103486
:10339000524B534A53492046FFF7F6FE04F1100002
:1033A000514B524A5249FFF7EFFE00BF98BD00BF94
:1033B00094080020BD390000B8F60100F0F60100C5
:1033C0002D3A0000F8F601000CF70100F53A000074
:1033D00018F7010034F7010040F7010058F7010029
:1033E0005CF701007CF70100813B000080F70100E1
:1033F000CCF70100D4F7010024F80100B93C00002B
:1034000028F8010074F801007CF80100CCF80100F4
:1034100069400000D0F8010004F901000CF9010036
:1034200044F90100ADA80000143202000432020089
:10343000B5AB00005832020048320200F9AF00007C
:103440009832020084320200F142000048F9010083
:103450007CF90100A143000084F90100E0F90100BA
:1034600071470000E8F9010034FA010051490000F9
:103470003CFA010058FA010060FA01007CFA0100F0
:10348000414A000080FA0100D0FA0100B14C00006E
:10349000E0FA010058FB0100E54D000064FB01006B
:1034A000A4FB0100154E0000B4FB0100FCFB010071
:1034B000B94F00000CFC010044FC010054FC010069
:1034C00090FC01003955000094FC0100C4FC01008F
:1034D00029560000D0FC010010FD01003957000002
:1034E00020FD010058FD0100CD57000064FD0100E2
:1034F000D0FD010080B500AFFFF78AFE80BD80B42B
:1035000083B000AF78607B6800221A7000225A7086
:1035100000229A700022DA707B6800221A71002261
:103520005A717B6800229A710022DA717B68184612
:103530000C37BD4680BC704780B483B000AF786064
:1035400039603B681B681AB27B689A803B681B68CD
:103550001B0C1AB27B68DA8000BF0C37BD4680BCFA
:103560007047000080B582B000AF78607B681B6850
:10357000184619F0F5FD02460B460F4808F038FFD3
:103580007B681B6819467B68B3F904301BB21A4686
:103590007B68B3F906301BB2084808F029FF7B6846
:1035A000B3F906301BB21946054808F021FF00BFE9
:1035B0000837BD4680BD00BFDCFD010000FE0100F4
:1035C00034FE010080B483B000AF78607B680022D5
:1035D0001A7000225A7000229A700022DA707B68FA
:1035E00018460C37BD4680BC7047000080B584B0DB
:1035F00002AF78607B681B889BB219467B681B888A
:103600009BB21A467B685B889BB218467B685B88D6
:103610009BB200930346034808F0EAFE00BF083758
:10362000BD4680BD3CFE010080B483B000AF786031
:103630007B6800221A7000225A7000229A700022C1
:10364000DA707B6818460C37BD4680BC70470000B6
:1036500080B584B002AF78607B681B889BB2194646
:103660007B681B889BB21A467B685B889BB21846B6
:103670007B685B889BB200930346034808F0B8FE62
:1036800000BF0837BD4680BD8CFE010080B483B00A
:1036900000AF78607B6800221A7000225A70002206
:1036A0009A700022DA707B6818460C37BD4680BCE1
:1036B0007047000080B584B002AF78607B681B88DB
:1036C0009BB219467B681B889BB21A467B685B8855
:1036D0009BB218467B685B889BB200930346034805
:1036E00008F086FE00BF0837BD4680BDE8FE010039
:1036F00080B483B000AF78600B46FB707B68FA78CB
:103700001A7100BF0C37BD4680BC704780B483B0CF
:1037100000AF78607B681B7918460C37BD4680BCCB
:103720007047000080B582B000AF78607B681B688E
:1037300019467B685A687B689B6803480AF054F90D
:1037400000BF0837BD4680BD30FF010080B483B0A4
:1037500000AF78607B6800221A607B6818460C37DF
:10376000BD4680BC70470000F0B5B9B01EAF7866AA
:103770007B6E1B683B667B6E1B78C3F30003DBB27A
:103780009C467B6E1B78C3F34003DBB29E467B6E88
:103790001B78C3F38003DBB2FB657B6E1B78C3F33E
:1037A000C003DBB2BB657B6E1B78C3F30013DBB2D7
:1037B0007B657B6E1B78C3F34013DBB23B657B6E8E
:1037C0001B78C3F38013DBB2FB647B6E1B78C3F3FF
:1037D000C013DBB2BB647B6E5B78C3F30003DBB268
:1037E0007B647B6E5B78C3F34003DBB23B647B6E30
:1037F0005B78C3F38003DBB2FB637B6E5B78C3F360
:10380000C003DBB2BB637B6E5B78C3F30013DBB238
:103810007B637B6E5B78C3F34013DBB23B637B6EF1
:103820005B78C3F38013DBB2FB627B6E5B78C3F320
:10383000C013DBB2BB627B6E9B78C3F30003DBB2C9
:103840007B627B6E9B78C3F34003DBB23B627B6E93
:103850009B78C3F38003DBB2FB617B6E9B78C3F381
:10386000C003DBB2BB617B6E9B78C3F30013DBB29A
:103870007B617B6E9B78C3F34013DBB23B617B6E55
:103880009B78C3F38013DBB2FB607B6E9B78C3F342
:10389000C013DBB2BB607B6EDB78C3F30003DBB22B
:1038A0007B607B6EDB78C3F34003DBB21E467B6E2E
:1038B000DB78C3F38003DBB21D467B6EDB78C3F39A
:1038C000C003DBB21C467B6EDB78C3F30013DBB2B4
:1038D00018467B6EDB78C3F34013DBB219467B6E70
:1038E000DB78C3F38013DBB21A467B6EDB78C3F35D
:1038F000C013DBB21D931C921B911A90199418955A
:1039000017967A681692BA681592FA6814923A690C
:1039100013927A691292BA691192FA6910923A6A0C
:103920000F927A6A0E92BA6A0D92FA6A0C923A6B08
:103930000B927A6B0A92BA6B0992FA6B08923A6C04
:1039400007927A6C0692BA6C0592FA6C04923A6D00
:1039500003927A6D0292BA6D0192FA6D00927346EB
:103960006246396E034808F043FD00BF6C37BD4620
:10397000F0BD00BF94FF010080B582B000AF786059
:1039800039607B681B68184619F0EAFB3B68D3E98D
:10399000002319F04FFC02460B46104619464FF023
:1039A0000002054B19F070FD02460B461046194601
:1039B0000837BD4680BD00BF00005E4180B586B0BF
:1039C00002AFF860B9607A603B60134B1B68002B54
:1039D00014BF01230023DBB2002B0ED00E4B1B685B
:1039E00019680D4B1B685B6801930C4B0093D12346
:1039F0000B4A0C4808F0FCFC05E0084BD1220849B2
:103A0000094808F0F5FCB8680AF0B4FD03465BB25B
:103A100018461037BD4680BD4C000020C00F020084
:103A2000E8010200140202007802020080B586B0AC
:103A300000AFF860B9607A603B6000233B6107F13A
:103A400010031A462449B8680AF0C4F80346FB7507
:103A500097F91730002B20DC204808F0C9FC002320
:103A60003B6113E01E4B1A683B6913441B78BB751E
:103A70003B69BA7D19461B4808F0BAFCBB7D194664
:103A8000194808F0B5FC3B6901333B613B69802B69
:103A9000E8D9164808F0ACFC18E0114B1A683B69ED
:103AA00013441B78BB750D4808F0A2FC3B69BA7D36
:103AB00019460C4808F09CFCBB7D19460A4808F0E2
:103AC00097FCBB7D19460A4808F092FC7B685BB204
:103AD00018461837BD4680BDB4020200B802020085
:103AE0004C000020CC020200E0020200E8020200CA
:103AF000EC02020080B588B000AFF860B9607A606F
:103B00003B600023BB6100237B6107F1140307F1D5
:103B100018021649B8680AF05DF80346FB7797F972
:103B20001F30012B09DC97F91F301A46B96810487D
:103B300008F05EFC4FF0FF3313E07B69D9B20D4B08
:103B40001A68BB6913440A461A707B6919460A4809
:103B500008F04EFCBB691946084808F049FC7B6830
:103B60005BB218462037BD4680BD00BFF802020098
:103B7000000302004C0000205C03020080030200EE
:103B800080B58CB002AFF860B9607A603B6000230A
:103B90003B620023FB610023BB6100237B61404B40
:103BA0001B68002B0CBF01230023DBB2002B05D0C8
:103BB0003C4808F01DFC7B685BB26CE007F11C011F
:103BC00007F1200207F11403019307F11803009392
:103BD0000B463549B86809F0FDFF034687F82730E2
:103BE00097F92730032B1BDD3A6A2D4B1B68DA62ED
:103BF000FA692B4B1B681A63BA69294B1B685A6315
:103C00007A69274B1B689A63396AFA69B8697B69D4
:103C100000930346254808F0EBFB7B685BB23AE073
:103C200097F92730002B1BDD3A6A1D4B1B68DA62BF
:103C30003A6A1B4B1B681A633A6A194B1B685A6332
:103C40003A6A174B1B689A63396A3A6A386A3B6A60
:103C500000930346154808F0CBFB7B685BB21AE083
:103C60000F4B1B68DB6A3B620D4B1B681B6BFB61D8
:103C70000B4B1B685B6BBB61094B1B689B6B7B61D0
:103C8000396AFA69B8697B6900930346084808F005
:103C9000AFFB7B685BB218462837BD4680BD00BFCE
:103CA0004C0000208C030200D8030200E80302004D
:103CB00010040200000000002DE9F043A1B00EAF97
:103CC000F860B9607A603B604FF000024FF000038B
:103CD000C7E90A234FF000024FF00003C7E90823A9
:103CE0004FF000024FF00003C7E906234FF0000237
:103CF0004FF00003C7E9042300237B6400233B64E7
:103D00000023FB630023BB63874B1B68002B0CBFA6
:103D100001230023DBB2002B05D0844808F068FBA8
:103D20007B685BB28DE107F1200107F1280207F102
:103D30001003019307F1180300930B467C49B86800
:103D400009F048FF034687F83730D7E90A014FF0FA
:103D50006042784B19F06EFA02460B46104619463F
:103D60004FF00002744B19F065FA02460B461046FC
:103D700019466BA3D3E9002319F086FB02460B46D4
:103D80001046194619F02EFD03467B64D7E9080159
:103D90004FF06042674B19F04DFA02460B46104651
:103DA00019464FF00002644B19F044FA02460B46E4
:103DB000104619465AA3D3E9002319F065FB0246C1
:103DC0000B461046194619F00DFD03463B64D7E932
:103DD00006014FF06042574B19F02CFA02460B4691
:103DE000104619464FF00002534B19F023FA0246D1
:103DF0000B46104619464AA3D3E9002319F044FBA9
:103E000002460B461046194619F0ECFC0346FB63CC
:103E1000D7E904014FF06042464B19F00BFA024615
:103E20000B46104619464FF00002434B19F002FAB8
:103E300002460B461046194639A3D3E9002319F070
:103E400023FB02460B461046194619F0CBFC0346ED
:103E5000BB6397F93730032B2DDD7A6C324B1B682F
:103E6000DA623A6C304B1B681A63FA6B2E4B1B6894
:103E70005A63BA6B2C4B1B689A63D7E90A89D7E956
:103E80000823D7E90601D7E90445BE6B0C96CDE9B6
:103E90000A45FC6B0894CDE90601396C0491CDE923
:103EA00002237B6C009342464B46244808F0A0FA5C
:103EB0007B685BB2C5E097F93730002B40DD7A6C48
:103EC000194B1B68DA627A6C174B1B681A637A6CA1
:103ED000154B1B685A637A6C134B1B689A63D7E9BE
:103EE0000A89D7E90823D7E90601D7E90445BE6B5B
:103EF0000C96CDE90A45FC6B0894CDE90601396CB6
:103F00000491CDE902237B6C009342464B460B485B
:103F100008F06EFA7B685BB293E000BFAFF30080FD
:103F2000FCA9F1D24D6210404C0000204004020078
:103F30008C040200FFFF6F4100004E409C04020011
:103F4000454B1B68DB6A7B64434B1B681B6B3B6404
:103F5000414B1B685B6BFB633F4B1B689B6BBB63FD
:103F6000786C19F0EDF83AA3D3E9002319F062F95F
:103F700002460B46104619464FF06242374B19F085
:103F800083FA02460B46C7E90A23386C19F0D8F8C1
:103F90002FA3D3E9002319F04DF902460B46104632
:103FA00019464FF062422D4B19F06EFA02460B464D
:103FB000C7E90823F86B19F0C3F825A3D3E9002358
:103FC00019F038F902460B46104619464FF0624286
:103FD000224B19F059FA02460B46C7E90623B86B83
:103FE00019F0AEF81AA3D3E9002319F023F9024619
:103FF0000B46104619464FF06242184B19F044FA2E
:1040000002460B46C7E90423D7E90A89D7E9082302
:10401000D7E90601D7E90445BE6B0C96CDE90A4500
:10402000FC6B0894CDE90601396C0491CDE90223BB
:104030007B6C009342464B46094808F0D9F97B68EF
:104040005BB218464C37BD46BDE8F083AFF3008045
:10405000FCA9F1D24D6210404C000020FFFFCD4181
:10406000E804020000000000F0B5A5B00AAFF86057
:10407000B9607A603B6000237B66994B1B68002B1C
:104080000CBF01230023DBB2002B05D0954808F0BC
:10409000AFF97B685BB218E17B6E01337B667B6EA8
:1040A000DBB243F00103DAB28D4B1B68C8331A70E0
:1040B00007F128031846FFF722FA07F120031846F4
:1040C000FFF71DFA07F118031846FFF718FA07F172
:1040D00010031846FFF713FA814B1B68DB6BBB62BA
:1040E0007F4B1B681B6C3B6307F1300207F1280311
:1040F00011461846FFF720FA794B1B685B6C3B6250
:10410000774B1B689B6C7B6307F1340207F120033C
:1041100011461846FFF710FA714B1B68DB6CBB6148
:104120006F4B1B681B6DBB6307F1380207F1180367
:1041300011461846FFF700FA694B1B685B6D3B613F
:10414000674B1B689B6DFB6307F13C0207F1100393
:1041500011461846FFF7F0F9BB6A184619F000F847
:104160005DA3D3E9002319F065F802460B46144617
:104170001D46B7F92E30184618F0F2FF4FF0000236
:10418000594B19F057F802460B462046294619F0BC
:104190007BF902460B46C7E916233B6A184618F01E
:1041A000DFFF4DA3D3E9002319F044F802460B4684
:1041B00014461D46B7F92630184618F0D1FF4FF0C7
:1041C0000002494B19F036F802460B4620462946B4
:1041D00019F05AF902460B46C7E91423BB69184681
:1041E00018F0BEFF3CA3D3E9002319F023F80246E0
:1041F0000B4614461D46B7F91E30184618F0B0FF9E
:104200004FF00002384B19F015F802460B462046D5
:10421000294619F039F902460B46C7E912233B69D2
:10422000184618F09DFF2CA3D3E9002319F002F8DB
:1042300002460B4614461D46B7F91630184618F0CC
:104240008FFF4FF00002284B18F0F4FF02460B4698
:104250002046294619F018F902460B46C7E91023F3
:10426000B7F92E301E46BC6A3D6AB9693869D7E98C
:104270001023CDE90823D7E91223CDE90623D7E996
:104280001423CDE90423D7E91623CDE902230190B5
:1042900000912B4622463146144808F0A9F807F150
:1042A00028031846FFF75EF907F120031846FFF7C9
:1042B00059F907F118031846FFF754F907F11003ED
:1042C0001846FFF74FF97B685BB218466C37BD465E
:1042D000F0BD00BFAFF30080FCA9F1D24D621040E9
:1042E0004C0000203C0502000000604188050200EF
:1042F00080B586B000AFF860B9607A603B6000239B
:10430000FB7507F115031A462149B86809F062FCEC
:104310000346BB7597F91630002B28DD97F9153049
:10432000592B0FD097F91530792B0BD097F9153001
:10433000542B07D097F91530742B03D097F915300B
:10434000312B01D10123FB75FB7D002B01D05923BB
:1043500000E04E2319460F4808F04AF80E4AFB7D4C
:104360001370B8680AF006F903465BB20CE00A4B1A
:104370001B78002B01D0592300E04E231946054835
:1043800008F036F87B685BB218461837BD4680BD2A
:10439000FC050200040602009060002000000000FE
:1043A00080B5A2B002AFF860B9607A603B600023CC
:1043B000FB670023BB6700237B6700233B67002369
:1043C000FB660023BB664FF00002B94BC7E906232A
:1043D0004FF00002B64BC7E9042307F1100307F1C1
:1043E0001802B449B86809F0F5FBD7E906014FF0A7
:1043F00000024FF0000319F08FF90346002B05D09F
:104400004FF000024FF00003C7E90623D7E9060189
:104410004FF00002A64B19F09DF90346002B04D083
:104420004FF00002A24BC7E90623D7E9040198A385
:10443000D3E9002319F070F90346002B04D094A3AC
:10444000D3E90023C7E90423D7E9040192A3D3E900
:10445000002319F07FF90346002B04D08EA3D3E983
:104460000023C7E90423D7E90601D7E90423CDE9EE
:10447000002302460B46904807F0BAFFFB6F01335A
:10448000FB67BA6F8D4B1B68DA627A6F8B4B1B68C8
:104490001A633A6F894B1B685A63FA6E874B1B6825
:1044A0009A63864B1B68DB6A7B66844B1B681B6BBD
:1044B0003B66824B1B685B6BFB65804B1B689B6B91
:1044C000BB65BB6D0093FB6D3A6E796E7C4807F05F
:1044D0008FFFF96F7B4BA3FB01235A0913461B0186
:1044E0009B1A9B00CA1A104618F02AFE4FF00002D1
:1044F000754B18F09FFE02460B46C7E914234FF098
:104500000002724BD7E9140118F0BEFF02460B46B9
:104510001046194662A3D3E9002318F08BFE024629
:104520000B46C7E912234FF00002694BD7E914018B
:1045300018F0CAFC02460B46104619464FF000021E
:10454000624B18F0A1FF02460B461046194654A3D1
:10455000D3E9002318F06EFE02460B46C7E910238C
:104560004FF000025B4BD7E9140118F0ADFC024696
:104570000B46104619464FF00002544B18F084FFCA
:1045800002460B461046194645A3D3E9002318F00E
:1045900051FE02460B46C7E90E23D7E9120119F076
:1045A000CBFB4FF00002424B18F08EFC02460B464C
:1045B000104619464FF000024FF0804318F064FF98
:1045C00002460B4610461946D7E9062318F032FE7C
:1045D00002460B46C7E90C23D7E9100119F0ACFBE2
:1045E0004FF00002324B18F06FFC02460B461046AB
:1045F00019464FF000024FF0804318F045FF024685
:104600000B4610461946D7E9062318F013FE02465A
:104610000B46C7E90A23D7E90E0119F08DFB4FF0CD
:104620000002234B18F050FC02460B461046194678
:104630004FF000024FF0804318F026FF02460B4671
:1046400010461946D7E9062318F0F4FD02460B463A
:10465000C7E9082314A3D3E90023D7E90C0118F014
:10466000E9FD02460B461046194619F0BBF8034611
:10467000BB670DA3D3E90023D7E90A0118F0DAFDDF
:1046800002460B461046194626E000BFAFF30080F5
:10469000FCA9F1D24D62503F000000000088C340E9
:1046A0001F85EB51B81E194000000000E0FFEF40ED
:1046B0000000F03F240602002C0602004C000020FF
:1046C00054060200898888880000184000807640DF
:1046D00000005E4000006E4019F084F803467B67DE
:1046E0001FA3D3E90023D7E9080118F0A3FD024670
:1046F0000B461046194619F075F803463B6718A398
:10470000D3E90023D7E9080118F094FD02460B46CF
:104710001046194619F066F80346FB66FB6FB3F5C1
:104720007A7F04D9B96E104807F062FE11E0D7E92C
:1047300004014FF000020D4B18F07CFD02460B46C1
:104740001046194619F04EF803461846FCF774F95E
:1047500094E67B685BB218468037BD4680BD00BFDB
:1047600000000000E0FFEF406806020000408F40BC
:10477000B0B592B006AFF860B9607A603B600023D4
:10478000FB620023BB6200237B6200233B62674B1A
:104790001B68002B0CBF01230023DBB2002B05D0CC
:1047A000634807F025FE7B685BB2BBE04FF0000278
:1047B0004FF00003C7E906234FF000024FF000035B
:1047C000C7E9042307F1100307F118025949B86833
:1047D00009F000FAD7E906014FF000024FF000039C
:1047E00018F09AFF0346002B05D04FF000024FF05F
:1047F0000003C7E90623D7E906014FF000024E4B3C
:1048000018F0A8FF0346002B04D04FF000024A4BDB
:10481000C7E90623D7E904014FF000024FF0000377
:1048200018F07AFF0346002B05D04FF000024FF03E
:104830000003C7E90423D7E904014FF000023E4B0F
:1048400018F088FF0346002B04D04FF000023A4BCB
:10485000C7E90423D7E906014FF06042374B18F04F
:10486000E9FC02460B461046194618F0BBFF03460A
:10487000FB62D7E904014FF06042304B18F0DAFCDC
:1048800002460B461046194618F0ACFF03467B6201
:10489000FA6A264B1B68DA62244B1B68284A1A63A3
:1048A0007A6A224B1B685A63204B1B68244A9A631E
:1048B000234B00937B6A224AF96A224807F098FD4D
:1048C0001A4B1B68DB6AFB62184B1B681B6BBB62D5
:1048D000164B1B685B6B7B62144B1B689B6B3B62CC
:1048E000D7E906014FF00002174B18F0A3FC02466F
:1048F0000B4614461D46D7E904014FF00002124B47
:1049000018F098FC02460B46CDE90423CDE9024598
:104910003B6A00937B6ABA6AF96A0C4807F068FD43
:104920007B685BB218463037BD46B0BD4C000020F6
:104930008C060200240602000000F03FFFFF6941E0
:10494000FFFFCF00D406020000005940FC06020021
:1049500080B58EB000AFF860B9607A603B6007F157
:10496000200310220021184609F098FA2A4BBB6256
:104970004FF000024FF00003C7E9082300237B63D8
:1049800090228C21254807F033FDBB6801330422B7
:104990002349184609F03AFB0346002B0FD1214B5F
:1049A0001B685522C3F88C201F4B1B685B68184698
:1049B00008F040FE796B1D4807F01AFD00BF002388
:1049C0007B61D123BB610023FB61164B1B68002B6D
:1049D00014BF01230023DBB2002B07D0114B1B684F
:1049E0001B687B610F4B1B685B68FB610C211048E7
:1049F00007F0FEFC07F114031846FEF793FE0D487E
:104A000007F0F6FC0C4807F0F3FC7B685BB2184635
:104A10003837BD4680BD00BF40420F003807020056
:104A2000500702004C00002094000020680602009D
:104A300058070200840702008807020000000000F7
:104A400080B59AB002AFF860B9607A603B6000232D
:104A5000FB610023BB6100237B6100233B618A4B28
:104A60001B68002B0CBF01230023DBB2002B05D0F9
:104A7000864807F0BDFC7B685BB2FCE007F11801DB
:104A800007F11C0207F11003019307F114030093CF
:104A90000B467F49B86809F09DF8034687F85F30F8
:104AA00097F95F30032B21DDFB69DAB2764B1B6887
:104AB00083F87020BB69DAB2734B1B6883F87120EE
:104AC0007B69DAB2704B1B6883F872203B69DAB2FB
:104AD0006D4B1B6883F87320F969BA6978693B6983
:104AE000009303466B4807F083FC24E097F95F309E
:104AF000002B20DDFB69DAB2634B1B6883F8702062
:104B0000FB69DAB2604B1B6883F87120FB69DAB28B
:104B10005D4B1B6883F87220FB69DAB25A4B1B6845
:104B200083F87320F969FA69F869FB690093034611
:104B3000584807F05DFC544B1B6893F87030FB61DC
:104B4000514B1B6893F87130BB614F4B1B6893F856
:104B500072307B614C4B1B6893F873303B61F96991
:104B6000BA6978693B69009303464B4807F040FCFB
:104B700043A3D3E90023C7E91423FB690133FB6492
:104B8000BB690133BB647B6901337B643B690133DF
:104B90003B64F86C18F0D4FA02460B46D7E91401CE
:104BA00018F072FC02460B46104619464FF0000200
:104BB0003A4B18F069FC02460B46C7E90E23B86C65
:104BC00018F0BEFA02460B46D7E9140118F05CFC57
:104BD00002460B46104619464FF000022F4B18F0C4
:104BE00053FC02460B46C7E90C23786C18F0A8FA70
:104BF00002460B46D7E9140118F046FC02460B4664
:104C0000104619464FF00002244B18F03DFC0246B6
:104C10000B46C7E90A23386C18F092FA02460B4695
:104C2000D7E9140118F030FC02460B46104619462D
:104C30004FF00002194B18F027FC02460B46C7E95B
:104C40000823D7E90E23F96C154807F0D1FBD7E903
:104C50000C23B96C134807F0CBFBD7E90A23796C16
:104C6000114807F0C5FBD7E90823396C0F4807F056
:104C7000BFFB7B685BB218466037BD4680BD00BF96
:104C800000000000965198414C000020A40702004B
:104C9000F407020004080200380802000000304057
:104CA00070080200BC08020008090200580902004E
:104CB00080B58EB002AFF860B9607A603B6007F1F2
:104CC00028031846FEF77EFC07F124031846FEF77A
:104CD000ABFC00233B620023FB613A4B1B68002BBB
:104CE0000CBF01230023DBB2002B05D0364807F0B0
:104CF0007FFB7B685BB260E007F11C0107F12002DB
:104D000007F11403019307F1180300930B462F4991
:104D1000B86808F05FFF034687F82F3097F92F3007
:104D2000012B14DD3B6A9BB23B85FB699BB27B8503
:104D3000274807F05DFB07F128031846FEF756FCED
:104D4000244807F055FB1F4B1B68BA6A5A6297F953
:104D50002F30032B14DDBB699BB2BB847B699BB2F4
:104D6000FB841D4807F044FB07F124031846FEF7B7
:104D70006FFC184807F03CFB124B1B687A6A9A627A
:104D8000104B1B685B6ABB620E4B1B689B6A7B62A5
:104D9000124807F02DFB07F128031846FEF726FC02
:104DA0000F4807F025FB07F124031846FEF750FCD7
:104DB000084807F01DFB7B685BB218463037BD46DC
:104DC00080BD00BF4C000020A8090200F4070200CB
:104DD000F8090200840702001C0A0200440A0200CB
:104DE000640A020080B584B000AFF860B9607A60F0
:104DF0003B60064807F0FCFA054807F0F9FA7B68C3
:104E00005BB218461037BD4680BD00BF680A02007D
:104E1000E802020080B58CB002AFF860B9607A6039
:104E20003B6000233B62002387F8273007F118011D
:104E300007F1200207F1170300930B465249B868A7
:104E400008F0C8FE034687F8263097F92630032B72
:104E500057DD97F91730592B0FD097F91730792B69
:104E60000BD097F91730542B07D097F91730742BC4
:104E700003D097F91730312B02D1012387F827305F
:104E8000396A97F82730002B01D0592300E04E23D0
:104E90001A463E4807F0ACFA3B6A032B26D801A21B
:104EA00052F823F0B54E0000C34E0000D14E000072
:104EB000DF4E000097F8273019463548FEF718FCFA
:104EC00019E097F8273019463248FEF711FC12E036
:104ED00097F8273019463048FEF70AFC0BE097F8A0
:104EE000273019462D48FEF703FC04E03B6A1946BB
:104EF0002B4807F07DFAB86809F03CFB03465BB22B
:104F00003EE097F926301946264807F071FA204806
:104F1000FEF7FCFB0346002B01D0592300E04E2393
:104F20001946214807F064FA1A48FEF7EFFB0346DA
:104F3000002B01D0592300E04E2319461B4807F0EF
:104F400057FA1548FEF7E2FB0346002B01D0592320
:104F500000E04E231946164807F04AFA0F48FEF7BC
:104F6000D5FB0346002B01D0592300E04E23194600
:104F7000104807F03DFAB86809F0FCFA03465BB246
:104F800018462837BD4680BD900A0200A00A0200DC
:104F9000F01A00200C1B0020281B0020441B0020BE
:104FA000D40A02000C0B02005C0B02008C0B020006
:104FB000BC0B0200EC0B020080B5A0B010AFF86093
:104FC000B9607A603B6007F128031846FEF7BEFB24
:104FD000002387F83F30002387F83E30002387F80E
:104FE0003D30002387F83C30002387F83B30002316
:104FF00087F83A30002387F83930002387F83830B3
:10500000002387F83730002387F83630002387F8ED
:105010003530002387F83430002387F833300023FD
:1050200087F83230002387F83130002387F830309A
:10503000002387F82F30074B1B68002B0CBF012380
:105040000023DBB2002B09D0034807F0D1F97B68BD
:105050005BB269E24C0000201C0C020007F1260143
:1050600007F1270207F117030E9307F118030D93B9
:1050700007F119030C9307F11A030B9307F11B03B4
:105080000A9307F11C03099307F11D03089307F125
:105090001E03079307F11F03069307F120030593EF
:1050A00007F12103049307F12203039307F123037C
:1050B000029307F12403019307F1250300930B46A4
:1050C000B149B86808F086FD034687F82E3097F995
:1050D0002E30002B40F3178297F92730592B0FD031
:1050E00097F92730792B0BD097F92730542B07D01D
:1050F00097F92730742B03D097F92730312B02D141
:10510000012387F83F3097F92630592B0FD097F9B4
:105110002630792B0BD097F92630542B07D097F9EE
:105120002630742B03D097F92630312B02D101237E
:1051300087F83E3097F92530592B0FD097F9253055
:10514000792B0BD097F92530542B07D097F92530C0
:10515000742B03D097F92530312B02D1012387F826
:105160003D3097F92430592B0FD097F92430792B03
:105170000BD097F92430542B07D097F92430742B97
:1051800003D097F92430312B02D1012387F83C302A
:1051900097F92330592B0FD097F92330792B0BD067
:1051A00097F92330542B07D097F92330742B03D071
:1051B00097F92330312B02D1012387F83B3097F93F
:1051C0002230592B0FD097F92230792B0BD097F939
:1051D0002230542B07D097F92230742B03D097F943
:1051E0002230312B02D1012387F83A3097F9213050
:1051F000592B0FD097F92130792B0BD097F921300B
:10520000542B07D097F92130742B03D097F9213014
:10521000312B02D1012387F8393097F92030592BEF
:105220000FD097F92030792B0BD097F92030542BE1
:1052300007D097F92030742B03D097F92030312B09
:1052400002D1012387F8383097F91F30592B0FD03E
:1052500097F91F30792B0BD097F91F30542B07D0BB
:1052600097F91F30742B03D097F91F30312B02D1DF
:10527000012387F8373097F91E30592B0FD097F953
:105280001E30792B0BD097F91E30542B07D097F98D
:105290001E30742B03D097F91E30312B02D101231D
:1052A00087F8363097F91D30592B0FD097F91D30FC
:1052B000792B0BD097F91D30542B07D097F91D305F
:1052C000742B03D097F91D30312B02D1012387F8BD
:1052D000353097F91C30592B0FD097F91C30792BAA
:1052E0000BD097F91C30542B07D097F91C30742B36
:1052F00003D097F91C30312B02D1012387F83430C9
:1053000097F91B30592B0FD097F91B30792B0BD005
:1053100097F91B30542B07D097F91B30742B03D00F
:1053200097F91B30312B02D1012387F8333097F9DD
:105330001A30592B0FD097F91A30792B0BD097F9D7
:105340001A30542B07D097F91A30742B03D097F9E1
:105350001A30312B02D1012387F8323097F91930F6
:10536000592B13D097F91930792B0FD097F91930A1
:10537000542B0BD097F91930742B07D097F91930AB
:10538000312B06D102E000BF580C0200012387F840
:10539000313097F91830592B0FD097F91830792BF5
:1053A0000BD097F91830542B07D097F91830742B7D
:1053B00003D097F91830312B02D1012387F8303010
:1053C00097F91730592B0FD097F91730792B0BD04D
:1053D00097F91730542B07D097F91730742B03D057
:1053E00097F91730312B02D1012387F82F3097F826
:1053F000293097F83F2062F3451387F8293097F852
:10540000293097F83E2062F3861387F8293097F801
:10541000293097F83D2062F3C71387F8293097F8B1
:105420002B3097F83C2062F3861387F82B3097F8DF
:105430002B3097F83B2062F3C71387F82B3097F88F
:105440002A3097F83A2062F3000387F82A3097F859
:105450002A3097F8392062F3410387F82A3097F809
:105460002A3097F8382062F3820387F82A3097F8B9
:105470002A3097F8372062F3C30387F82A3097F869
:105480002A3097F8362062F3041387F82A3097F809
:105490002A3097F8352062F3861387F82A3097F878
:1054A0002B3097F8342062F3000387F82B3097F8FD
:1054B0002B3097F8332062F3410387F82B3097F8AD
:1054C0002B3097F8322062F3820387F82B3097F85D
:1054D0002B3097F8312062F3C30387F82B3097F80D
:1054E0002B3097F8302062F3041387F82B3097F8AD
:1054F0002B3097F82F2062F3451387F82B300C4B95
:105500001B68BA6A1A620A4B1B681B6ABB620948AD
:1055100006F06EFF07F128031846FEF725F9B86874
:1055200009F028F803465BB218464037BD4680BDF7
:105530004C0000209C0C020080B588B000AFF860E1
:10554000B9607A603B6007F118031846FEF7FEF871
:10555000304B1B68002B0CBF01230023DBB2002B58
:1055600005D02D4806F044FF7B685BB24EE0002377
:10557000FB7707F117031A462849B86808F02AFB99
:105580000346BB7797F91E30002B2EDD97F91730B5
:10559000592B0FD097F91730792B0BD097F917307B
:1055A000542B07D097F91730742B03D097F9173085
:1055B000312B01D10123FB77164B1B681B6ABB61A2
:1055C000FB7EFA7F62F3C303FB76124B1B68BA695A
:1055D0001A62FB7F002B01D0312300E0302397F9C2
:1055E000172019460E4806F003FF0A4B1B681B6A7A
:1055F000BB61FB7EC3F3C003DBB21946094806F06A
:10560000F7FEB86808F0B6FF03465BB218462037CD
:10561000BD4680BD4C000020C80C0200F80C020002
:10562000FC0C0200180D020080B588B000AFF860D5
:10563000B9607A603B6007F118031846FEF786F8F8
:10564000384B1B68002B0CBF01230023DBB2002B5F
:1056500005D0354806F0CCFE7B685BB25DE00023E8
:10566000FB7707F117031A463049B86808F0B2FA19
:105670000346BB7797F91E30002B3DDD97F91730B5
:10568000592B0FD097F91730792B0BD097F917308A
:10569000542B07D097F91730742B03D097F9173094
:1056A000312B01D10123FB771E4B1B681B6ABB61A9
:1056B000FB7F002B08D0FB7E23F00203FB76FB7EF2
:1056C00043F00403FB7607E0FB7E43F00203FB7626
:1056D000FB7E23F00403FB76124B1B68BA691A6247
:1056E000FB7F002B01D0312300E0302397F91720F6
:1056F00019460F4806F07CFE0A4B1B681B6ABB610B
:10570000FB7EC3F38003DBB219460A4806F070FE45
:10571000B86808F02FFF03465BB218462037BD4635
:1057200080BD00BF4C0000203C0D0200F80C0200C0
:10573000700D02008C0D020080B586B000AFF860DD
:10574000B9607A603B6000233B611B4B1B68002BF8
:105750000CBF01230023DBB2002B05D0174806F055
:1057600047FE7B685BB222E007F110031A4614493A
:10577000B86808F02FFA0346FB7597F91730002B2D
:1057800009DD3B693A6919460E4806F031FE3A696F
:10579000094B1B689A61084B1B689B693B613B691D
:1057A0003A691946084806F023FE7B685BB2184642
:1057B0001837BD4680BD00BF4C000020B00D020070
:1057C000FC0D0200000E0200300E020080B588B011
:1057D00000AFF860B9607A603B6007F118031846C3
:1057E000FDF754FF00237B61224B1B68002B0CBF8D
:1057F00001230023DBB2002B05D01F4806F0F8FD83
:105800007B685BB231E007F114031A461B49B868A4
:1058100008F0E0F90346FB7797F91F30002B12DD03
:105820007B699BB23B83164806F0E2FD07F1180343
:105830001846FDF73FFF134806F0DAFD0D4B1B68D5
:10584000BA69C3F8CC200B4B1B68D3F8CC30BB61D2
:105850000D4806F0CDFD07F118031846FDF72AFFA5
:10586000084806F0C5FD7B685BB218462037BD4688
:1058700080BD00BF4C000020580E0200FC0D02004D
:10588000AC0E020084070200D80E020080B485B07E
:1058900000AFF860B9607A603B60FB68BA681A6074
:1058A000FB687A685A60FB683A689A60FB68184639
:1058B0001437BD4680BC704798B500AF2C4C2D4BBB
:1058C0002D4A41F201012046FFF7E0FF0C34294B3D
:1058D0002A4A01212046FFF7D9FF0C34284B294AD8
:1058E00042F202012046FFF7D1FF0C34264B274A33
:1058F00042F203012046FFF7C9FF0C34244B254A2E
:1059000042F204012046FFF7C1FF0C34224B234A28
:1059100042F205012046FFF7B9FF0C34204B214A23
:1059200042F206012046FFF7B1FF0C341E4B1F4A1E
:1059300042F207012046FFF7A9FF0C341C4B1D4A19
:1059400042F208012046FFF7A1FF0C341A4B1B4A14
:1059500042F209012046FFF799FF04F10C00184BB1
:10596000184A42F20A01FFF791FF00BF98BD00BF3D
:10597000641A00201160000030100200481002007C
:105980008D6000006C1002002D6100008410020088
:10599000F96100009C100200D9630000C0100200F1
:1059A00099660000E4100200496D0000FC1002003E
:1059B000CD6D000018110200516E0000341102007C
:1059C000D56E00005011020080B500AFFFF774FFE4
:1059D00080BD000080B582B000AF786039607B6820
:1059E0001B68184617F0BCFB3B68D3E9002317F08F
:1059F00021FC02460B46104619464FF00002054BAB
:105A000017F042FD02460B46104619460837BD46C0
:105A100080BD00BF00005E4180B584B000AF7860FB
:105A2000396011A3D3E90023C7E9022307F1080372
:105A300019463868FFF7CEFF7B68D3E9002317F0DB
:105A4000F9FB02460B46104619467B68D3E9022350
:105A500017F03AFA02460B46104619461037BD4673
:105A600080BD00BFAFF30080FCA9F1D24D621040B1
:105A700080B582B000AF78607B6804331946054872
:105A8000FFF7CAFF02460B46104619460837BD46C7
:105A900080BD00BF205E002080B582B000AF78607E
:105AA0007B68083319460548FFF7B6FF02460B46E8
:105AB000104619460837BD4680BD00BF305E002045
:105AC00080B582B000AF78607B680C33194605481A
:105AD000FFF7A2FF02460B46104619460837BD469F
